:020000040800F2
:1000000038070020890100085D2C0008D519000878
:10001000592C00088F020008FF2C00080000000087
:100020000000000000000000000000008D2C00080F
:100030009302000800000000612C00088F2C0008CB
:10004000A3010008A3010008A3010008A301000800
:10005000A3010008A3010008A3010008A3010008F0
:10006000A3010008A3010008A3010008A3010008E0
:10007000A3010008A3010008A3010008A3010008D0
:10008000A3010008A3010008A3010008A3010008C0
:10009000A3010008A3010008A3010008A3010008B0
:1000A000A3010008A3010008A3010008A3010008A0
:1000B000A3010008A3010008A3010008E919000832
:1000C000D9190008091A0008F9190008A301000845
:1000D000A3010008A3010008A3010008A301000870
:1000E000A3010008A3010008A301000800F002F822
:1000F00000F03AF80AA090E8000C82448344AAF188
:100100000107DA4501D100F02FF8AFF2090EBAE885
:100110000F0013F0010F18BFFB1A43F0010318473B
:10012000802C0000A02C0000103A24BF78C878C1B1
:10013000FAD8520724BF30C830C144BF04680C60ED
:10014000704700000023002400250026103A28BF35
:1001500078C1FBD8520728BF30C148BF0B60704739
:100160001FB51FBD10B510BD00F058F81146FFF7C0
:10017000F7FF02F0E3FD00F076F803B4FFF7F2FFBB
:1001800003BC00F07DF8000009488047094800479B
:10019000FEE7FEE7FEE7FEE7FEE7FEE7FEE7FEE737
:1001A000FEE7FEE704480549054A064B7047000094
:1001B000FD2C0008ED000008380100203807002061
:1001C00038030020380300204FF0000200B513462A
:1001D00094469646203922BFA0E80C50A0E80C5067
:1001E000B1F12001BFF4F7AF090728BFA0E80C5018
:1001F00048BF0CC05DF804EB890028BF40F8042B11
:1002000008BF704748BF20F8022B11F0804F18BF7D
:1002100000F8012B7047704770477047754600F033
:100220002BF8AE4605006946534620F00700854688
:1002300018B020B5FFF7B6FFBDE820404FF000062C
:100240004FF000074FF000084FF0000B21F00701BE
:10025000AC46ACE8C009ACE8C009ACE8C009ACE801
:10026000C0098D46704710B50446AFF300802046A4
:10027000BDE81040FFF781BF00487047D80000205C
:1002800001491820ABBEFEE726000200704700BF00
:10029000FEE7704772B600BFFEE7000070B5044687
:1002A000002594F82100022803D00420A063012532
:1002B00048E02068006820F00E002168086020688F
:1002C000006820F00100216808601F49206888420A
:1002D00001D1012026E01C4914312068884201D157
:1002E00010201FE0184928312068884201D180156C
:1002F00018E015493C312068884201D1801411E092
:10030000114950312068884202D14FF4803009E011
:100310000D4964312068884202D14FF4801001E019
:100320004FF08070084908394860012084F82100A6
:1003300000BF002084F8200000BF606B10B1204691
:10034000616B8847284670BD08000240014691F85D
:100350002100704770B5044600F03AFA064625467B
:10036000681C10B104480078054400BF00F030FA62
:10037000801BA842FAD370BD140000202DE9F04183
:1003800002460B46002080E00127874007EA030170
:10039000002979D0404F4FEA900C57F82C4087073E
:1003A0004FEA177C0F2707FA0CF73C403B4FBA4245
:1003B00001D100270FE03A4FBA4201D101270AE0EC
:1003C000384FBA4201D1022705E0374FBA4201D176
:1003D000032700E004274FEA807C4FEA1C7C07FAE1
:1003E0000CF7A74231D1314F3F688F43DFF8BCC0D3
:1003F000CCF800700CF104073F688F430CF1040C3B
:10040000CCF80070294F0C373F688F43DFF89CC051
:100410000CF10C0CCCF80070ACF104073F688F4372
:10042000ACF1040CCCF8007087074FEA177C0F275B
:1004300007FA0CF4184F4FEA900C57F82CC02CEA2E
:10044000040C4FEA900847F828C0FF2901D8174646
:1004500000E0171D3D46FF2901D8870002E0A0F10A
:100460000807BF003E462F684FF00F0C0CFA06FC41
:1004700027EA0C074FF0040C0CFA06FC47EA0C07BD
:100480002F60D7688F43D760401C23FA00F7002FF6
:100490007FF47AAFBDE8F081080001400008014018
:1004A000000C014000100140001401400004014014
:1004B0002DE9F8470346002294466EE14FF001080B
:1004C00008FA02F4D1F8008008EA0400A0427DD1C5
:1004D000DFF8DCA2D1F80480A8EB0A09D0453AD0B5
:1004E00014DCB8F1030F50D009DCB8F1000F31D0A3
:1004F000B8F1010F1CD0B8F1020F49D120E0B8F1DA
:10050000110F18D0B8F1120F42D11EE0B9F5881FB3
:1005100025D006DCB9F5803F20D0B9F5801F37D152
:100520001AE0B9F5001F18D0B9F5041F30D117E053
:10053000D1F80CC02DE0D1F80C8008F1040C28E0B3
:10054000D1F80C8008F1080C23E0D1F80C8008F1F8
:100550000C0C1EE000BF00BF00BF00BF00BF00BF0B
:10056000D1F80880B8F1000F02D14FF0040C0BE075
:10057000D1F80880B8F1010F03D14FF0080C1C61CD
:1005800002E04FF0080C5C6103E04FF0000C00E06B
:1005900000BF00BFFF2801D8984601E003F104081E
:1005A0004646FF2802D84FEA820803E0A2F1080875
:1005B0004FEA88084746D6F800804FF00F0909FA3D
:1005C00007F928EA09080CFA07F900E088E048EA88
:1005D0000908C6F80080D1F8048008F08058B8F106
:1005E000805F7DD100BFDFF8CC81D8F8188048F05B
:1005F0000108DFF8C091C9F81880C846D8F81880FB
:1006000008F00108CDF8008000BF00BF4FEAB938FC
:100610004FEA920958F829504FEA82784FEA187940
:100620004FF00F0808FA09F825EA0805DFF8888175
:10063000434502D14FF0000816E0DFF880814345C2
:1006400002D14FF001080FE0DFF87481434502D179
:100650004FF0020808E0DFF86C81434502D14FF00B
:10066000030801E04FF004084FEA82794FEA197954
:1006700008FA09F848EA0505DFF84C814FEA9209C3
:1006800048F82950D1F8048008F48018B8F5801F84
:100690000AD1DFF83881D8F8008048EA0008DFF88E
:1006A0002C91C9F8008009E0DFF82081D8F800809B
:1006B00028EA0008DFF81491C9F80080D1F8048016
:1006C00008F40018B8F5001F10D1DFF8008108F118
:1006D0000408D8F8008048EA0008DFF8F09000E04D
:1006E0005AE009F10409C9F800800DE0DFF8DC8068
:1006F00008F10408D8F8008028EA0008DFF8CC9058
:1007000009F10409C9F80080D1F8048008F4003820
:10071000B8F5003F0ED1DFF8B480A8F10408D8F88E
:10072000008048EA0008DFF8A490A9F10409C9F89C
:1007300000800DE0DFF89480A8F10408D8F800806C
:1007400028EA0008DFF88490A9F10409C9F80080BC
:10075000D1F8048008F48038B8F5803F0ED1DFF876
:100760006C80A8F10808D8F8008048EA0008DFF893
:100770005C90A9F10809C9F800800DE0DFF84C8011
:10078000A8F10808D8F8008028EA0008DFF83C90B3
:10079000A9F10809C9F80080521CD1F8008028FA94
:1007A00002F8B8F1000F7FF489AEBDE8F8870000C9
:1007B000000011100010024000080140000C014030
:1007C00000100140001401400800014008040140ED
:1007D00001480068704700000C0000207047704717
:1007E00010B504460CB9012010BD242084F83D004A
:1007F0002068006820F0010021680860204600F0B1
:1008000019FB0020206484F83D00206384F83E003A
:1008100000BF84F83C0000BF00BFE5E72DE9F84FBA
:100820000446206847692068D0F80480002594F8C1
:100830003E90C7F3002070B1C8F3002058B145F0D6
:1008400001056FF48070216848612068006840F4F9
:10085000004021680860C7F3402040B1C8F3002081
:1008600028B145F002056FF4007021684861C7F3B4
:10087000802070B3C8F3002058B3CA46B4F82AB039
:1008800094F83D60206B0090BAF1200F0FD1BBF1BE
:10089000000F0CD1212E06D0292E04D0282E06D1EF
:1008A0000098212803D1204601F006FF11E06FF4E3
:1008B00080602168486145F00405B9F1100F02D04D
:1008C000B9F1400F05D12068006840F4007021683C
:1008D0000860C7F3C02040B1C8F3002028B145F03C
:1008E00008056FF40060216848612DB1206C284331
:1008F0002064204601F024F9BDE8F88F2DE9F04787
:1009000005464FF0000928684668D5F82CA095F8F0
:100910003E7095F83D80102F01D0402F75D128688A
:10092000D0F818902868446904F0010060B9BAF55D
:100930002A0F02D0BAF12A4F01D1012000E0002095
:10094000012801D1BDE8F08704F0010048B1C6F3E9
:10095000402030B1284601F05FF8284601F061FDE3
:10096000B7E0C4F3C00030B1C6F3402018B1284648
:1009700001F002FCADE0C4F3400030B1C6F340200A
:1009800018B1284601F00DFCA3E0C9F3800040B384
:100990002868406800F40060B0F5006FE0D0C4F350
:1009A000C01048B1C6F3802030B1C4F3800018B93C
:1009B000284601F075FB8CE0C4F380000028CFD0FE
:1009C000C6F340200028CBD0B8F1210F03D1284630
:1009D00001F016FB7DE0402F7BD1284601F070FD31
:1009E00077E02868406800F40060B0F5006F70D0D0
:1009F000C4F3801050B1C6F3802038B1C4F3800036
:100A000020B9284601F024FA63E00BE0C4F380002B
:100A100000285ED0C6F3402000285AD0284601F0B6
:100A200084F956E0286C10B12868446904E028680D
:100A3000D0F8189028684469C4F3400060B1C6F348
:100A4000402048B1286C10B12868D0F81890494669
:100A5000284601F0F8FD3CE0C4F3001030B1C6F3C5
:100A6000402018B1284601F07BFE32E0B8F1210F9A
:100A700002D0B8F1290F16D1C4F3C01048B1C6F3A3
:100A8000802030B1C4F3800018B9284601F0B8FDC9
:100A90001FE0C4F38000E0B1C6F34020C8B128468F
:100AA00001F0A1FD15E0C4F3801048B1C6F3802029
:100AB00030B1C4F3800018B9284601F071FD08E098
:100AC000C4F3800028B1C6F3402010B1284601F0DD
:100AD0005AFD00BF36E710B504462046FFF780FEFA
:100AE00002F09CF810BD000070B504460CB901205E
:100AF00070BD94F83D0028B9002084F83C002046E1
:100B000000F0D6F9242084F83D002068006820F029
:100B10000100216808602068006840F400402168F6
:100B200008602068006820F400402168086000F038
:100B3000BDFC05465C496068884206D85B48854232
:100B400001D2012007E0002005E05948854201D28A
:100B5000012000E00020012800D1C9E75548B5FB7D
:100B6000F0F62068406820F03F003043216848607C
:100B70004D496068884201D8701C07E04FF49670B8
:100B800070434FF47A71B0FBF1F0401C2168096AA0
:100B900021F03F01084321680862434960688842A8
:100BA00014D8681E61684900B0FBF1F0401CC0F326
:100BB0000B00042801D204203DE0681E6168490052
:100BC000B0FBF1F0401CC0F30B0034E0A06838B972
:100BD000681E616801EB4101B0FBF1F0401C0AE0C6
:100BE000681E616801EBC10202EB0111B0FBF1F07C
:100BF000401C40F48040C0F30B0008B901201AE00B
:100C0000A06848B9681E616801EB4101B0FBF1F0D2
:100C1000401CC0F30B000CE0681E616801EBC102D0
:100C200002EB0111B0FBF1F0401CC0F30B0040F4EB
:100C3000804040F400402168C9694CF6FF7291433E
:100C400008432168C861D4E907010843216809689D
:100C500021F0C001084321680860D4E9031008436B
:100C60002168896848F2FF3291430843216888600F
:100C7000D4E9050108432168C96821F0FF01084350
:100C80002168C8602068006840F0010021680860A1
:100C900000202064202084F83D000020206384F898
:100CA0003E0000BF24E70000A086010080841E00F3
:100CB00000093D0040420F00704770477047000038
:100CC0002DE9F8430446894616461F46DDF8208084
:100CD000FFF77EFD054694F83D0020287ED11923BC
:100CE000012251492046009501F033FE10B1022047
:100CF000BDE8F88300BF94F83C00012801D1022030
:100D0000F6E7012084F83C0000BF2068006800F08E
:100D1000010028B92068006840F0010021680860DF
:100D20002068006820F4006021680860212084F8B1
:100D30003D00102084F83E00002020646662678534
:100D4000608D20853948E0622B4642464946204660
:100D500001F0F6F808B10120CAE700BF00200090BA
:100D600020684069009020688069009000BF00BF43
:100D700044E02A464146204601F0F0FE50B1206C86
:100D8000042805D12068006840F4007021680860DC
:100D90000120ADE7606A007821680861606A401C44
:100DA0006062608D401E6085208D401E2085206819
:100DB0004069C0F3800070B1208D60B1606A007836
:100DC00021680861606A401C6062608D401E608519
:100DD000208D401E20852A46414600E022E0204624
:100DE00001F084FD50B1206C042805D12068006812
:100DF00040F4007021680860012079E7208D002808
:100E0000B7D12068006840F4007021680860202095
:100E100084F83D00002084F83E0000BF84F83C00C8
:100E200000BF65E7022063E7020010000000FFFF3B
:100E30007047704710B5044619492068884214D19C
:100E40001848C06920F400101649C86140211648AE
:100E5000FFF794FA80211448FFF790FA1F2000F062
:100E6000D5F9202000F0D2F918E010492068884216
:100E700014D10C48C06920F480000A49C8610915E2
:100E80000948FFF77BFA4FF400610748FFF776FA4D
:100E9000212000F0BBF9222000F0B8F910BD0000BD
:100EA0000054004000100240000C01400058004077
:100EB00010B586B00446002002900390049005907F
:100EC0003B492068884236D100BF3A48806940F0EB
:100ED0000800384988610846806900F008000190E0
:100EE00000BF00BFC0200290122003900320059095
:100EF00002A93148FFF7DCFA00BF2E48C06940F470
:100F000000102C49C8610846C06900F40010019027
:100F100000BF00BF002211461F2000F0A9F91F20CA
:100F200000F096F900221146202000F0A1F92020BF
:100F300000F08EF93AE021492068884236D100BF9E
:100F40001C48806940F008001A4988610846806999
:100F500000F00800019000BF00BF4FF44060029015
:100F6000122003900320059002A91348FFF7A0FA6E
:100F700000BF1048C06940F480000E49C8610846AF
:100F8000C06900F48000019000BF00BF002211463C
:100F9000212000F06DF9212000F05AF900221146BD
:100FA000222000F065F9222000F052F906B010BDB1
:100FB0000054004000100240000C01400058004066
:100FC00070B50546422420230A220549054800F051
:100FD0005DF80A220449034800F00CF870BD0000D7
:100FE00000000020840000201C0000200146422058
:100FF0007047000010B5034693F83D00202840D10B
:1010000001B10AB9012010BD00BF93F83C000128CE
:1010100001D10220F7E7012083F83C0000BF1868E7
:10102000006800F0010028B91868006840F001006D
:101030001C6820601868006820F400601C6820604C
:10104000222083F83D00202083F83E000020186411
:1010500059625A85588D18850B48D86218680068FF
:1010600040F480601C68206000BF002083F83C00D2
:1010700000BF1868406840F4E0601C6860600020B1
:10108000C1E70220BFE700000000FFFF38B50446BB
:1010900094F83D0000F02800282844D101B10AB995
:1010A000012038BD00BF94F83C00012801D1022086
:1010B000F7E7012084F83C0000BF2068006800F0DA
:1010C000010028B92068006840F001002568286008
:1010D0002068006820F4006025682860292084F8D2
:1010E0003D00202084F83E0000202064616262857B
:1010F000608D2085E36200BF002000902068406979
:10110000009020688069009000BF00BF00BF0020F1
:1011100084F83C0000BF2068406840F4E060256827
:1011200068600020BDE70220BBE7000003480068BC
:101130000349097808440149086070470C00002001
:101140001400002010B50848006840F0100006495F
:101150000860032000F0CAF80F2000F007F800F044
:101160002BF8002010BD00000020024070B504469E
:101170000E4800784FF47A71B1FBF0F00C49096821
:10118000B1FBF0F5284600F00BFC08B1012070BD62
:10119000102C07D200222146501E00F069F80548A5
:1011A000046001E00120F2E70020F0E714000020D5
:1011B000180000201000002008B500BF1148806909
:1011C00040F001000F4988610846806900F0010085
:1011D000009000BF00BF00BF0846C06940F08050CB
:1011E000C8610846C06900F08050009000BF00BF91
:1011F00000BF0549486820F0E06040F0007048609A
:1012000000BF08BD001002400000014010B50146BB
:101210000846002817DB00F01F0301229A400B4B01
:10122000440943F8242000BF00BF00BFBFF34F8F25
:1012300000BF00BF00BF00BF00BF00BFBFF36F8F84
:1012400000BF00BF00BF00BF10BD000080E100E094
:1012500001460846002809DB00F01F0301229A40DE
:1012600043099B0003F1E023C3F8002100BF70474E
:101270002DE9F05F80460D461646002701F042FD3D
:10128000074639462A46334601F00700C0F1070AEF
:10129000BAF1040F02D94FF0040A01E0C0F1070AC5
:1012A000D14600F1040ABAF1070F02D24FF0000A4A
:1012B00001E0A0F1030AD4464FF0010A0AFA09FA44
:1012C000AAF1010A0AEA020A0AFA0CFA4FF0010B23
:1012D0000BFA0CFBABF1010B0BEA030B4AEA0B0414
:1012E0002146404601F016FDBDE8F09F00BF00F02A
:1012F0000702064B19684FF6FF031940044B0B43D6
:1013000043EA0221014B196000BF70470CED00E079
:101310000000FA0570B504460D460CB9012070BDF9
:101320005A48006800F00700A8420ED257480068EB
:1013300020F007002843554908600846006800F07F
:101340000700A84201D00120E9E7207800F0020060
:1013500002281DD1207800F00400042805D14C4853
:10136000406840F4E0604A494860207800F0080096
:10137000082805D14648406840F460504449486018
:101380004348406820F0F000A168084340494860A5
:10139000207800F0010078B36068012806D13C484D
:1013A000006800F4003090B90120B8E760680228B6
:1013B00006D13748006800F0007040B90120AEE760
:1013C0003348006800F0020008B90120A7E7304860
:1013D000406820F00300616808432D494860FFF72A
:1013E000F7F9064609E0FFF7F3F9801B41F288316F
:1013F000884202D9032092E707E02548406800F0C0
:101400000C006168B0EB810FEDD12048006800F05E
:101410000700A8420ED91D48006820F007002843A5
:101420001A4908600846006800F00700A84201D089
:10143000012074E7207800F00400042807D1144844
:10144000406820F4E060E168084311494860207872
:1014500000F00800082808D10D48406820F46050CA
:10146000216940EAC1000A49486000F02FF80849A4
:101470004968C1F30311074A515CC8400649086036
:1014800006480068FFF772FE002048E7002002408F
:1014900000100240862D00081800002010000020D7
:1014A00001480068704700001800002000B5FFF7F1
:1014B000F7FF04494968C1F30221034A515CC8405F
:1014C00000BD000000100240962D000870B50021FC
:1014D0000022002400230020134D696801F00C0550
:1014E000F5B1042D02D0082D19D101E00F4819E003
:1014F0000F4DC1F38346AB5D01F4803555B10A4D04
:101500006D68C5F340450B4E725D084D5D43B5FBFC
:10151000F2F402E0084D03FB05F4204602E000BFB0
:10152000024800BF00BF70BD0010024000127A00E8
:10153000742D0008842D000800093D00F8B504460C
:101540000CB90120F8BD207800F00100002878D007
:10155000F848406800F00C0004280CD0F5484068BA
:1015600000F00C00082811D1F248406800F48030E7
:10157000B0F5803F0AD1EF48006800F40030002841
:101580005FD0606800285CD10120DBE700BF6068A5
:10159000B0F5803F06D1E748006840F48030E54967
:1015A000086028E0606858B9E248006820F480309C
:1015B000E04908600846006820F4802008601AE0CE
:1015C0006068B0F5A02F0BD1DA48006840F48020A5
:1015D000D84908600846006840F4803008600AE096
:1015E000D448006820F48030D2490860084600687A
:1015F00020F48020086000BF606888B1FFF7E8F839
:10160000054606E0FFF7E4F8401B642801D90320F3
:1016100098E7C848006800F400300028F2D010E0D5
:10162000FFF7D6F8054606E0FFF7D2F8401B64281E
:1016300001D9032086E7BF48006800F40030002885
:10164000F2D1207800F00200022857D1B948406852
:1016500000F00C0050B1B748406800F00C000828BA
:1016600018D1B448406800F4803098B9B148006897
:1016700000F0020020B12069012801D0012061E7BB
:10168000AC48006820F0F800616940EAC100A9494F
:10169000086033E02069E8B10120A7490860FFF73E
:1016A00097F8054606E0FFF793F8401B022801D99A
:1016B000032047E79F48006800F002000028F2D0AE
:1016C0009C48006820F0F800616940EAC10099492F
:1016D000086013E0002098490860FFF779F8054694
:1016E00006E0FFF775F8401B022801D9032029E71F
:1016F0009048006800F002000028F2D1207800F045
:10170000080008282DD1A069B8B101208B490860D4
:10171000FFF75EF8054606E0FFF75AF8401B02287F
:1017200001D903200EE78348406A00F00200002838
:10173000F2D0012001F096FA13E000207F49086002
:10174000FFF746F8054606E0FFF742F8401B02287F
:1017500001D90320F6E67748406A00F0020000282D
:10176000F2D1207800F00400042873D100277148DA
:10177000C06900F0805070B900BF6E48C06940F089
:1017800080506C49C8610846C06900F080500090E4
:1017900000BF00BF01276A48006800F48070B0B93C
:1017A0006748006840F4807065490860FFF710F8EA
:1017B000054606E0FFF70CF8401B642801D903201A
:1017C000C0E65F48006800F480700028F2D000BFD7
:1017D000E068012806D15748006A40F001005549E9
:1017E000086227E0E06858B95248006A20F001001A
:1017F000504908620846006A20F00400086219E0B7
:10180000E06805280BD14B48006A40F004004949C4
:1018100008620846006A40F0010008620AE0454894
:10182000006A20F00100434908620846006A20F07F
:101830000400086200BFE068A0B1FEF7C9FF0546DA
:1018400009E0FEF7C5FF401B41F28831884202D90A
:10185000032077E622E03748006A00F00200002803
:10186000EFD012E0FEF7B4FF054608E0FEF7B0FF48
:10187000401B41F28831884201D9032062E62D489D
:10188000006A00F002000028F0D1012F05D129489C
:10189000C06920F080502749C86100BFE069C8B323
:1018A0002448406800F00C00082860D0E069022855
:1018B00048D1002020490866FEF78AFF054606E069
:1018C000FEF786FF401B022801D903203AE619489B
:1018D000006800F000700028F2D1206AB0F5803F67
:1018E00007D11448406820F40030A168084311492A
:1018F0004860D4E9080108430E49496821F474118D
:1019000008430C49486001200B490866FEF760FF58
:10191000054607E03DE0FEF75BFF401B022801D9CA
:1019200003200FE60348006800F000700028F2D0A2
:101930002FE00000001002400000424280044242BA
:1019400000700040002014490866FEF741FF05467C
:1019500006E0FEF73DFF401B022801D90320F1E518
:101960000E48006800F000700028F2D111E0E06934
:10197000012800D1E6E50948466806F48031206A6E
:10198000814204D106F47011606A814201D00120C5
:10199000D8E50020D6E500000000424200100240D9
:1019A00070B504462546681EB0F1807F01D3012042
:1019B0000FE0681E4FF0E02148610F214FF0FF302B
:1019C00001F0A8F900204FF0E021886107200861AC
:1019D000002070BD00BFFEE710B50248FEF71EFFF5
:1019E00010BD00003000002010B50248FEF786FF51
:1019F00010BD00003000002010B50248FEF70EFFB9
:101A000010BD00008400002010B50248FEF776FFEC
:101A100010BD000084000020C16AB1F52A0F02D178
:101A20000121C16205E0C16AB1F12A4F01D108214B
:101A3000C1627047F8B50546002000906C6A94F8C2
:101A40003D60394800681921B0FBF1F04FF47A711C
:101A5000B0FBF1F0C0EBC00000EB8000009000BFD5
:101A6000009820B9206C40F02000206409E0009824
:101A7000401E00902068006800F40070B0F5007F00
:101A8000EED000BF606B10B10020616B8862A06B6C
:101A900010B10020A16B88622068006820F480608B
:101AA0002168086000206085606B10B10020616BC8
:101AB0004863A06B10B10020A16B486320680068E8
:101AC00020F001002168086094F83D0060280AD1E8
:101AD000202084F83D00002084F83E002064204649
:101AE000FEF77CFE1EE006F02800282811D12068B1
:101AF000006840F00100216808602068006840F438
:101B000080602168086000202063282084F83D0060
:101B100005E0202084F83D00002084F83E002046A7
:101B2000FEF7D9FFF8BD00001800002001684969E0
:101B3000C1F3C01111B100210268116170470000AA
:101B40002DE9F041044694F83D6094F83E70102F62
:101B500001D0402F07D1222E05D12068006820F443
:101B600000602168086006F02800282805D10020C0
:101B70002063282084F83D0010E02068406800F4CD
:101B80000060B0F5006F07D0602E05D0202084F8EB
:101B90003D00002084F83E0000202063206840685B
:101BA00000F40060B0F5006F40D12068406820F478
:101BB000006021684860606B90F82100012814D013
:101BC0004848616B4863606BFEF768FB00285BD098
:101BD0002068006820F0010021680860202084F857
:101BE0003D00606B416B88474EE03E48A16B486307
:101BF000A06BFEF753FB002846D020684069C0F375
:101C0000801030B120680069616A0870606A401C09
:101C100060622068006820F00100216808602020D0
:101C200084F83D00A06B416B88472DE094F83D009F
:101C300060281AD1202084F83D000020206420680C
:101C40004069C0F3801030B120680069616A087093
:101C5000606A401C60622068006820F00100216812
:101C600008602046FEF7BAFD0EE020684069C0F328
:101C7000801030B120680069616A0870606A401C99
:101C800060622046FEF727FF256C05F0010058B979
:101C900005F00200022807D005F00400042803D054
:101CA00005F00800082805D12068406820F4E060AD
:101CB0002168486094F83D60206C00F0040004281E
:101CC0000ED1282E0CD10848E0620020206320208D
:101CD00084F83D00002084F83E002046FEF7ECFF2B
:101CE000BDE8F081351A00080000FFFF01460868D2
:101CF0004069C0F38020B0B16FF480600A68506121
:101D000000200863202081F83D00002081F83E007B
:101D1000086C40F00400086400BF002081F83C001B
:101D200000BF012070470020FCE770B50446E56A5B
:101D3000608D042810D12068406820F480602168FC
:101D4000486020680069616A0870606A401C6062CF
:101D5000608D401E60857AE0608D03281AD120686E
:101D6000406820F4806021684860042D07D0022D6F
:101D700005D02068006820F4806021680860206831
:101D80000069616A0870606A401C6062608D401E74
:101D900060855CE0608D02284FD1012D01D0102DAF
:101DA00006D12068006820F480602168086012E095
:101DB000042D01D0022D06D12068006840F4806017
:101DC0002168086007E0102D05D02068006840F405
:101DD00000702168086020680069616A0870606AA4
:101DE000401C6062608D401E608520680069616AE9
:101DF0000870606A401C6062608D401E60852068CB
:101E0000406820F4407021684860202084F83D003C
:101E100094F83E00402807D1002084F83E0020635B
:101E20002046FFF705F812E0002084F83E0012205B
:101E300020632046FEF741FF09E020680069616ADF
:101E40000870606A401C6062608D401E608570BDD5
:101E500070B5044694F83D00222870D1658D032D9D
:101E600013D920680069616A0870606A401C60626A
:101E7000608D401E6085608D03285FD120684068BA
:101E800020F480602168486058E0E06A02284FD062
:101E9000012D01D0002D4BD1204600F037FE68BB4C
:101EA0002068006820F4806021680860206840682D
:101EB00020F4E0602168486020680069616A087069
:101EC000606A401C6062608D401E6085202084F83E
:101ED0003D0094F83E00402807D1002084F83E00E1
:101EE00020632046FEF7A4FF28E0002084F83E008F
:101EF000122020632046FEF7E0FE1FE020684068C5
:101F000020F4E0602168486020680069616A087018
:101F1000606A401C6062608D401E6085202084F8ED
:101F20003D00002084F83E002046FEF7D4FD05E089
:101F30002068406820F480602168486000BF70BD60
:101F40002DE9F84304460D4617469846E66A082EE2
:101F500004D0012E02D016F5803F06D1206800681B
:101F600040F480702168086008E0206B122805D1D9
:101F70002068006840F48070216808603B460022B9
:101F80004FF001112046CDF8008000F0E2FC60B176
:101F90002068006800F48070B0F5807F02D14FF4B3
:101FA000007020640320BDE8F8832069B0F5804FFD
:101FB00004D105F0FE002168086112E005F44070CC
:101FC000F02141EAE0102168086143463A460B4996
:101FD000204600F01DFD08B10120E4E7E8B22168C9
:101FE000086143463A460549891F204600F010FD26
:101FF00008B10120D7E70020D5E700000800010064
:1020000070B50446E56A94F83D00212847D1608DFB
:1020100050B1606A007821680861606A401C6062A3
:10202000608D401E60853AE0082D16D0202D14D01A
:1020300015F5803F11D02068406820F4E0602168E9
:10204000486011202063002084F83E00202084F89E
:102050003D002046FEF732FE21E02068406820F473
:10206000E060216848602068006840F400702168E2
:10207000086000202063202084F83D0094F83E0092
:10208000402806D1002084F83E002046FEF7D1FE0D
:1020900005E0002084F83E002046FEF70FFE70BDEC
:1020A0002DE9F041044694F83D5094F83E70E66AFC
:1020B000208DB0BB212D3CD1082E16D0202E14D05F
:1020C00016F5803F11D02068406820F4E060216858
:1020D000486011202063002084F83E00202084F80E
:1020E0003D002046FEF7EAFD44E02068406820F409
:1020F000E060216848602068006840F40070216852
:10210000086000202063202084F83D0094F83E0001
:10211000402807D1002084F83E002046FEF789FEC3
:1021200028E006E0002084F83E002046FEF7C6FDC9
:1021300020E0212D03D0402F1CD1222D1AD1608DFB
:1021400030B92068406820F480602168486011E060
:1021500094F83E00402803D1204600F0B1F909E090
:10216000606A007821680861606A401C6062608D66
:10217000401E6085BDE8F081416CC9B20268116102
:10218000416B11B1416B896A21B9816B41B1816B9E
:10219000896A29B10168496841F4006102685160A7
:1021A000704738B590F83E20C16A036B90F83D4007
:1021B000222C73D1046D64B9402A0AD100BF0024D7
:1021C00000940468646900940468A469009400BFE2
:1021D00026E1046DC4B90469B4F5404F14D100BFC1
:1021E000002400940468646900940468A46900945D
:1021F00000BF00BF0468246844F4807405682C6044
:10220000046D641C04650BE1448D8CB900BF00248F
:1022100000940468646900940468A469009400BF91
:1022200000BF0468246844F4007405682C60E9E089
:10223000448D012C72D111F5803F30D1046824689F
:1022400024F4806405682C600468646804F4006405
:10225000B4F5006F10D10468246824F48064056824
:102260002C6000BF00240094046864690094046832
:10227000A469009400BFC5E000BF00240094046876
:10228000646900940468A469009400BF00BF0468F6
:10229000246844F4007405682C60B3E0B5E00829B4
:1022A00023D0202921D0122B01D101291DD10429AD
:1022B0000AD0022908D0102906D00468246824F422
:1022C000806405682C6005E00468246844F4806438
:1022D00005682C6000BF00240094046864690094C1
:1022E0000468A469009400BF8CE00468246824F4A6
:1022F000806405682C6000BF002400940468646951
:1023000000940468A469009400BF00BF04682468B6
:1023100044F4007405682C6074E0FFE7448D022CDF
:1023200047D104291BD0022919D0102917D00468DD
:10233000246844F4006405682C6000BF0024009405
:102340000468646900940468A469009400BF00BF35
:102350000468246824F4806405682C6010E0046834
:10236000246844F4806405682C6000BF0024009455
:102370000468646900940468A469009400BF00BF05
:102380000468646804F40064B4F5006F3AD111F590
:10239000803F07D0012905D0082903D0102901D09A
:1023A00020292FD10468646844F4805405686C6067
:1023B00028E00468246844F4806405682C6004689C
:1023C000646804F40064B4F5006F10D111F5803F27
:1023D00007D0012905D0082903D0102901D02029D0
:1023E00005D10468646844F4805405686C6000BFDB
:1023F000002400940468646900940468A46900944B
:1024000000BF00BF002404650AE000BF0024009460
:102410000468646900940468A469009400BF00BF64
:1024200038BD90F83E1040290ED1016D29B9416C9C
:1024300001F0FE010268116141E0416CC9B241F056
:102440000101026811613AE00169B1F5804F20D1C4
:1024500090F83D10212905D1416C01F0FE01026880
:10246000116105E0416CC9B241F0010102681161DE
:10247000416B11B1416B896A21B9816BF9B1816BF3
:10248000896AE1B10168496841F4006102685160FC
:1024900015E0016D41B9416C01F44071F02242EA4E
:1024A000E111026811610AE0016D012907D1416C57
:1024B00001F44071F12242EAE111026811617047B2
:1024C00070B5044694F83D50206D98B9E06C012831
:1024D00007D1A06CC0B221680861206D801C206506
:1024E00050E0A06CC0F3072021680861206D401CFB
:1024F000206547E0206D012807D1A06CC0B221689B
:102500000861206D401C20653CE0206D022836D11A
:10251000222D09D12068006840F48070216808608D
:10252000206D401C20652DE0608D60B1212D0AD109
:10253000606A007821680861606A401C6062608D92
:10254000401E60851EE0608DE0B9212D1AD1206803
:10255000406820F4E060216848602068006840F42A
:1025600000702168086000202063202084F83D006E
:10257000002084F83E002046FEF75BFC02E0204687
:10258000FFF7D4FA70BD418D49B101680969426A0B
:102590001170416A491C4162418D491E4185704755
:1025A00070B5044694F83D50608DD8B1206800693C
:1025B000616A0870606A401C6062608D401E6085C0
:1025C000608D78B92A2D0DD12068406820F4806094
:1025D0002168486022202063282084F83D0020469E
:1025E000FEF7EEFC70BD418D49B1416A0978026881
:1025F0001161416A491C4162418D491E4185704704
:1026000070B5044694F83D50608DD8B1606A00788A
:1026100021680861606A401C6062608D401E6085B0
:10262000608D78B9292D0DD12068406820F4806034
:102630002168486021202063282084F83D0020463E
:10264000FEF7D4FC70BDF8B504460D46002794F89B
:102650003D0000F0280028281CD12068406820F4A4
:10266000806021684860C5F3800000B90127C5F388
:10267000C01010B9A08986B201E0208B86B200BFDD
:10268000002084F83C0000BF324639462046FEF761
:10269000A6F80FE000BF002000902068406900907D
:1026A00020688069009000BF00BF00BF002084F850
:1026B0003C0000BFF8BD000070B5044694F83D50E2
:1026C000E66A082E01D0202E1FD1282D1DD12348C7
:1026D000E0622068406820F4E060216848606FF4A0
:1026E0008060216848612068006820F4806021686B
:1026F000086000202063202084F83D00002084F83A
:102700003E002046FEF7D8FA26E0212D20D11348BE
:10271000E06221202063202084F83D00002084F81E
:102720003E002068406820F4E060216848606FF453
:102730008060216848612068006820F4806021681A
:1027400008602046FFF7F2F92046FEF74FFC03E051
:102750006FF480602168486170BD00000000FFFFD9
:1027600038B5044694F83D502068406820F4E06095
:102770002168486000BF00200090206840690090F8
:102780002068006840F001002168086000BF00BFB9
:102790002068006820F48060216808602068406834
:1027A00000F40060B0F5006F42D1222D01D02A2D37
:1027B0001FD1A06B006840686085608D18B1206CE7
:1027C00040F0040020642068406820F40060216824
:1027D0004860A06BFDF7BAFD012829D04148A16BE4
:1027E0004863A06BFDF75AFD10B3A06B416B88479F
:1027F0001EE0606B006840686085608D18B1206CD9
:1028000040F0040020642068406820F400602168E3
:102810004860606BFDF79AFD012809D03148616B73
:102820004863606BFDF73AFD10B1606B416B884700
:10283000608D18B320684069C0F3800048B12068FB
:102840000069616A0870606A401C6062608D401EA9
:10285000608520684069C0F3801048B12068006935
:10286000616A0870606A401C6062608D401E60850D
:10287000608D18B1206C40F004002064206C18B109
:102880002046FFF75DF92BE02A2D07D100202063B9
:10289000282084F83D002046FEF792FB94F83D0086
:1028A00028280DD11048E06200202063202084F801
:1028B0003D00002084F83E002046FEF7FDF90FE0C1
:1028C000206B222801D0222D0AD100202063202055
:1028D00084F83D00002084F83E002046FEF770FB9F
:1028E00038BD0000351A00080000FFFF70B504462F
:1028F0000D46164625E02046FFF7F8F908B10120FD
:1029000070BD681CE8B1FDF763FF801BA84200D8CA
:10291000BDB920684069C0F3800090B900202063F1
:10292000202084F83D00002084F83E00206C40F018
:102930002000206400BF002084F83C0000BF01207C
:10294000DEE720684069C0F380000028D3D0002073
:10295000D6E72DE9F04104460D4617461E46DDF840
:10296000188038E0701CA8B3FDF732FFA0EB080018
:10297000B04200D876BBC5F3074001280AD12068D1
:102980004069A9B20840A9B2884201D101200BE0F8
:10299000002009E020688069A9B20840A9B28842F5
:1029A00001D1012000E00020B84214D100202063B2
:1029B000202084F83D00002084F83E00206C40F088
:1029C0002000206400BF002084F83C0000BF0120EC
:1029D000BDE8F081FFE7C5F3074001280AD1206870
:1029E0004069A9B20840A9B2884201D101200BE098
:1029F000002009E020688069A9B20840A9B2884295
:102A000001D1012000E00020B842ABD00020DFE778
:102A10002DE9F04104460D4616461F4658E0206851
:102A20004069C0F38020E8B12068006840F400707D
:102A3000216808606FF4806021684861002020638D
:102A4000202084F83D00002084F83E00206C40F0F7
:102A50000400206400BF002084F83C0000BF012077
:102A6000BDE8F081701C90B3FDF7B2FEC01BB04210
:102A700000D866BBC5F3074001280AD12068406929
:102A8000A9B20840A9B2884201D101200BE0002080
:102A900009E020688069A9B20840A9B2884201D142
:102AA000012000E0002090B900202063202084F85D
:102AB0003D00002084F83E00206C40F0200020649F
:102AC00000BF002084F83C0000BF0120C8E7FFE7FA
:102AD000C5F3074001280AD120684069A9B208401F
:102AE000A9B2884201D101200BE0002009E0206852
:102AF0008069A9B20840A9B2884201D1012000E052
:102B0000002000288BD00020AAE7000008B501466D
:102B100000200090104800681922B0FBF2F04FF43A
:102B20007A72B0FBF2F000EB8000009000BF0098DA
:102B3000401E0090009828B9086C40F020000864FE
:102B4000012008BD0868006800F40070B0F5007F3F
:102B5000EDD00020F5E700001800002070B5044615
:102B60000D46164625E02046FFF7C0F808B10120C3
:102B700070BD681CE8B1FDF72BFE801BA84200D891
:102B8000BDB920684069C0F3C01090B9002020632F
:102B9000202084F83D00002084F83E00206C40F0A6
:102BA0002000206400BF002084F83C0000BF01200A
:102BB000DEE720684069C0F3C0100028D3D00020B1
:102BC000D6E7000008B500BF1348806940F0200038
:102BD000114988610846806900F02000009000BF1C
:102BE00000BF00BF0846806940F0080088610846C1
:102BF000806900F00800009000BF00BF00BF0846D9
:102C0000806940F0040088610846806900F0040093
:102C1000009000BF00BF08BD0010024010B50B4877
:102C20000B4908600B484860002109488160C16079
:102C30004FF480410161002141618161C161016204
:102C4000FDF752FF08B1FDF725FB10BD0054004011
:102C500030000020A086010000BFFEE700BFFEE7B5
:102C60007047000008B508490968C9084FF47A722E
:102C7000B1FBF2F14143009100BF00BF00994A1E31
:102C800000920029F9D108BD18000020704710B546
:102C9000FEF74CFA10BD00B58FB0282105A8FDF74E
:102CA00093FA14216846FDF78FFA0120059000047D
:102CB0000690002007900120099002200C90C1038B
:102CC0000D914FF4E0110E9105A8FEF737FC08B105
:102CD000FDF7E0FA0F200090022001900020029002
:102CE0004FF4806003900020049002216846FEF7B4
:102CF00011FB08B1FDF7CEFA0FB000BD704700BF61
:102D0000FEE7000002480068C0F3022070470000A0
:102D10000CED00E010B5002804DB0A07130E054A8D
:102D2000135406E00A07140E034A00F00F031B1F9A
:102D3000D45410BD00E400E018ED00E008B5FEF743
:102D400001FAFFF7A8FFFFF73DFFFFF767FF0BE072
:102D50004FF47A700A23054A282100900448FDF7B1
:102D6000AFFF6420FDF7F6FAF2E700000000002054
:102D70003000002002030405060708090A0B0C0DA9
:102D80000E0F101001020000000000000000010200
:102D90000304060708090000000001020304000004
:102DA000C02D0008000000201C00000028010008C1
:102DB000DC2D00081C0000201C0700004401000856
:102DC00000010203040506070809000000000000D6
:0C2DD00010000000010000000024F400CE
:04000005080000ED02
:00000001FF
