:020000040800F2
:100000004007002089010008512E0008D11B00087C
:100010004D2E00088F020008F32E0008000000009B
:10002000000000000000000000000000812E000819
:100030009302000800000000552E0008832E0008DF
:10004000A3010008A3010008A3010008A301000800
:10005000A3010008A3010008A3010008A3010008F0
:10006000A3010008A3010008A3010008A3010008E0
:10007000A3010008A3010008A3010008A3010008D0
:10008000A3010008A3010008A3010008A3010008C0
:10009000A3010008A3010008A3010008A3010008B0
:1000A000A3010008A3010008A3010008A3010008A0
:1000B000A3010008A3010008A3010008E51B000834
:1000C000D51B0008051C0008F51B0008A30100084B
:1000D000A3010008A3010008A3010008A301000870
:1000E000A3010008A3010008A301000800F002F822
:1000F00000F03AF80AA090E8000C82448344AAF188
:100100000107DA4501D100F02FF8AFF2090EBAE885
:100110000F0013F0010F18BFFB1A43F0010318473B
:10012000F030000010310000103A24BF78C878C1C8
:10013000FAD8520724BF30C830C144BF04680C60ED
:10014000704700000023002400250026103A28BF35
:1001500078C1FBD8520728BF30C148BF0B60704739
:100160001FB51FBD10B510BD00F058F81146FFF7C0
:10017000F7FF02F0DDFE00F076F803B4FFF7F2FFC0
:1001800003BC00F07DF8000009488047094800479B
:10019000FEE7FEE7FEE7FEE7FEE7FEE7FEE7FEE737
:1001A000FEE7FEE704480549054A064B7047000094
:1001B000F12E0008ED00000840010020400700205B
:1001C00040030020400300204FF0000200B513461A
:1001D00094469646203922BFA0E80C50A0E80C5067
:1001E000B1F12001BFF4F7AF090728BFA0E80C5018
:1001F00048BF0CC05DF804EB890028BF40F8042B11
:1002000008BF704748BF20F8022B11F0804F18BF7D
:1002100000F8012B7047704770477047754600F033
:100220002BF8AE4605006946534620F00700854688
:1002300018B020B5FFF7B6FFBDE820404FF000062C
:100240004FF000074FF000084FF0000B21F00701BE
:10025000AC46ACE8C009ACE8C009ACE8C009ACE801
:10026000C0098D46704710B50446AFF300802046A4
:10027000BDE81040FFF781BF00487047DC00002058
:1002800001491820ABBEFEE726000200704700BF00
:10029000FEE7704772B600BFFEE7000070B5044687
:1002A000002594F82100022803D00420A063012532
:1002B00048E02068006820F00E002168086020688F
:1002C000006820F00100216808601F49206888420A
:1002D00001D1012026E01C4914312068884201D157
:1002E00010201FE0184928312068884201D180156C
:1002F00018E015493C312068884201D1801411E092
:10030000114950312068884202D14FF4803009E011
:100310000D4964312068884202D14FF4801001E019
:100320004FF08070084908394860012084F82100A6
:1003300000BF002084F8200000BF606B10B1204691
:10034000616B8847284670BD08000240014691F85D
:100350002100704770B5044600F03AFA064625467B
:10036000681C10B104480078054400BF00F030FA62
:10037000801BA842FAD370BD0C0000202DE9F0418B
:1003800002460B46002080E00127874007EA030170
:10039000002979D0404F4FEA900C57F82C4087073E
:1003A0004FEA177C0F2707FA0CF73C403B4FBA4245
:1003B00001D100270FE03A4FBA4201D101270AE0EC
:1003C000384FBA4201D1022705E0374FBA4201D176
:1003D000032700E004274FEA807C4FEA1C7C07FAE1
:1003E0000CF7A74231D1314F3F688F43DFF8BCC0D3
:1003F000CCF800700CF104073F688F430CF1040C3B
:10040000CCF80070294F0C373F688F43DFF89CC051
:100410000CF10C0CCCF80070ACF104073F688F4372
:10042000ACF1040CCCF8007087074FEA177C0F275B
:1004300007FA0CF4184F4FEA900C57F82CC02CEA2E
:10044000040C4FEA900847F828C0FF2901D8174646
:1004500000E0171D3D46FF2901D8870002E0A0F10A
:100460000807BF003E462F684FF00F0C0CFA06FC41
:1004700027EA0C074FF0040C0CFA06FC47EA0C07BD
:100480002F60D7688F43D760401C23FA00F7002FF6
:100490007FF47AAFBDE8F081080001400008014018
:1004A000000C014000100140001401400004014014
:1004B0002DE9F8470346002294466EE14FF001080B
:1004C00008FA02F4D1F8008008EA0400A0427DD1C5
:1004D000DFF8DCA2D1F80480A8EB0A09D0453AD0B5
:1004E00014DCB8F1030F50D009DCB8F1000F31D0A3
:1004F000B8F1010F1CD0B8F1020F49D120E0B8F1DA
:10050000110F18D0B8F1120F42D11EE0B9F5881FB3
:1005100025D006DCB9F5803F20D0B9F5801F37D152
:100520001AE0B9F5001F18D0B9F5041F30D117E053
:10053000D1F80CC02DE0D1F80C8008F1040C28E0B3
:10054000D1F80C8008F1080C23E0D1F80C8008F1F8
:100550000C0C1EE000BF00BF00BF00BF00BF00BF0B
:10056000D1F80880B8F1000F02D14FF0040C0BE075
:10057000D1F80880B8F1010F03D14FF0080C1C61CD
:1005800002E04FF0080C5C6103E04FF0000C00E06B
:1005900000BF00BFFF2801D8984601E003F104081E
:1005A0004646FF2802D84FEA820803E0A2F1080875
:1005B0004FEA88084746D6F800804FF00F0909FA3D
:1005C00007F928EA09080CFA07F900E088E048EA88
:1005D0000908C6F80080D1F8048008F08058B8F106
:1005E000805F7DD100BFDFF8CC81D8F8188048F05B
:1005F0000108DFF8C091C9F81880C846D8F81880FB
:1006000008F00108CDF8008000BF00BF4FEAB938FC
:100610004FEA920958F829504FEA82784FEA187940
:100620004FF00F0808FA09F825EA0805DFF8888175
:10063000434502D14FF0000816E0DFF880814345C2
:1006400002D14FF001080FE0DFF87481434502D179
:100650004FF0020808E0DFF86C81434502D14FF00B
:10066000030801E04FF004084FEA82794FEA197954
:1006700008FA09F848EA0505DFF84C814FEA9209C3
:1006800048F82950D1F8048008F48018B8F5801F84
:100690000AD1DFF83881D8F8008048EA0008DFF88E
:1006A0002C91C9F8008009E0DFF82081D8F800809B
:1006B00028EA0008DFF81491C9F80080D1F8048016
:1006C00008F40018B8F5001F10D1DFF8008108F118
:1006D0000408D8F8008048EA0008DFF8F09000E04D
:1006E0005AE009F10409C9F800800DE0DFF8DC8068
:1006F00008F10408D8F8008028EA0008DFF8CC9058
:1007000009F10409C9F80080D1F8048008F4003820
:10071000B8F5003F0ED1DFF8B480A8F10408D8F88E
:10072000008048EA0008DFF8A490A9F10409C9F89C
:1007300000800DE0DFF89480A8F10408D8F800806C
:1007400028EA0008DFF88490A9F10409C9F80080BC
:10075000D1F8048008F48038B8F5803F0ED1DFF876
:100760006C80A8F10808D8F8008048EA0008DFF893
:100770005C90A9F10809C9F800800DE0DFF84C8011
:10078000A8F10808D8F8008028EA0008DFF83C90B3
:10079000A9F10809C9F80080521CD1F8008028FA94
:1007A00002F8B8F1000F7FF489AEBDE8F8870000C9
:1007B000000011100010024000080140000C014030
:1007C00000100140001401400800014008040140ED
:1007D000014800687047000004000020704770471F
:1007E00010B504460CB9012010BD242084F83D004A
:1007F0002068006820F0010021680860204600F0B1
:1008000017FC0020206484F83D00206384F83E003B
:1008100000BF84F83C0000BF00BFE5E72DE9F84FBA
:100820000446206847692068D0F80480002594F8C1
:100830003E90C7F3002070B1C8F3002058B145F0D6
:1008400001056FF48070216848612068006840F4F9
:10085000004021680860C7F3402040B1C8F3002081
:1008600028B145F002056FF4007021684861C7F3B4
:10087000802070B3C8F3002058B3CA46B4F82AB039
:1008800094F83D60206B0090BAF1200F0FD1BBF1BE
:10089000000F0CD1212E06D0292E04D0282E06D1EF
:1008A0000098212803D1204602F022F811E06FF4CD
:1008B00080602168486145F00405B9F1100F02D04D
:1008C000B9F1400F05D12068006840F4007021683C
:1008D0000860C7F3C02040B1C8F3002028B145F03C
:1008E00008056FF40060216848612DB1206C284331
:1008F0002064204601F022FABDE8F88F2DE9F04788
:1009000005464FF0000928684668D5F82CA095F8F0
:100910003E7095F83D80102F01D0402F75D128688A
:10092000D0F818902868446904F0010060B9BAF55D
:100930002A0F02D0BAF12A4F01D1012000E0002095
:10094000012801D1BDE8F08704F0010048B1C6F3E9
:10095000402030B1284601F05DF9284601F07DFEC7
:10096000B7E0C4F3C00030B1C6F3402018B1284648
:1009700001F01EFDADE0C4F3400030B1C6F34020ED
:1009800018B1284601F029FDA3E0C9F3800040B367
:100990002868406800F40060B0F5006FE0D0C4F350
:1009A000C01048B1C6F3802030B1C4F3800018B93C
:1009B000284601F091FC8CE0C4F380000028CFD0E1
:1009C000C6F340200028CBD0B8F1210F03D1284630
:1009D00001F032FC7DE0402F7BD1284601F08CFEF7
:1009E00077E02868406800F40060B0F5006F70D0D0
:1009F000C4F3801050B1C6F3802038B1C4F3800036
:100A000020B9284601F003FB63E00BE0C4F380004B
:100A100000285ED0C6F3402000285AD0284601F0B6
:100A200063FA56E0286C10B12868446904E028682D
:100A3000D0F8189028684469C4F3400060B1C6F348
:100A4000402048B1286C10B12868D0F81890494669
:100A5000284601F014FF3CE0C4F3001030B1C6F3A7
:100A6000402018B1284601F097FF32E0B8F1210F7D
:100A700002D0B8F1290F16D1C4F3C01048B1C6F3A3
:100A8000802030B1C4F3800018B9284601F0D4FEAC
:100A90001FE0C4F38000E0B1C6F34020C8B128468F
:100AA00001F0BDFE15E0C4F3801048B1C6F380200C
:100AB00030B1C4F3800018B9284601F08DFE08E07B
:100AC000C4F3800028B1C6F3402010B1284601F0DD
:100AD00076FE00BF36E710B504462046FFF780FEDD
:100AE00002F096F910BD000070B504460CB9012063
:100AF00070BD94F83D0028B9002084F83C002046E1
:100B000000F0D4FA242084F83D002068006820F02A
:100B10000100216808602068006840F400402168F6
:100B200008602068006820F400402168086000F038
:100B3000BBFD05465C496068884206D85B48854233
:100B400001D2012007E0002005E05948854201D28A
:100B5000012000E00020012800D1C9E75548B5FB7D
:100B6000F0F62068406820F03F003043216848607C
:100B70004D496068884201D8701C07E04FF49670B8
:100B800070434FF47A71B0FBF1F0401C2168096AA0
:100B900021F03F01084321680862434960688842A8
:100BA00014D8681E61684900B0FBF1F0401CC0F326
:100BB0000B00042801D204203DE0681E6168490052
:100BC000B0FBF1F0401CC0F30B0034E0A06838B972
:100BD000681E616801EB4101B0FBF1F0401C0AE0C6
:100BE000681E616801EBC10202EB0111B0FBF1F07C
:100BF000401C40F48040C0F30B0008B901201AE00B
:100C0000A06848B9681E616801EB4101B0FBF1F0D2
:100C1000401CC0F30B000CE0681E616801EBC102D0
:100C200002EB0111B0FBF1F0401CC0F30B0040F4EB
:100C3000804040F400402168C9694CF6FF7291433E
:100C400008432168C861D4E907010843216809689D
:100C500021F0C001084321680860D4E9031008436B
:100C60002168896848F2FF3291430843216888600F
:100C7000D4E9050108432168C96821F0FF01084350
:100C80002168C8602068006840F0010021680860A1
:100C900000202064202084F83D000020206384F898
:100CA0003E0000BF24E70000A086010080841E00F3
:100CB00000093D0040420F00704770477047000038
:100CC0002DE9FC4704468946174698460A9E0020AF
:100CD0000190FFF77DFD054694F83D0020286FD177
:100CE00019230122CD492046009501F01BFF10B1C8
:100CF0000220BDE8FC8700BF94F83C00012801D128
:100D00000220F6E7012084F83C0000BF206800685C
:100D100000F0010028B92068006840F00100216857
:100D200008602068006820F40060216808602220C4
:100D300084F83D00102084F83E00002020646762A3
:100D4000A4F82A80608D2085B548E0622B463246A3
:100D50004946204601F0D4F908B10120C9E7208DA9
:100D600088B900BF0020009020684069009020688A
:100D70008069009000BF00BF2068006840F40070E8
:100D8000216808604BE0208D01281AD12068006896
:100D900020F480602168086072B600BF00200090D7
:100DA00020684069009020688069009000BF00BF03
:100DB0002068006840F400702168086062B62EE088
:100DC00029E1208D022819D12068006840F40060D4
:100DD0002168086072B600BF00200090206840695A
:100DE000009020688069009000BF00BF2068006804
:100DF00020F480602168086062B610E02068006816
:100E000040F480602168086000BF002000902068E6
:100E10004069009020688069009000BF00BFEBE04F
:100E2000208D03287ED8208D012815D12A463146F1
:100E3000204601F053FF08B101205AE720680069FD
:100E4000616A0870606A401C6062208D401E2085C7
:100E5000608D401E6085CFE0208D02282CD1334666
:100E6000002270492046009501F05CFE08B1012087
:100E70003FE772B62068006840F40070216808609F
:100E800020680069616A0870606A401C6062208D99
:100E9000401E2085608D401E608562B62068006916
:100EA000616A0870606A401C6062208D401E208567
:100EB000608D401E60859FE03346002259492046E0
:100EC000009501F02FFE08B1012012E720680068AC
:100ED00020F480602168086072B620680069616A49
:100EE0000870606A401C6062208D401E2085608D05
:100EF000401E60854C4800681921B0FBF1F04FF4AA
:100F00007A71B0FBF1F0C0EBC00000EB8000019003
:100F100000BF0198401E01900198A8B900202063ED
:100F2000202000E038E084F83D00002084F83E00F6
:100F3000206C40F02000206462B600BF002084F8DE
:100F40003C0000BF0120D4E620684069C0F3800067
:100F50000028DED02068006840F400702168086036
:100F600020680069616A0870606A401C6062208DB8
:100F7000401E2085608D401E608562B62068006935
:100F8000616A0870606A401C6062208D401E208586
:100F9000608D401E60852FE02A463146204601F0D4
:100FA0009DFE08B10120A4E620680069616A08700E
:100FB000606A401C6062208D401E2085608D401E4E
:100FC000608520684069C0F38000A8B1208D0328A7
:100FD00005D12068006820F48060216808602068DE
:100FE0000069616A0870606A401C6062208D401E62
:100FF0002085608D401E6085208D00287FF410AF15
:10100000202084F83D00002084F83E0000BF84F8D2
:101010003C0000BF6DE602206BE6000002001000FD
:101020000000FFFF0400010010000020704770471F
:1010300010B5044619492068884214D11848C0697F
:1010400020F400101649C86140211648FFF796F9B0
:1010500080211448FFF792F91F2000F0D5F92020D5
:1010600000F0D2F918E010492068884214D10C48E9
:10107000C06920F480000A49C86109150948FFF7D2
:101080007DF94FF400610748FFF778F9212000F05F
:10109000BBF9222000F0B8F910BD00000054004058
:1010A00000100240000C01400058004010B586B00E
:1010B0000446002002900390049005903B4920686C
:1010C000884236D100BF3A48806940F0080038496C
:1010D00088610846806900F00800019000BF00BFE9
:1010E000C0200290122003900320059002A93148ED
:1010F000FFF7DEF900BF2E48C06940F400102C490C
:10110000C8610846C06900F40010019000BF00BF2C
:10111000002211461F2000F0A9F91F2000F096F9C7
:1011200000221146202000F0A1F9202000F08EF9C5
:101130003AE021492068884236D100BF1C488069C6
:1011400040F008001A4988610846806900F00800EC
:10115000019000BF00BF4FF4406002901220039046
:101160000320059002A91348FFF7A2F900BF104819
:10117000C06940F480000E49C8610846C06900F4A7
:101180008000019000BF00BF00221146212000F026
:101190006DF9212000F05AF900221146222000F0BA
:1011A00065F9222000F052F906B010BD005400404D
:1011B00000100240000C01400058004070B5054688
:1011C000422420230A220549054800F05DF80A223E
:1011D0000449034800F00CF870BD00001E00002018
:1011E00088000020140000200146422070470000C3
:1011F00010B5034693F83D00202840D101B10AB94B
:10120000012010BD00BF93F83C00012801D102204D
:10121000F7E7012083F83C0000BF1868006800F081
:10122000010028B91868006840F001001C682060BF
:101230001868006820F400601C682060222083F891
:101240003D00202083F83E000020186459625A8532
:10125000588D18850B48D8621868006840F4806083
:101260001C68206000BF002083F83C0000BF1868A5
:10127000406840F4E0601C6860600020C1E7022024
:10128000BFE700000000FFFF38B5044694F83D00BA
:1012900000F02800282844D101B10AB9012038BD46
:1012A00000BF94F83C00012801D10220F7E701209B
:1012B00084F83C0000BF2068006800F0010028B9F5
:1012C0002068006840F001002568286020680068F8
:1012D00020F4006025682860292084F83D00202043
:1012E00084F83E000020206461626285608D208564
:1012F000E36200BF002000902068406900902068F1
:101300008069009000BF00BF00BF002084F83C004F
:1013100000BF2068406840F4E060256868600020F5
:10132000BDE70220BBE700000348006803490978D5
:101330000844014908607047040000200C000020A8
:1013400010B50848006840F0100006490860032006
:1013500000F0CAF80F2000F007F800F02BF800208A
:1013600010BD00000020024070B504460E48007811
:101370004FF47A71B1FBF0F00C490968B1FBF0F55C
:10138000284600F00BFC08B1012070BD102C07D2DC
:1013900000222146501E00F069F80548046001E073
:1013A0000120F2E70020F0E70C00002010000020F0
:1013B0000800002008B500BF1148806940F0010016
:1013C0000F4988610846806900F00100009000BF65
:1013D00000BF00BF0846C06940F08050C8610846A1
:1013E000C06900F08050009000BF00BF00BF0549F9
:1013F000486820F0E06040F00070486000BF08BD21
:10140000001002400000014010B5014608460028C7
:1014100017DB00F01F0301229A400B4B440943F8ED
:10142000242000BF00BF00BFBFF34F8F00BF00BF2D
:1014300000BF00BF00BF00BFBFF36F8F00BF00BF82
:1014400000BF00BF10BD000080E100E0014608467B
:10145000002809DB00F01F0301229A4043099B008A
:1014600003F1E023C3F8002100BF70472DE9F05FCE
:1014700080460D461646002701F03EFD07463946D8
:101480002A46334601F00700C0F1070ABAF1040FFB
:1014900002D94FF0040A01E0C0F1070AD14600F179
:1014A000040ABAF1070F02D24FF0000A01E0A0F1DE
:1014B000030AD4464FF0010A0AFA09FAAAF1010A0E
:1014C0000AEA020A0AFA0CFA4FF0010B0BFA0CFBBB
:1014D000ABF1010B0BEA030B4AEA0B042146404631
:1014E00001F012FDBDE8F09F00BF00F00702064BBF
:1014F00019684FF6FF031940044B0B4343EA0221DE
:10150000014B196000BF70470CED00E00000FA05C8
:1015100070B504460D460CB9012070BD5A480068EC
:1015200000F00700A8420ED25748006820F00700DC
:101530002843554908600846006800F00700A842A3
:1015400001D00120E9E7207800F0020002281DD137
:10155000207800F00400042805D14C48406840F48D
:10156000E0604A494860207800F00800082805D16A
:101570004648406840F460504449486043484068E9
:1015800020F0F000A168084340494860207800F04E
:10159000010078B36068012806D13C48006800F477
:1015A000003090B90120B8E76068022806D13748BA
:1015B000006800F0007040B90120AEE733480068D1
:1015C00000F0020008B90120A7E73048406820F089
:1015D0000300616808432D494860FFF7F9F80646A3
:1015E00009E0FFF7F5F8801B41F28831884202D903
:1015F000032092E707E02548406800F00C0061688E
:10160000B0EB810FEDD12048006800F00700A84240
:101610000ED91D48006820F0070028431A490860C9
:101620000846006800F00700A84201D0012074E7D6
:10163000207800F00400042807D11448406820F402
:10164000E060E168084311494860207800F0080034
:10165000082808D10D48406820F46050216940EA0C
:10166000C1000A49486000F02FF808494968C1F3F1
:101670000311074A515CC8400649086006480068E3
:10168000FFF772FE002048E70020024000100240F1
:10169000F831000810000020080000200148006810
:1016A000704700001000002000B5FFF7F7FF044965
:1016B0004968C1F30221034A515CC84000BD0000E3
:1016C000001002400832000870B5002100220024FA
:1016D00000230020134D696801F00C05F5B1042DBD
:1016E00002D0082D19D101E00F4819E00F4DC1F3C8
:1016F0008346AB5D01F4803555B10A4D6D68C5F385
:1017000040450B4E725D084D5D43B5FBF2F402E0BF
:10171000084D03FB05F4204602E000BF024800BF6D
:1017200000BF70BD0010024000127A00E6310008D0
:10173000F631000800093D00F8B504460CB9012057
:10174000F8BD207800F00100002878D0F848406803
:1017500000F00C0004280CD0F548406800F00C00A4
:10176000082811D1F248406800F48030B0F5803F7D
:101770000AD1EF48006800F4003000285FD06068AC
:1017800000285CD10120DBE700BF6068B0F5803F36
:1017900006D1E748006840F48030E549086028E059
:1017A000606858B9E248006820F48030E049086079
:1017B0000846006820F4802008601AE06068B0F5F0
:1017C000A02F0BD1DA48006840F48020D849086087
:1017D0000846006840F4803008600AE0D448006899
:1017E00020F48030D24908600846006820F4802048
:1017F000086000BF606888B1FEF7EAFF054606E0B2
:10180000FEF7E6FF401B642801D9032098E7C8488B
:10181000006800F400300028F2D010E0FEF7D8FF96
:10182000054606E0FEF7D4FF401B642801D90320DB
:1018300086E7BF48006800F400300028F2D1207825
:1018400000F00200022857D1B948406800F00C00AF
:1018500050B1B748406800F00C00082818D1B448CF
:10186000406800F4803098B9B148006800F0020088
:1018700020B12069012801D0012061E7AC4800684F
:1018800020F0F800616940EAC100A949086033E02E
:101890002069E8B10120A7490860FEF799FF0546D5
:1018A00006E0FEF795FF401B022801D9032047E719
:1018B0009F48006800F002000028F2D09C480068B1
:1018C00020F0F800616940EAC1009949086013E01E
:1018D000002098490860FEF77BFF054606E0FEF70A
:1018E00077FF401B022801D9032029E790480068B0
:1018F00000F002000028F2D1207800F0080008284B
:101900002DD1A069B8B101208B490860FEF760FFB6
:10191000054606E0FEF75CFF401B022801D90320C4
:101920000EE78348406A00F002000028F2D0012050
:1019300001F092FA13E000207F490860FEF748FFAB
:10194000054606E0FEF744FF401B022801D90320AC
:10195000F6E67748406A00F002000028F2D12078CD
:1019600000F00400042873D100277148C06900F01A
:10197000805070B900BF6E48C06940F080506C491B
:10198000C8610846C06900F08050009000BF00BFE9
:1019900001276A48006800F48070B0B967480068A1
:1019A00040F4807065490860FEF712FF054606E0C6
:1019B000FEF70EFF401B642801D90320C0E65F48F4
:1019C000006800F480700028F2D000BFE0680128B1
:1019D00006D15748006A40F001005549086227E0E7
:1019E000E06858B95248006A20F001005049086286
:1019F0000846006A20F00400086219E0E068052843
:101A00000BD14B48006A40F004004949086208467F
:101A1000006A40F0010008620AE04548006A20F0D0
:101A20000100434908620846006A20F00400086289
:101A300000BFE068A0B1FEF7CBFE054609E0FEF767
:101A4000C7FE401B41F28831884202D9032077E665
:101A500022E03748006A00F002000028EFD012E0D0
:101A6000FEF7B6FE054608E0FEF7B2FE401B41F267
:101A70008831884201D9032062E62D48006A00F0CF
:101A800002000028F0D1012F05D12948C06920F0BB
:101A900080502749C86100BFE069C8B32448406846
:101AA00000F00C00082860D0E069022848D100202E
:101AB00020490866FEF78CFE054606E0FEF788FE24
:101AC000401B022801D903203AE61948006800F0BB
:101AD00000700028F2D1206AB0F5803F07D1144889
:101AE000406820F40030A168084311494860D4E9F7
:101AF000080108430E49496821F4741108430C4950
:101B0000486001200B490866FEF762FE054607E0C3
:101B10003DE0FEF75DFE401B022801D903200FE6E1
:101B20000348006800F000700028F2D02FE00000A9
:101B30000010024000004242800442420070004017
:101B4000002014490866FEF743FE054606E0FEF74E
:101B50003FFE401B022801D90320F1E50E48006832
:101B600000F000700028F2D111E0E069012800D1F6
:101B7000E6E50948466806F48031206A814204D1CE
:101B800006F47011606A814201D00120D8E500207E
:101B9000D6E50000000042420010024070B5044645
:101BA0002546681EB0F1807F01D301200FE0681E3A
:101BB0004FF0E02148610F214FF0FF3001F0A4F910
:101BC00000204FF0E021886107200861002070BDEF
:101BD00000BFFEE710B50248FEF720FE10BD000072
:101BE0003400002010B50248FEF788FE10BD00004A
:101BF0003400002010B50248FEF710FE10BD0000B2
:101C00008800002010B50248FEF778FE10BD0000E5
:101C100088000020C16AB1F52A0F02D10121C162FA
:101C200005E0C16AB1F12A4F01D10821C1627047B4
:101C3000F8B50546002000906C6A94F83D6039487C
:101C400000681921B0FBF1F04FF47A71B0FBF1F0AC
:101C5000C0EBC00000EB8000009000BF009820B9EE
:101C6000206C40F02000206409E00098401E0090A5
:101C70002068006800F40070B0F5007FEED000BF6F
:101C8000606B10B10020616B8862A06B10B1002006
:101C9000A16B88622068006820F480602168086079
:101CA00000206085606B10B10020616B4863A06B01
:101CB00010B10020A16B48632068006820F001008B
:101CC0002168086094F83D0060280AD1202084F83B
:101CD0003D00002084F83E0020642046FEF77EFD93
:101CE0001EE006F02800282811D12068006840F086
:101CF0000100216808602068006840F48060216865
:101D0000086000202063282084F83D0005E02020A2
:101D100084F83D00002084F83E002046FEF7DBFEFC
:101D2000F8BD00001000002001684969C1F3C0112E
:101D300011B1002102681161704700002DE9F041E6
:101D4000044694F83D6094F83E70102F01D0402F67
:101D500007D1222E05D12068006820F40060216898
:101D6000086006F02800282805D1002020632820DC
:101D700084F83D0010E02068406800F40060B0F591
:101D8000006F07D0602E05D0202084F83D00002091
:101D900084F83E00002020632068406800F4006062
:101DA000B0F5006F40D12068406820F400602168E1
:101DB0004860606B90F82100012814D04848616B9E
:101DC0004863606BFEF76AFA00285BD02068006801
:101DD00020F0010021680860202084F83D00606B3D
:101DE000416B88474EE03E48A16B4863A06BFEF70D
:101DF00055FA002846D020684069C0F3801030B101
:101E000020680069616A0870606A401C606220682E
:101E1000006820F0010021680860202084F83D005F
:101E2000A06B416B88472DE094F83D0060281AD1E3
:101E3000202084F83D000020206420684069C0F321
:101E4000801030B120680069616A0870606A401CC7
:101E500060622068006820F0010021680860204668
:101E6000FEF7BCFC0EE020684069C0F3801030B182
:101E700020680069616A0870606A401C60622046E0
:101E8000FEF729FE256C05F0010058B905F00200A7
:101E9000022807D005F00400042803D005F008004C
:101EA000082805D12068406820F4E0602168486077
:101EB00094F83D60206C00F0040004280ED1282E18
:101EC0000CD10848E06200202063202084F83D0007
:101ED000002084F83E002046FEF7EEFEBDE8F081CB
:101EE000311C00080000FFFF70B50446E56A608DF4
:101EF000042810D12068406820F480602168486080
:101F000020680069616A0870606A401C6062608DC8
:101F1000401E60857AE0608D03281AD120684068F1
:101F200020F4806021684860042D07D0022D05D080
:101F30002068006820F480602168086020680069DB
:101F4000616A0870606A401C6062608D401E608536
:101F50005CE0608D02284FD1012D01D0102D06D1FB
:101F60002068006820F480602168086012E0042D79
:101F700001D0022D06D12068006840F480602168FD
:101F8000086007E0102D05D02068006840F400705C
:101F90002168086020680069616A0870606A401CF6
:101FA0006062608D401E608520680069616A08700B
:101FB000606A401C6062608D401E608520684068D9
:101FC00020F4407021684860202084F83D0094F897
:101FD0003E00402807D1002084F83E0020632046C0
:101FE000FFF724F812E0002084F83E00122020635E
:101FF0002046FEF762FE09E020680069616A087009
:10200000606A401C6062608D401E608570BD70B566
:10201000044694F83D00222870D1658D032D13D914
:1020200020680069616A0870606A401C6062608DA7
:10203000401E6085608D03285FD12068406820F4D1
:1020400080602168486058E0E06A02284FD0012D86
:1020500001D0002D4BD1204600F086FE68BB2068E1
:10206000006820F48060216808602068406820F4DF
:10207000E0602168486020680069616A0870606AF1
:10208000401C6062608D401E6085202084F83D0009
:1020900094F83E00402807D1002084F83E002063D9
:1020A0002046FEF7C3FF28E0002084F83E001220FF
:1020B00020632046FEF701FE1FE02068406820F400
:1020C000E0602168486020680069616A0870606AA1
:1020D000401C6062608D401E6085202084F83D00B9
:1020E000002084F83E002046FEF7F5FC05E020685D
:1020F000406820F480602168486000BF70BD000027
:102100002DE9F84304460D4690461E46E76A2068CE
:10211000006840F4806021680860082F04D0012F17
:1021200002D017F5803F06D12068006840F4807027
:102130002168086008E0206B112805D1206800683C
:1021400040F4807021680860434600224FF001117E
:102150002046009600F0E6FC60B12068006800F4BC
:102160008070B0F5807F02D14FF4007020640320AE
:10217000BDE8F8832069B0F5804F05D1E8B240F0A2
:1021800001002168086149E005F44070F02141EA4E
:10219000E01021680861334642462649204600F097
:1021A00020FD08B10120E3E7E8B221680861334669
:1021B00042462049891F204600F013FD08B1012046
:1021C000D6E700BF0020009020684069009020689A
:1021D0008069009000BF00BF2068006840F48070F4
:1021E00021680860434600224FF001112046009606
:1021F00000F098FC58B12068006800F48070B0F5D9
:10220000807F02D14FF4007020640320B0E705F412
:102210004070F12141EAE0102168086133464246EE
:102220000449891F204600F0DCFC08B101209FE72B
:1022300000209DE70800010070B50446E56A94F8A7
:102240003D00212847D1608D50B1606A0078216837
:102250000861606A401C6062608D401E60853AE0E3
:10226000082D16D0202D14D015F5803F11D02068F0
:10227000406820F4E060216848601120206300205D
:1022800084F83E00202084F83D002046FEF716FD2D
:1022900021E02068406820F4E06021684860206800
:1022A000006840F40070216808600020206320204E
:1022B00084F83D0094F83E00402806D1002084F8C0
:1022C0003E002046FEF7B3FE05E0002084F83E0005
:1022D0002046FEF7F3FC70BD2DE9F041044694F86A
:1022E0003D5094F83E70E66A208DB0BB212D3CD164
:1022F000082E16D0202E14D016F5803F11D020685D
:10230000406820F4E06021684860112020630020CC
:1023100084F83E00202084F83D002046FEF7CEFCE5
:1023200044E02068406820F4E0602168486020684C
:10233000006840F4007021680860002020632020BD
:1023400084F83D0094F83E00402807D1002084F82E
:102350003E002046FEF76BFE28E006E0002084F8F1
:102360003E002046FEF7AAFC20E0212D03D0402F9E
:102370001CD1222D1AD1608D30B92068406820F41C
:1023800080602168486011E094F83E00402803D145
:10239000204600F0B1F909E0606A00782168086120
:1023A000606A401C6062608D401E6085BDE8F081FF
:1023B000416CC9B202681161416B11B1416B896A0C
:1023C00021B9816B41B1816B896A29B10168496882
:1023D00041F4006102685160704738B590F83E20C2
:1023E000C16A036B90F83D40222C73D1046D64B92F
:1023F000402A0AD100BF0024009404686469009454
:102400000468A469009400BF26E1046DC4B904699E
:10241000B4F5404F14D100BF0024009404686469EF
:1024200000940468A469009400BF00BF0468246895
:1024300044F4807405682C60046D641C04650BE131
:10244000448D8CB900BF0024009404686469009432
:102450000468A469009400BF00BF0468246844F4C1
:10246000007405682C60E9E0448D012C72D111F5EF
:10247000803F30D10468246824F4806405682C60AF
:102480000468646804F40064B4F5006F10D1046853
:10249000246824F4806405682C6000BF0024009444
:1024A0000468646900940468A469009400BFC5E0EE
:1024B00000BF002400940468646900940468A4695F
:1024C000009400BF00BF0468246844F400740568E9
:1024D0002C60B3E0B5E0082923D0202921D0122BAD
:1024E00001D101291DD104290AD0022908D01029BF
:1024F00006D00468246824F4806405682C6005E034
:102500000468246844F4806405682C6000BF0024DB
:1025100000940468646900940468A469009400BF8E
:102520008CE00468246824F4806405682C6000BF93
:10253000002400940468646900940468A469009409
:1025400000BF00BF0468246844F4007405682C6070
:1025500074E0FFE7448D022C47D104291BD00229E7
:1025600019D0102917D00468246844F40064056861
:102570002C6000BF0024009404686469009404681F
:10258000A469009400BF00BF0468246824F4806438
:1025900005682C6010E00468246844F480640568D1
:1025A0002C6000BF002400940468646900940468EF
:1025B000A469009400BF00BF0468646804F4006468
:1025C000B4F5006F3AD111F5803F07D0012905D04D
:1025D000082903D0102901D020292FD1046864686C
:1025E00044F4805405686C6028E00468246844F46E
:1025F000806405682C600468646804F40064B4F5C1
:10260000006F10D111F5803F07D0012905D00829AE
:1026100003D0102901D0202905D10468646844F44E
:10262000805405686C6000BF0024009404686469ED
:1026300000940468A469009400BF00BF00240465EE
:102640000AE000BF002400940468646900940468F0
:10265000A469009400BF00BF38BD90F83E10402927
:102660000ED1016D29B9416C01F0FE0102681161C2
:1026700041E0416CC9B241F00101026811613AE0E8
:102680000169B1F5804F20D190F83D10212905D185
:10269000416C01F0FE010268116105E0416CC9B2B4
:1026A00041F0010102681161416B11B1416B896A0E
:1026B00021B9816BF9B1816B896AE1B1016849681F
:1026C00041F400610268516015E0016D41B9416C4F
:1026D00001F44071F02242EAE111026811610AE05E
:1026E000016D012907D1416C01F44071F12242EAE8
:1026F000E11102681161704770B5044694F83D50CD
:10270000206D98B9E06C012807D1A06CC0B2216897
:102710000861206D801C206550E0A06CC0F307208C
:1027200021680861206D401C206547E0206D01286C
:1027300007D1A06CC0B221680861206D401C2065E3
:102740003CE0206D022836D1222D09D12068006896
:1027500040F4807021680860206D401C20652DE0E9
:10276000608D60B1212D0AD1606A0078216808610E
:10277000606A401C6062608D401E60851EE0608D56
:10278000E0B9212D1AD12068406820F4E06021686A
:1027900048602068006840F40070216808600020EC
:1027A0002063202084F83D00002084F83E0020466D
:1027B000FEF73DFC02E02046FFF7B6FA70BD418D02
:1027C00049B101680969426A1170416A491C416254
:1027D000418D491E4185704770B5044694F83D50BF
:1027E000608DD8B120680069616A0870606A401C19
:1027F0006062608D401E6085608D78B92A2D0DD194
:102800002068406820F480602168486022202063AE
:10281000282084F83D002046FEF7D0FC70BD418D95
:1028200049B1416A097802681161416A491C4162F3
:10283000418D491E4185704770B5044694F83D505E
:10284000608DD8B1606A007821680861606A401CB8
:102850006062608D401E6085608D78B9292D0DD134
:102860002068406820F4806021684860212020634F
:10287000282084F83D002046FEF7B6FC70BDF8B570
:1028800004460D46002794F83D0000F02800282853
:102890001CD12068406820F4806021684860C5F33E
:1028A000800000B90127C5F3C01010B9A08986B215
:1028B00001E0208B86B200BF002084F83C0000BFFE
:1028C000324639462046FDF78AFF0FE000BF002060
:1028D000009020684069009020688069009000BFE7
:1028E00000BF00BF002084F83C0000BFF8BD00001E
:1028F00070B5044694F83D50E66A082E01D0202EAB
:102900001FD1282D1DD12348E0622068406820F4A3
:10291000E060216848606FF4806021684861206849
:10292000006820F480602168086000202063202077
:1029300084F83D00002084F83E002046FEF7BCF9F4
:1029400026E0212D20D11348E062212020632020A1
:1029500084F83D00002084F83E002068406820F4A0
:10296000E060216848606FF48060216848612068F9
:10297000006820F48060216808602046FFF7D4F9E1
:102980002046FEF731FC03E06FF480602168486167
:1029900070BD00000000FFFF38B5044694F83D50BC
:1029A0002068406820F4E0602168486000BF002093
:1029B00000902068406900902068006840F00100A5
:1029C0002168086000BF00BF2068006820F48060B4
:1029D000216808602068406800F40060B0F5006F6E
:1029E00042D1222D01D02A2D1FD1A06B0068406852
:1029F0006085608D18B1206C40F004002064206870
:102A0000406820F4006021684860A06BFDF79EFCE0
:102A1000012829D04148A16B4863A06BFDF73EFC1B
:102A200010B3A06B416B88471EE0606B0068406884
:102A30006085608D18B1206C40F00400206420682F
:102A4000406820F4006021684860606BFDF77EFC00
:102A5000012809D03148616B4863606BFDF71EFCAB
:102A600010B1606B416B8847608D18B32068406976
:102A7000C0F3800048B120680069616A0870606A2C
:102A8000401C6062608D401E608520684069C0F314
:102A9000801048B120680069616A0870606A401C53
:102AA0006062608D401E6085608D18B1206C40F0C2
:102AB00004002064206C18B12046FFF73FF92BE09A
:102AC0002A2D07D100202063282084F83D002046CD
:102AD000FEF774FB94F83D0028280DD11048E06201
:102AE00000202063202084F83D00002084F83E0070
:102AF0002046FEF7E1F80FE0206B222801D0222DBE
:102B00000AD100202063202084F83D00002084F8B2
:102B10003E002046FEF752FB38BD0000311C000885
:102B20000000FFFF2DE9F04104460D4617461E4602
:102B3000DDF8188038E0701CA8B3FDF749FEA0EB63
:102B40000800B04200D876BBC5F3074001280AD17F
:102B500020684069A9B20840A9B2884201D1012089
:102B60000BE0002009E020688069A9B20840A9B202
:102B7000884201D1012000E00020B84214D1002099
:102B80002063202084F83D00002084F83E00206C63
:102B900040F02000206400BF002084F83C0000BF0B
:102BA0000120BDE8F081FFE7C5F3074001280AD105
:102BB00020684069A9B20840A9B2884201D1012029
:102BC0000BE0002009E020688069A9B20840A9B2A2
:102BD000884201D1012000E00020B842ABD00020A3
:102BE000DFE72DE9F04104460D4616461F4658E042
:102BF00020684069C0F38020E8B12068006840F494
:102C00000070216808606FF48060216848610020CE
:102C10002063202084F83D00002084F83E00206CD2
:102C200040F00400206400BF002084F83C0000BF96
:102C30000120BDE8F081701C90B3FDF7C9FDC01BF9
:102C4000B04200D866BBC5F3074001280AD120680E
:102C50004069A9B20840A9B2884201D101200BE025
:102C6000002009E020688069A9B20840A9B2884222
:102C700001D1012000E0002090B900202063202035
:102C800084F83D00002084F83E00206C40F02000D5
:102C9000206400BF002084F83C0000BF0120C8E78A
:102CA000FFE7C5F3074001280AD120684069A9B2AF
:102CB0000840A9B2884201D101200BE0002009E0C0
:102CC00020688069A9B20840A9B2884201D10120D8
:102CD00000E0002000288BD00020AAE770B5044651
:102CE0000D46164637E020684069C0F30010A0B1D9
:102CF0006FF010002168486100202063202084F8D4
:102D00003D00002084F83E00206C206400BF0020BD
:102D100084F83C0000BF012070BDFDF759FD801B09
:102D2000A84200D8BDB920684069C0F3801090B9AE
:102D300000202063202084F83D00002084F83E001D
:102D4000206C40F02000206400BF002084F83C008C
:102D500000BF0120E0E720684069C0F38010002830
:102D6000C1D00020D8E7000008B50146002000903F
:102D7000104800681922B0FBF2F04FF47A72B0FBF1
:102D8000F2F000EB8000009000BF0098401E009021
:102D9000009828B9086C40F020000864012008BDA4
:102DA0000868006800F40070B0F5007FEDD00020E6
:102DB000F5E700001000002008B500BF1348806947
:102DC00040F02000114988610846806900F0200029
:102DD000009000BF00BF00BF0846806940F00800B7
:102DE00088610846806900F00800009000BF00BFBD
:102DF00000BF0846806940F0040088610846806989
:102E000000F00400009000BF00BF08BD00100240A9
:102E100010B50B480B4908600B4848600021094871
:102E20008160C1604FF48041016100214161816195
:102E3000C1610162FDF758FE08B1FDF72BFA10BD24
:102E40000054004034000020A086010000BFFEE7CF
:102E500000BFFEE77047000008B508490968C908C7
:102E60004FF47A72B1FBF2F14143009100BF00BF11
:102E700000994A1E00920029F9D108BD10000020D7
:102E8000704710B5FEF750FA10BD00B58FB028217D
:102E900005A8FDF799F914216846FDF795F9012079
:102EA0000590000406900020079001200990022060
:102EB0000C90C1030D914FF4E0110E9105A8FEF79F
:102EC0003BFC08B1FDF7E6F90F20009002200190CD
:102ED000002002904FF480600390002004900221B3
:102EE0006846FEF715FB08B1FDF7D4F90FB000BD39
:102EF000704700BFFEE7000002480068C0F30220F0
:102F0000704700000CED00E010B5002804DB0A0754
:102F1000130E054A135406E00A07140E034A00F084
:102F20000F031B1FD45410BD00E400E018ED00E0B7
:102F300008B5FEF705FAFFF7A8FFFFF73DFFFFF71B
:102F400067FF21E06420FDF705FA64200A230F4A99
:102F5000292100900E48FDF7B3FE0C4909780906B7
:102F60000A4A527841EA0241084A927841EA02212B
:102F7000064AD27841EA020000F0D2F80446054938
:102F800000F00CF804490860DCE70000280000208D
:102F9000340000200000C842000000204FF47F0CE5
:102FA0001CEAD0121EBF1CEAD11392EA0C0F93EA5E
:102FB0000C0F00F0858090EA010F48BF42F4807248
:102FC00040F4000C41F400002CF07F4120F07F40E1
:102FD00000B58142A2EB03020FF2081CACEB504E8D
:102FE000C0F100009EF800E04FEA4E0E00FB0EFC20
:102FF00038BF49004FEA2C1C02F5FA020CFB0EF315
:103000004FEACE1E4FEA112C4FEAC1210EEB635E50
:1030100042EB22420EFB0CFC4FEA1C5300FB031157
:103020004FEA112C4FEA01310EFB0CFC4FEADC4C4D
:1030300000FB0C11C14228BF09184CEB03335DF8AB
:1030400004EB10EB410143EBC250B2F57C0F38BFEB
:10305000704729D512F0F00F1CBF00F1C04000F0FE
:1030600000407047008182838485868788898B8CA5
:103070008D8E8F919293959697999A9C9D9FA0A2E1
:10308000A3A5A7A8AAACAEB0B2B3B5B7B9BCBEC031
:10309000C2C5C7C9CCCED1D4D7D9DCDFE2E6E9ECD2
:1030A000F0F3F7FAFE0000004FEA400C0CF1807CD0
:1030B000BCF17E4F28BF7047B0F1C04000F08EB821
:1030C00090EA010F0CEAD11348BF42F480726245C6
:1030D00038BF634507D213F47F0F16D080EA010092
:1030E00000F00040704710B500F032F8097EFC3E59
:1030F00000F005B880EA010000F00040704780EA67
:10310000010000F0004000F069B812F47F0F04BF26
:103110000248704780EA010000F060B80000C07FFC
:1031200010F0004148BF4042B0FA80F310FA03F2B9
:10313000C3F19D030BD051EAC35101EB122053069A
:1031400038BF704700F1010008BF20F00100704750
:103150000EF1020E2EF0030E5EF8044B244204D44E
:103160004FEA4102B2F17F4F11D84FEA4003B3F169
:103170007F4F0CD80ED14FEAD07CB2F17F4F0CEBD1
:103180004C0C0CF1020C08BF4CEBD17C04E04FF06E
:10319000080C01E04FEAD17C0CEB4C0324FA03F459
:1031A00004F00704B4F1040C06D20EEB840CBDE865
:1031B00010404CF0010C6047DFE80CF007080202F9
:1031C0004FF00040A0F5800010BD0846420018BF37
:1031D000D2F1807288BF00F0004010BDFF2141EAAB
:1031E000D050C005704702030405060708090A0B02
:1031F0000C0D0E0F10100102000000000000000076
:10320000010203040607080900000000010203048C
:1032100030320008000000201400000028010008DF
:1032200044320008140000202C070000440100086C
:10323000000000000000000010000000010000007D
:043240000024F40072
:04000005080000ED02
:00000001FF
