:020000040800F2
:10000000B8130020D1010008D5270008D118000836
:10001000D1270008D70200083F3000080000000088
:10002000000000000000000000000000CD2F0008CC
:10003000DB02000800000000A12F0008CF2F0008FD
:10004000EB010008EB010008EB010008EB010008E0
:10005000EB010008EB010008EB010008EB010008D0
:10006000EB010008EB010008EB010008EB010008C0
:10007000EB010008EB010008EB010008EB010008B0
:10008000EB010008EB010008EB010008EB010008A0
:10009000EB010008EB010008EB010008EB01000890
:1000A000EB010008EB010008EB010008EB01000880
:1000B000EB010008EB010008EB010008E51800085F
:1000C000D518000805190008F5180008EB0100080C
:1000D000EB010008EB010008EB010008EB01000850
:1000E000EB010008EB010008EB01000800F002F84A
:1000F00000F05EF80AA090E8000C82448344AAF164
:100100000107DA4501D100F053F8AFF2090EBAE861
:100110000F0013F0010F18BFFB1A43F0010318473B
:10012000AC4F0000CC4F000010F8013B0A4413F024
:10013000030408BF10F8014B1D1108BF10F8015B44
:10014000641E05D010F8016B641E01F8016BF9D133
:10015000002D15D010F8014B03F00C030C2BA1EB74
:1001600004040ABF10F8013BA4EB8314A4EB03249E
:1001700005F1010314F8016B5B1E01F8016BF9D561
:10018000914238BF10F8013BD1D3704700230024BF
:1001900000250026103A28BF78C1FBD8520728BF97
:1001A00030C148BF0B6070471FB51FBD10B510BDF3
:1001B00000F058F81146FFF7F7FF02F05FFF00F07C
:1001C00076F803B4FFF7F2FF03BC00F07DF80000FF
:1001D0000948804709480047FEE7FEE7FEE7FEE7DB
:1001E000FEE7FEE7FEE7FEE7FEE7FEE70448054917
:1001F000054A064B704700003D300008ED0000083E
:10020000B80D0020B8130020B80F0020B80F002050
:100210004FF0000200B5134694469646203922BF9F
:10022000A0E80C50A0E80C50B1F12001BFF4F7AFEA
:10023000090728BFA0E80C5048BF0CC05DF804EBCC
:10024000890028BF40F8042B08BF704748BF20F83A
:10025000022B11F0804F18BF00F8012B7047704738
:1002600070477047754600F02BF8AE4605006946AA
:10027000534620F00700854618B020B5FFF7B6FFBB
:10028000BDE820404FF000064FF000074FF0000897
:100290004FF0000B21F00701AC46ACE8C009ACE818
:1002A000C009ACE8C009ACE8C0098D46704710B57C
:1002B0000446AFF300802046BDE81040FFF781BF41
:1002C00000487047580D002001491820ABBEFEE7DA
:1002D00026000200704700BFFEE7704772B600BFFD
:1002E000FEE7000070B50446002594F821000228BE
:1002F00003D00420A063012548E02068006820F0B6
:100300000E00216808602068006820F00100216864
:1003100008601F492068884201D1012026E01C495D
:1003200014312068884201D110201FE0184928317B
:100330002068884201D1801518E015493C312068B9
:10034000884201D1801411E011495031206888425F
:1003500002D14FF4803009E00D49643120688842B1
:1003600002D14FF4801001E04FF080700849083945
:100370004860012084F8210000BF002084F820009C
:1003800000BF606B10B12046616B8847284670BD86
:1003900008000240014691F82100704770B50446FC
:1003A00000F040FA06462546681C10B10448007863
:1003B000054400BF00F036FA801BA842FAD370BD96
:1003C000140800202DE9F04102460B46002080E091
:1003D0000127874007EA0301002979D0404F4FEAFF
:1003E000900C57F82C4087074FEA177C0F2707FA25
:1003F0000CF73C403B4FBA4201D100270FE03A4F87
:10040000BA4201D101270AE0384FBA4201D102278E
:1004100005E0374FBA4201D1032700E004274FEA35
:10042000807C4FEA1C7C07FA0CF7A74231D1314F90
:100430003F688F43DFF8BCC0CCF800700CF10407B4
:100440003F688F430CF1040CCCF80070294F0C3737
:100450003F688F43DFF89CC00CF10C0CCCF80070A7
:10046000ACF104073F688F43ACF1040CCCF800708A
:1004700087074FEA177C0F2707FA0CF4184F4FEA4B
:10048000900C57F82CC02CEA040C4FEA900847F85F
:1004900028C0FF2901D8174600E0171D3D46FF2957
:1004A00001D8870002E0A0F10807BF003E462F6890
:1004B0004FF00F0C0CFA06FC27EA0C074FF0040C67
:1004C0000CFA06FC47EA0C072F60D7688F43D76009
:1004D000401C23FA00F7002F7FF47AAFBDE8F081CB
:1004E0000800014000080140000C014000100140DC
:1004F00000140140000401402DE9F84703460022A2
:1005000094466EE14FF0010808FA02F4D1F8008039
:1005100008EA0400A0427DD1DFF8DCA2D1F8048013
:10052000A8EB0A09D0453AD014DCB8F1030F50D03B
:1005300009DCB8F1000F31D0B8F1010F1CD0B8F1CF
:10054000020F49D120E0B8F1110F18D0B8F1120F05
:1005500042D11EE0B9F5881F25D006DCB9F5803FF1
:1005600020D0B9F5801F37D11AE0B9F5001F18D097
:10057000B9F5041F30D117E0D1F80CC02DE0D1F847
:100580000C8008F1040C28E0D1F80C8008F1080C6C
:1005900023E0D1F80C8008F10C0C1EE000BF00BF76
:1005A00000BF00BF00BF00BFD1F80880B8F1000F46
:1005B00002D14FF0040C0BE0D1F80880B8F1010F24
:1005C00003D14FF0080C1C6102E04FF0080C5C6195
:1005D00003E04FF0000C00E000BF00BFFF2801D88F
:1005E000984601E003F104084646FF2802D84FEA86
:1005F000820803E0A2F108084FEA88084746D6F8C7
:1006000000804FF00F0909FA07F928EA09080CFAE7
:1006100007F900E088E048EA0908C6F80080D1F848
:10062000048008F08058B8F1805F7DD100BFDFF80A
:10063000CC81D8F8188048F00108DFF8C091C9F8DB
:100640001880C846D8F8188008F00108CDF8008056
:1006500000BF00BF4FEAB9384FEA920958F8295055
:100660004FEA82784FEA18794FF00F0808FA09F834
:1006700025EA0805DFF88881434502D14FF00008DC
:1006800016E0DFF88081434502D14FF001080FE00A
:10069000DFF87481434502D14FF0020808E0DFF82B
:1006A0006C81434502D14FF0030801E04FF004088C
:1006B0004FEA82794FEA197908FA09F848EA0505FC
:1006C000DFF84C814FEA920948F82950D1F80480AC
:1006D00008F48018B8F5801F0AD1DFF83881D8F8FF
:1006E000008048EA0008DFF82C91C9F8008009E092
:1006F000DFF82081D8F8008028EA0008DFF814919C
:10070000C9F80080D1F8048008F40018B8F5001F7B
:1007100010D1DFF8008108F10408D8F8008048EA19
:100720000008DFF8F09000E05AE009F10409C9F888
:1007300000800DE0DFF8DC8008F10408D8F80080C4
:1007400028EA0008DFF8CC9009F10409C9F8008014
:10075000D1F8048008F40038B8F5003F0ED1DFF876
:10076000B480A8F10408D8F8008048EA0008DFF84F
:10077000A490A9F10409C9F800800DE0DFF8948085
:10078000A8F10408D8F8008028EA0008DFF884906F
:10079000A9F10409C9F80080D1F8048008F4803870
:1007A000B8F5803F0ED1DFF86C80A8F10808D8F8C2
:1007B000008048EA0008DFF85C90A9F10809C9F850
:1007C00000800DE0DFF84C80A8F10808D8F8008020
:1007D00028EA0008DFF83C90A9F10809C9F8008070
:1007E000521CD1F8008028FA02F8B8F1000F7FF40B
:1007F00089AEBDE8F887000000001110001002402B
:1008000000080140000C01400010014000140140AC
:1008100008000140080401400AB1016101E00B0435
:100820000361704701480068704700000C08002011
:100830007047000070B505460C4616460A48007819
:10084000401C09490870012C06D120230A220749BF
:10085000074800F04BFB06E02CB920230A2205498B
:10086000034800F092FB70BD0A0800201C0800201D
:10087000840800200008002010B504460CB90120AF
:1008800010BD242084F83D002068006820F001009D
:1008900021680860204600F061FA0020206484F896
:1008A0003D00206384F83E0000BF84F83C0000BF98
:1008B00000BFE5E72DE9F84F044620684769206846
:1008C000D0F80480002594F83E90C7F3002070B162
:1008D000C8F3002058B145F001056FF4807021681D
:1008E00048612068006840F4004021680860C7F350
:1008F000402040B1C8F3002028B145F002056FF454
:10090000007021684861C7F3802070B3C8F30020ED
:1009100058B3CA46B4F82AB094F83D60206B0090F2
:10092000BAF1200F0FD1BBF1000F0CD1212E06D050
:10093000292E04D0282E06D10098212803D1204644
:1009400001F0B8FD11E06FF480602168486145F066
:100950000405B9F1100F02D0B9F1400F05D120689C
:10096000006840F4007021680860C7F3C02040B1FF
:10097000C8F3002028B145F008056FF40060216835
:1009800048612DB1206C28432064204601F056F8C0
:10099000BDE8F88F2DE9F04705464FF000092868BB
:1009A0004668D5F82CA095F83E7095F83D80102F3C
:1009B00001D0402F75D12868D0F818902868446974
:1009C00004F0010060B9BAF52A0F02D0BAF12A4F3B
:1009D00001D1012000E00020012801D1BDE8F0870D
:1009E00004F0010048B1C6F3402030B1284600F0C1
:1009F00091FF284601F014FCB7E0C4F3C00030B109
:100A0000C6F3402018B1284601F0B5FAADE0C4F3B2
:100A1000400030B1C6F3402018B1284601F0C0FABA
:100A2000A3E0C9F3800040B32868406800F4006088
:100A3000B0F5006FE0D0C4F3C01048B1C6F3802019
:100A400030B1C4F3800018B9284601F028FA8CE0D0
:100A5000C4F380000028CFD0C6F340200028CBD0BC
:100A6000B8F1210F03D1284601F0C9F97DE0402FEC
:100A70007BD1284601F023FC77E02868406800F429
:100A80000060B0F5006F70D0C4F3801050B1C6F3B1
:100A9000802038B1C4F3800020B9284601F037F92E
:100AA00063E00BE0C4F3800000285ED0C6F3402072
:100AB00000285AD0284601F097F856E0286C10B16B
:100AC0002868446904E02868D0F8189028684469C8
:100AD000C4F3400060B1C6F3402048B1286C10B1A7
:100AE0002868D0F818904946284601F0ABFC3CE055
:100AF000C4F3001030B1C6F3402018B1284601F00D
:100B00002DFD32E0B8F1210F02D0B8F1290F16D136
:100B1000C4F3C01048B1C6F3802030B1C4F38000E4
:100B200018B9284601F06BFC1FE0C4F38000E0B167
:100B3000C6F34020C8B1284601F054FC15E0C4F3C8
:100B4000801048B1C6F3802030B1C4F3800018B9DA
:100B5000284601F024FC08E0C4F3800028B1C6F365
:100B6000402010B1284601F00DFC00BF36E710B55B
:100B700004462046FFF780FE01F00AFE10BD00008B
:100B800070B504460CB9012070BD94F83D0028B939
:100B9000002084F83C00204600F01EF9242084F850
:100BA0003D002068006820F001002168086020688E
:100BB000006840F40040216808602068006820F464
:100BC00000402168086000F0EFFB05465C49606862
:100BD000884206D85B48854201D2012007E0002008
:100BE00005E05948854201D2012000E0002001289B
:100BF00000D1C9E75548B5FBF0F62068406820F001
:100C00003F003043216848604D496068884201D800
:100C1000701C07E04FF4967070434FF47A71B0FB8C
:100C2000F1F0401C2168096A21F03F010843216866
:100C3000086243496068884214D8681E61684900A8
:100C4000B0FBF1F0401CC0F30B00042801D20420DB
:100C50003DE0681E61684900B0FBF1F0401CC0F344
:100C60000B0034E0A06838B9681E616801EB4101EF
:100C7000B0FBF1F0401C0AE0681E616801EBC102A4
:100C800002EB0111B0FBF1F0401C40F48040C0F3D6
:100C90000B0008B901201AE0A06848B9681E616815
:100CA00001EB4101B0FBF1F0401CC0F30B000CE084
:100CB000681E616801EBC10202EB0111B0FBF1F0AB
:100CC000401CC0F30B0040F4804040F40040216819
:100CD000C9694CF6FF72914308432168C861D4E9A1
:100CE000070108432168096821F0C0010843216811
:100CF0000860D4E9031008432168896848F2FF328C
:100D00009143084321688860D4E9050108432168BC
:100D1000C96821F0FF0108432168C86020680068A5
:100D200040F001002168086000202064202084F841
:100D30003D000020206384F83E0000BF24E700004F
:100D4000A086010080841E0000093D0040420F0083
:100D500070477047704770477047000010B50446F1
:100D600019492068884214D11848C06920F400103D
:100D70001649C86140211648FFF724FB802114481A
:100D8000FFF720FB1F2000F0BFF9202000F0BCF986
:100D900018E010492068884214D10C48C06920F43A
:100DA00080000A49C86109150948FFF70BFB4FF499
:100DB00000610748FFF706FB212000F0A5F922207B
:100DC00000F0A2F910BD00000054004000100240E5
:100DD000000C01400058004010B586B004460020C9
:100DE00002900390049005903B492068884236D1D8
:100DF00000BF3A48806940F00800384988610846D9
:100E0000806900F00800019000BF00BFC020029080
:100E1000122003900320059002A93148FFF76CFBD4
:100E200000BF2E48C06940F400102C49C861084634
:100E3000C06900F40010019000BF00BF00221146FD
:100E40001F2000F093F91F2000F080F900221146C6
:100E5000202000F08BF9202000F078F93AE02149B9
:100E60002068884236D100BF1C48806940F00800E5
:100E70001A4988610846806900F00800019000BFA7
:100E800000BF4FF4406002901220039003200590B1
:100E900002A91348FFF730FB00BF1048C06940F4B7
:100EA00080000E49C8610846C06900F480000190C6
:100EB00000BF00BF00221146212000F057F9212079
:100EC00000F044F900221146222000F04FF92220C0
:100ED00000F03CF906B010BD005400400010024084
:100EE000000C0140005800407047704738B5044678
:100EF00094F83D0000F02800282844D101B10AB937
:100F0000012038BD00BF94F83C00012801D1022027
:100F1000F7E7012084F83C0000BF2068006800F07B
:100F2000010028B92068006840F0010025682860A9
:100F30002068006820F40060256828602A2084F872
:100F40003D00202084F83E0000202064616262851C
:100F5000608D2085E36200BF00200090206840691A
:100F6000009020688069009000BF00BF00BF002093
:100F700084F83C0000BF2068406840F4E0602568C9
:100F800068600020BDE70220BBE738B5044694F84E
:100F90003D0000F02800282844D101B10AB9012001
:100FA00038BD00BF94F83C00012801D10220F7E7CA
:100FB000012084F83C0000BF2068006800F00100B8
:100FC00028B92068006840F0010025682860206882
:100FD000006820F4006025682860292084F83D001E
:100FE000202084F83E000020206461626285608DCC
:100FF0002085E36200BF00200090206840690090D7
:1010000020688069009000BF00BF00BF002084F806
:101010003C0000BF2068406840F4E06025686860DC
:101020000020BDE70220BBE70348006803490978B8
:1010300008440149086070470C080020140800208B
:1010400010B50848006840F0100006490860032009
:1010500000F0CAF80F2000F007F800F02BF800208D
:1010600010BD00000020024070B504460E48007814
:101070004FF47A71B1FBF0F00C490968B1FBF0F55F
:10108000284600F00BFC08B1012070BD102C07D2DF
:1010900000222146501E00F069F80548046001E076
:1010A0000120F2E70020F0E71408002018080020D3
:1010B0001008002008B500BF1148806940F0010009
:1010C0000F4988610846806900F00100009000BF68
:1010D00000BF00BF0846C06940F08050C8610846A4
:1010E000C06900F08050009000BF00BF00BF0549FC
:1010F000486820F0E06040F00070486000BF08BD24
:10110000001002400000014010B5014608460028CA
:1011100017DB00F01F0301229A400B4B440943F8F0
:10112000242000BF00BF00BFBFF34F8F00BF00BF30
:1011300000BF00BF00BF00BFBFF36F8F00BF00BF85
:1011400000BF00BF10BD000080E100E0014608467E
:10115000002809DB00F01F0301229A4043099B008D
:1011600003F1E023C3F8002100BF70472DE9F05FD1
:1011700080460D461646002701F064FF07463946B3
:101180002A46334601F00700C0F1070ABAF1040FFE
:1011900002D94FF0040A01E0C0F1070AD14600F17C
:1011A000040ABAF1070F02D24FF0000A01E0A0F1E1
:1011B000030AD4464FF0010A0AFA09FAAAF1010A11
:1011C0000AEA020A0AFA0CFA4FF0010B0BFA0CFBBE
:1011D000ABF1010B0BEA030B4AEA0B042146404634
:1011E00001F038FFBDE8F09F00BF00F00702064B9A
:1011F00019684FF6FF031940044B0B4343EA0221E1
:10120000014B196000BF70470CED00E00000FA05CB
:1012100070B504460D460CB9012070BD5A480068EF
:1012200000F00700A8420ED25748006820F00700DF
:101230002843554908600846006800F00700A842A6
:1012400001D00120E9E7207800F0020002281DD13A
:10125000207800F00400042805D14C48406840F490
:10126000E0604A494860207800F00800082805D16D
:101270004648406840F460504449486043484068EC
:1012800020F0F000A168084340494860207800F051
:10129000010078B36068012806D13C48006800F47A
:1012A000003090B90120B8E76068022806D13748BD
:1012B000006800F0007040B90120AEE733480068D4
:1012C00000F0020008B90120A7E73048406820F08C
:1012D0000300616808432D494860FFF7A3FA0646FA
:1012E00009E0FFF79FFA801B41F28831884202D95A
:1012F000032092E707E02548406800F00C00616891
:10130000B0EB810FEDD12048006800F00700A84243
:101310000ED91D48006820F0070028431A490860CC
:101320000846006800F00700A84201D0012074E7D9
:10133000207800F00400042807D11448406820F405
:10134000E060E168084311494860207800F0080037
:10135000082808D10D48406820F46050216940EA0F
:10136000C1000A49486000F02FF808494968C1F3F4
:101370000311074A515CC8400649086006480068E6
:10138000FFF772FE002048E70020024000100240F4
:10139000A232000818080020100800200148006848
:1013A000704700001808002000B5FFF7F7FF044958
:1013B0004968C1F30221034A515CC84000BD0000E6
:1013C00000100240B232000870B500210022002453
:1013D00000230020134D696801F00C05F5B1042DC0
:1013E00002D0082D19D101E00F4819E00F4DC1F3CB
:1013F0008346AB5D01F4803555B10A4D6D68C5F388
:1014000040450B4E725D084D5D43B5FBF2F402E0C2
:10141000084D03FB05F4204602E000BF024800BF70
:1014200000BF70BD0010024000127A009032000828
:10143000A032000800093D00F8B504460CB90120AF
:10144000F8BD207800F00100002878D0F848406806
:1014500000F00C0004280CD0F548406800F00C00A7
:10146000082811D1F248406800F48030B0F5803F80
:101470000AD1EF48006800F4003000285FD06068AF
:1014800000285CD10120DBE700BF6068B0F5803F39
:1014900006D1E748006840F48030E549086028E05C
:1014A000606858B9E248006820F48030E04908607C
:1014B0000846006820F4802008601AE06068B0F5F3
:1014C000A02F0BD1DA48006840F48020D84908608A
:1014D0000846006840F4803008600AE0D44800689C
:1014E00020F48030D24908600846006820F480204B
:1014F000086000BF606888B1FFF794F9054606E010
:10150000FFF790F9401B642801D9032098E7C848E9
:10151000006800F400300028F2D010E0FFF782F9F4
:10152000054606E0FFF77EF9401B642801D9032039
:1015300086E7BF48006800F400300028F2D1207828
:1015400000F00200022857D1B948406800F00C00B2
:1015500050B1B748406800F00C00082818D1B448D2
:10156000406800F4803098B9B148006800F002008B
:1015700020B12069012801D0012061E7AC48006852
:1015800020F0F800616940EAC100A949086033E031
:101590002069E8B10120A7490860FFF743F9054633
:1015A00006E0FFF73FF9401B022801D9032047E777
:1015B0009F48006800F002000028F2D09C480068B4
:1015C00020F0F800616940EAC1009949086013E021
:1015D000002098490860FFF725F9054606E0FFF767
:1015E00021F9401B022801D9032029E7904800680F
:1015F00000F002000028F2D1207800F0080008284E
:101600002DD1A069B8B101208B490860FFF70AF914
:10161000054606E0FFF706F9401B022801D9032022
:101620000EE78348406A00F002000028F2D0012053
:1016300001F0B8FC13E000207F490860FFF7F2F8E2
:10164000054606E0FFF7EEF8401B022801D903200B
:10165000F6E67748406A00F002000028F2D12078D0
:1016600000F00400042873D100277148C06900F01D
:10167000805070B900BF6E48C06940F080506C491E
:10168000C8610846C06900F08050009000BF00BFEC
:1016900001276A48006800F48070B0B967480068A4
:1016A00040F4807065490860FFF7BCF8054606E025
:1016B000FFF7B8F8401B642801D90320C0E65F4853
:1016C000006800F480700028F2D000BFE0680128B4
:1016D00006D15748006A40F001005549086227E0EA
:1016E000E06858B95248006A20F001005049086289
:1016F0000846006A20F00400086219E0E068052846
:101700000BD14B48006A40F0040049490862084682
:10171000006A40F0010008620AE04548006A20F0D3
:101720000100434908620846006A20F0040008628C
:1017300000BFE068A0B1FFF775F8054609E0FFF7C4
:1017400071F8401B41F28831884202D9032077E6C4
:1017500022E03748006A00F002000028EFD012E0D3
:10176000FFF760F8054608E0FFF75CF8401B41F220
:101770008831884201D9032062E62D48006A00F0D2
:1017800002000028F0D1012F05D12948C06920F0BE
:1017900080502749C86100BFE069C8B32448406849
:1017A00000F00C00082860D0E069022848D1002031
:1017B00020490866FFF736F8054606E0FFF732F8DD
:1017C000401B022801D903203AE61948006800F0BE
:1017D00000700028F2D1206AB0F5803F07D114488C
:1017E000406820F40030A168084311494860D4E9FA
:1017F000080108430E49496821F4741108430C4953
:10180000486001200B490866FFF70CF8054607E021
:101810003DE0FFF707F8401B022801D903200FE63F
:101820000348006800F000700028F2D02FE00000AC
:10183000001002400000424280044242007000401A
:10184000002014490866FEF7EDFF054606E0FEF7A6
:10185000E9FF401B022801D90320F1E50E4800688A
:1018600000F000700028F2D111E0E069012800D1F9
:10187000E6E50948466806F48031206A814204D1D1
:1018800006F47011606A814201D00120D8E5002081
:10189000D6E50000000042420010024070B5044648
:1018A0002546681EB0F1807F01D301200FE0681E3D
:1018B0004FF0E02148610F214FF0FF3001F0CAFBEB
:1018C00000204FF0E021886107200861002070BDF2
:1018D00000BFFEE710B50248FEF7ECFF10BD0000A8
:1018E0003008002010B50248FFF754F810BD000082
:1018F0003008002010B50248FEF7DCFF10BD0000E4
:101900008408002010B50248FFF744F810BD00001D
:1019100084080020C16AB1F52A0F02D10121C162F9
:1019200005E0C16AB1F12A4F01D10821C1627047B7
:10193000F8B50546002000906C6A94F83D6039487F
:1019400000681921B0FBF1F04FF47A71B0FBF1F0AF
:10195000C0EBC00000EB8000009000BF009820B9F1
:10196000206C40F02000206409E00098401E0090A8
:101970002068006800F40070B0F5007FEED000BF72
:10198000606B10B10020616B8862A06B10B1002009
:10199000A16B88622068006820F48060216808607C
:1019A00000206085606B10B10020616B4863A06B04
:1019B00010B10020A16B48632068006820F001008E
:1019C0002168086094F83D0060280AD1202084F83E
:1019D0003D00002084F83E0020642046FEF728FFEA
:1019E0001EE006F02800282811D12068006840F089
:1019F0000100216808602068006840F48060216868
:101A0000086000202063282084F83D0005E02020A5
:101A100084F83D00002084F83E002046FFF7A7F838
:101A2000F8BD00001808002001684969C1F3C01121
:101A300011B1002102681161704700002DE9F041E9
:101A4000044694F83D6094F83E70102F01D0402F6A
:101A500007D1222E05D12068006820F4006021689B
:101A6000086006F02800282805D1002020632820DF
:101A700084F83D0010E02068406800F40060B0F594
:101A8000006F07D0602E05D0202084F83D00002094
:101A900084F83E00002020632068406800F4006065
:101AA000B0F5006F40D12068406820F400602168E4
:101AB0004860606B90F82100012814D04848616BA1
:101AC0004863606BFEF70EFC00285BD0206800685E
:101AD00020F0010021680860202084F83D00606B40
:101AE000416B88474EE03E48A16B4863A06BFEF710
:101AF000F9FB002846D020684069C0F3801030B15F
:101B000020680069616A0870606A401C6062206831
:101B1000006820F0010021680860202084F83D0062
:101B2000A06B416B88472DE094F83D0060281AD1E6
:101B3000202084F83D000020206420684069C0F324
:101B4000801030B120680069616A0870606A401CCA
:101B500060622068006820F001002168086020466B
:101B6000FEF766FE0EE020684069C0F3801030B1D9
:101B700020680069616A0870606A401C60622046E3
:101B8000FEF7F5FF256C05F0010058B905F00200DD
:101B9000022807D005F00400042803D005F008004F
:101BA000082805D12068406820F4E060216848607A
:101BB00094F83D60206C00F0040004280ED1282E1B
:101BC0000CD10848E06200202063202084F83D000A
:101BD000002084F83E002046FFF7BAF8BDE8F08107
:101BE000311900080000FFFF70B50446E56A608DFA
:101BF000042810D12068406820F480602168486083
:101C000020680069616A0870606A401C6062608DCB
:101C1000401E60857AE0608D03281AD120684068F4
:101C200020F4806021684860042D07D0022D05D083
:101C30002068006820F480602168086020680069DE
:101C4000616A0870606A401C6062608D401E608539
:101C50005CE0608D02284FD1012D01D0102D06D1FE
:101C60002068006820F480602168086012E0042D7C
:101C700001D0022D06D12068006840F48060216800
:101C8000086007E0102D05D02068006840F400705F
:101C90002168086020680069616A0870606A401CF9
:101CA0006062608D401E608520680069616A08700E
:101CB000606A401C6062608D401E608520684068DC
:101CC00020F4407021684860202084F83D0094F89A
:101CD0003E00402807D1002084F83E0020632046C3
:101CE000FFF739F812E0002084F83E00122020634C
:101CF0002046FFF72EF809E020680069616A087045
:101D0000606A401C6062608D401E608570BD70B569
:101D1000044694F83D00222870D1658D032D13D917
:101D200020680069616A0870606A401C6062608DAA
:101D3000401E6085608D03285FD12068406820F4D4
:101D400080602168486058E0E06A02284FD0012D89
:101D500001D0002D4BD1204600F0C6FC68BB2068A6
:101D6000006820F48060216808602068406820F4E2
:101D7000E0602168486020680069616A0870606AF4
:101D8000401C6062608D401E6085202084F83D000C
:101D900094F83E00402807D1002084F83E002063DC
:101DA0002046FEF7D8FF28E0002084F83E001220ED
:101DB00020632046FEF7CDFF1FE02068406820F436
:101DC000E0602168486020680069616A0870606AA4
:101DD000401C6062608D401E6085202084F83D00BC
:101DE000002084F83E002046FEF7C1FE05E0206892
:101DF000406820F480602168486000BF70BD70B505
:101E00000446E56A94F83D00212847D1608D50B121
:101E1000606A007821680861606A401C6062608DB9
:101E2000401E60853AE0082D16D0202D14D015F5FF
:101E3000803F11D02068406820F4E060216848604D
:101E400011202063002084F83E00202084F83D000B
:101E50002046FEF77FFF21E02068406820F4E06024
:101E6000216848602068006840F4007021680860BC
:101E700000202063202084F83D0094F83E00402894
:101E800006D1002084F83E002046FEF765FF05E0FD
:101E9000002084F83E002046FEF75CFF70BD2DE96F
:101EA000F041044694F83D5094F83E70E66A208D67
:101EB000B0BB212D3CD1082E16D0202E14D016F503
:101EC000803F11D02068406820F4E06021684860BD
:101ED00011202063002084F83E00202084F83D007B
:101EE0002046FEF737FF44E02068406820F4E060B9
:101EF000216848602068006840F40070216808602C
:101F000000202063202084F83D0094F83E00402803
:101F100007D1002084F83E002046FEF71DFF28E090
:101F200006E0002084F83E002046FEF713FF20E084
:101F3000212D03D0402F1CD1222D1AD1608D30B914
:101F40002068406820F480602168486011E094F8BF
:101F50003E00402803D1204600F0B1F909E0606A54
:101F6000007821680861606A401C6062608D401ED4
:101F70006085BDE8F081416CC9B202681161416BB6
:101F800011B1416B896A21B9816B41B1816B896A59
:101F900029B10168496841F40061026851607047E5
:101FA00038B590F83E20C16A036B90F83D40222C72
:101FB00073D1046D64B9402A0AD100BF0024009493
:101FC0000468646900940468A469009400BF26E171
:101FD000046DC4B90469B4F5404F14D100BF0024A6
:101FE00000940468646900940468A469009400BFC4
:101FF00000BF0468246844F4807405682C60046D94
:10200000641C04650BE1448D8CB900BF002400946E
:102010000468646900940468A469009400BF00BF68
:102020000468246844F4007405682C60E9E0448D79
:10203000012C72D111F5803F30D10468246824F45A
:10204000806405682C600468646804F40064B4F576
:10205000006F10D10468246824F4806405682C6043
:1020600000BF002400940468646900940468A469B3
:10207000009400BFC5E000BF0024009404686469B8
:1020800000940468A469009400BF00BF0468246839
:1020900044F4007405682C60B3E0B5E0082923D04F
:1020A000202921D0122B01D101291DD104290AD0C8
:1020B000022908D0102906D00468246824F480641A
:1020C00005682C6005E00468246844F480640568B1
:1020D0002C6000BF002400940468646900940468C4
:1020E000A469009400BF8CE00468246824F4806430
:1020F00005682C6000BF00240094046864690094A3
:102100000468A469009400BF00BF0468246844F414
:10211000007405682C6074E0FFE7448D022C47D101
:1021200004291BD0022919D0102917D0046824686B
:1021300044F4006405682C6000BF00240094046827
:10214000646900940468A469009400BF00BF046837
:10215000246824F4806405682C6010E00468246816
:1021600044F4806405682C6000BF00240094046877
:10217000646900940468A469009400BF00BF046807
:10218000646804F40064B4F5006F3AD111F5803F3F
:1021900007D0012905D0082903D0102901D0202912
:1021A0002FD10468646844F4805405686C6028E0AA
:1021B0000468246844F4806405682C6004686468DA
:1021C00004F40064B4F5006F10D111F5803F07D01E
:1021D000012905D0082903D0102901D0202905D1D3
:1021E0000468646844F4805405686C6000BF00248F
:1021F00000940468646900940468A469009400BFB2
:1022000000BF002404650AE000BF002400940468B5
:10221000646900940468A469009400BF00BF38BDDD
:1022200090F83E1040290ED1016D29B9416C01F0A2
:10223000FE010268116141E0416CC9B241F0010147
:10224000026811613AE00169B1F5804F20D190F840
:102250003D10212905D1416C01F0FE010268116198
:1022600005E0416CC9B241F0010102681161416BA6
:1022700011B1416B896A21B9816BF9B1816B896AAE
:10228000E1B10168496841F400610268516015E0FC
:10229000016D41B9416C01F44071F02242EAE11153
:1022A000026811610AE0016D012907D1416C01F456
:1022B0004071F12242EAE11102681161704770B584
:1022C000044694F83D50206D98B9E06C012807D180
:1022D000A06CC0B221680861206D801C206550E0B0
:1022E000A06CC0F3072021680861206D401C2065A8
:1022F00047E0206D012807D1A06CC0B221680861B9
:10230000206D401C20653CE0206D022836D1222D36
:1023100009D12068006840F4807021680860206D51
:10232000401C20652DE0608D60B1212D0AD1606ACE
:10233000007821680861606A401C6062608D401E00
:1023400060851EE0608DE0B9212D1AD120684068BB
:1023500020F4E060216848602068006840F4007064
:102360002168086000202063202084F83D000020C0
:1023700084F83E002046FEF7EFFC02E02046FFF71F
:1023800053FB70BD418D49B101680969426A117002
:10239000416A491C4162418D491E4185704770B5B3
:1023A000044694F83D50608DD8B120680069616A98
:1023B0000870606A401C6062608D401E6085608DA0
:1023C00078B92A2D0DD12068406820F480602168FA
:1023D000486022202063282084F83D002046FEF734
:1023E00083FD70BD418D49B1416A09780268116170
:1023F000416A491C4162418D491E4185704770B553
:10240000044694F83D50608DD8B1606A0078216828
:102410000861606A401C6062608D401E6085608D4E
:1024200078B9292D0DD12068406820F4806021689A
:10243000486021202063282084F83D002046FEF7D4
:1024400054FD70BDF8B504460D46002794F83D00D4
:1024500000F0280028281CD12068406820F4806003
:1024600021684860C5F3800000B90127C5F3C0109A
:1024700010B9A08986B201E0208B86B200BF00208F
:1024800084F83C0000BF324639462046FEF7D2F9B8
:102490000FE000BF00200090206840690090206895
:1024A0008069009000BF00BF00BF002084F83C009E
:1024B00000BFF8BD70B5044694F83D50E66A082E9A
:1024C00001D0202E1FD1282D1DD12348E062206885
:1024D000406820F4E060216848606FF48060216803
:1024E00048612068006820F480602168086000204E
:1024F0002063202084F83D00002084F83E00204620
:10250000FEF726FC26E0212D20D11348E062212091
:102510002063202084F83D00002084F83E002068DD
:10252000406820F4E060216848606FF480602168B2
:1025300048612068006820F48060216808602046B7
:10254000FFF772FA2046FEF7D0FC03E06FF48060DC
:102550002168486170BD00000000FFFF38B50446E7
:1025600094F83D502068406820F4E060216848609D
:1025700000BF00200090206840690090206800683B
:1025800040F001002168086000BF00BF20680068BB
:1025900020F48060216808602068406800F40060D2
:1025A000B0F5006F42D1222D01D02A2D1FD1A06B92
:1025B000006840686085608D18B1206C40F00400B0
:1025C00020642068406820F4006021684860A06BA7
:1025D000FDF7E0FE012829D04148A16B4863A06BBC
:1025E000FDF780FE10B3A06B416B88471EE0606B67
:1025F000006840686085608D18B1206C40F0040070
:1026000020642068406820F4006021684860606BA6
:10261000FDF7C0FE012809D03148616B4863606B4B
:10262000FDF760FE10B1606B416B8847608D18B399
:1026300020684069C0F3800048B120680069616A81
:102640000870606A401C6062608D401E6085206872
:102650004069C0F3801048B120680069616A087061
:10266000606A401C6062608D401E6085608D18B19C
:10267000206C40F004002064206C18B12046FFF765
:10268000DDF92BE02A2D07D100202063282084F8D3
:102690003D002046FEF728FC94F83D0028280DD187
:1026A0001048E06200202063202084F83D000020D4
:1026B00084F83E002046FEF74BFB0FE0206B2228FB
:1026C00001D0222D0AD100202063202084F83D0073
:1026D000002084F83E002046FEF706FC38BD0000CE
:1026E000311900080000FFFF08B5014600200090E6
:1026F000104800681922B0FBF2F04FF47A72B0FB78
:10270000F2F000EB8000009000BF0098401E0090A7
:10271000009828B9086C40F020000864012008BD2A
:102720000868006800F40070B0F5007FEDD000206C
:10273000F5E700001808002008B500BF13488069BD
:1027400040F02000114988610846806900F02000AF
:10275000009000BF00BF00BF0846806940F008003D
:1027600088610846806900F00800009000BF00BF43
:1027700000BF0846806940F004008861084680690F
:1027800000F00400009000BF00BF08BD0010024030
:1027900010B50C480C4908600C48486000210A48F4
:1027A00081602821C1604FF48041016100214161B5
:1027B0008161C1610162FEF7E3F908B1FDF78EFDA9
:1027C00010BD00000058004084080020A0860100D1
:1027D00000BFFEE700BFFEE770B500240CE0002557
:1027E00006E00020074901EBC5010855681CC5B289
:1027F000802DF6DB601CC4B2082CF0DB00F01CF965
:1028000070BD0000D808002010B504461CB9002196
:10281000A62000F083FB012C03D10021A72000F0AB
:102820007DFB10BD10B504463CB90021C82000F066
:1028300075FB0021A12000F071FB012C07D10021C4
:10284000C02000F06BFB0021A02000F067FB10BD52
:10285000F0B514460B46CF1701EB5777C7F3C70205
:10286000CF1701EB5777FF10A1EBC707FEB201238B
:10287000B340DDB24CB1134B03EBC0039B5C2B4365
:10288000104F07EBC007BB541AE00E4B03EBC0031D
:102890009B5CDB430B4F07EBC007BB54094B03EBBF
:1028A000C0039B5C2B43074F07EBC007BB54054B92
:1028B00003EBC0039B5CDB43024F07EBC007BB5439
:1028C000F0BD0000D808002000B585B000200190C0
:1028D00002900390049000BF4E48806940F00400CD
:1028E0004C4988610846806900F00400009000BFF0
:1028F00000BF00BF0846806940F0010088610846BB
:10290000806900F00100009000BF00BF00BF424995
:10291000486820F0E06040F00070486000BF48F276
:102920001F000190012002900020039003200490DA
:1029300001A93A48FDF7E0FD002204213748FDF7E0
:102940006BFFC820FDF72AFD012204213348FDF763
:1029500063FF0021AE2000F0E1FA0021FD2000F02D
:10296000DDFA0021122000F0D9FA0021D52000F074
:10297000D5FA0021A02000F0D1FA0021A82000F013
:10298000CDFA00213F2000F0C9FA0021D32000F049
:10299000C5FA0021084600F0C1FA0021402000F0ED
:1029A000BDFA0021A12000F0B9FA0021C82000F0F2
:1029B000B5FA0021DA2000F0B1FA0021122000F06F
:1029C000ADFA0021812000F0A9FA0021BF2000F01B
:1029D000A5FA0021D92000F0A1FA0021252000F05D
:1029E0009DFA0021DB2000F099FA0021342000F04C
:1029F00095FA0021A42000F091FA0021A62000F011
:102A00008DFAFFF7E9FE0021AF2000F087FA05B04C
:102A100000BD00000010024000000140000801401D
:102A200010B50246012000E050430B1EA1F1010445
:102A3000E1B2F9D110BD000070B500241CE004F132
:102A4000B001C8B2002100F069FA0021084600F088
:102A500065FA0021102000F061FA002508E008491D
:102A600001EBC501085D012100F058FA681CC5B2F0
:102A7000802DF4DB601CC4B2082CE0DB70BD0000CC
:102A8000D808002008B580468946924600260027CF
:102A90004BE04FB91023324618218020CDF800A01A
:102AA00000F0E4F8701CC6B2464522D14FF0000B8E
:102AB0001AE0012410E000250AE01C4800EBC400E5
:102AC000415D601E194A02EBC0004155681CC5B249
:102AD000082DF2DB601CC4B2902CECDBFFF7ACFFDE
:102AE0000BF1010000F0FF0B4FEA09105845E0DC44
:102AF0000026781CC7B2102F00D10027012410E057
:102B000000250AE0094800EBC400415D601E074A49
:102B100002EBC0004155681CC5B2082DF2DB601CF9
:102B2000C4B2902CECDBFFF787FFB2E7D808002097
:102B30002DE9FE4F0746884692461C460197CDF880
:102B40000080082C02D14FF006091FE02046E31751
:102B500004EB5373DB1021464FEAE47C04EB5C7C0E
:102B60004FEAEC0CA4EBCC0CBCF1000F02D04FF000
:102B7000010C01E04FF0000C6344224604EBD27CD0
:102B80004FEA6C0C03FB0CF303F0FF09AAF12000E1
:102B9000C6B200255EE0082C07D106EB46002F499F
:102BA00001EB400010F805B01DE00C2C07D106EB3E
:102BB00046002B4901EB800010F805B013E0102C03
:102BC00005D1284800EB061010F805B00BE0182CD2
:102BD00007D106EBC600244901EB800010F805B0D0
:102BE00001E0BDE8FE8F002002901CE00BF0010028
:102BF00028B1414638460C9AFFF72AFE09E00C98A6
:102C000008B9012000E00020024641463846FFF79F
:102C10001FFE4FEA6B0B08F1010000F0FF0802985D
:102C2000401CC0B2029002980828DFDB781CC7B2B3
:102C3000082C0BD004EBD4714A100199791A8A42FE
:102C400004D1019F00980830C0B20090DDF80080E8
:102C5000681CC5B24D459EDB00BFC2E7BA32000812
:102C6000E234000856390008463F00082DE9FC4FC1
:102C70000746884616461C46BB46CDF804802046CB
:102C8000E21704EB5272D2102146E31704EB5373A0
:102C9000DB10A4EBC3030BB1012300E000231A44B3
:102CA000624392B20092002555E0102C05D12C48C9
:102CB00000EB461010F805A01BE0182C07D106EB1E
:102CC000C600284901EBC00010F805A011E0202C37
:102CD00005D1254800EBC61010F805A009E0402CEE
:102CE00005D1224800EB462010F805A001E0BDE820
:102CF000FC8F4FF000091CE00AF0010028B14146AA
:102D000038460B9AFFF7A4FD09E00B9808B901209B
:102D100000E00020024641463846FFF799FD4FEAA1
:102D20006A0A08F1010000F0FF0809F1010000F053
:102D3000FF09B9F1080FDFDB781CC7B2A7EB0B0066
:102D4000A04204D15F4601980830C0B20190DDF87E
:102D50000480681C85B200988542A6DB00BFC6E7E8
:102D6000A24C0008024E00084A4E0008CA4E000855
:102D70002DE9FF4F82B0064691461F46DDE90F4A16
:102D80004FF0000B082C01D14FF0020B002530E072
:102D9000781B401EC1B20A20FFF742FEB9FBF0F0DB
:102DA0000A21B0FBF1F201FB1208B8F1000F0ED1BD
:102DB00004EBD4710BEB610101FB0561C8B2234642
:102DC0003022CDE900A40399FFF7B2FE0FE004EB37
:102DD000D4710BEB610101FB0561C8B208F1300150
:102DE000CAB22346CDE900A40399FFF7A1FE681CEF
:102DF000C5B2BD42CCDB06B0BDE8F08F2DE9FF4F78
:102E000005460E4617461C46DDF838904FF0000A7E
:102E10000095B3462046E21704EB5272D2102146C9
:102E2000E31704EB5373DB10A4EBC3030BB10123D3
:102E300000E000231A44D4B24FF0000845E000201F
:102E400003903BE00D9810F80A0002900AF101008F
:102E50001FFA80FA002001901DE0029800F00100A6
:102E600028B14A4631462846FFF7F2FC0AE0B9F19C
:102E7000000F01D1012000E0002002463146284623
:102E8000FFF7E6FC029840100290701CC6B2019851
:102E9000401CC0B2019001980828DEDB681CC5B256
:102EA0000098281AB84204D1009D0BF1080000F0E8
:102EB000FF0B5E460398401CC0B203900398B842D3
:102EC000C0DB08F1010000F0FF08A045B7DBBDE85A
:102ED000FF8F2DE9F84106460F4614461D46DDF8E2
:102EE0001C8013E0CDF8008022782B46394630460E
:102EF000FFF71EFE082D02D1B01DC6B205E0284620
:102F000005EBD07106EB6101CEB2641C207820285D
:102F100002DB20787E28E5DDBDE8F88170B5044647
:102F20000E462EB1012208211C48FDF775FC04E075
:102F3000002208211948FDF76FFC002210211748D4
:102F4000FDF76AFC00251BE0002201211348FDF774
:102F500063FC04F0800028B1012202210F48FDF734
:102F60005BFC04E0002202210C48FDF755FC012225
:102F700011460A48FDF750FC6006040E681CC5B2F5
:102F8000082DE1DB012210210448FDF745FC012258
:102F900008210248FDF740FC70BD00000008014018
:102FA0007047000008B508490968C9084FF47A72EB
:102FB000B1FBF2F14143009100BF00BF00994A1EEE
:102FC00000920029F9D108BD18080020704710B5FB
:102FD000FEF72AF810BD00B58FB0282105A8FDF72F
:102FE00017F914216846FDF713F901200590000434
:102FF0000690002007900120099002200C90C10348
:103000000D914FF4E0110E9105A8FEF715FA08B1E5
:10301000FDF764F90F20009002200190002002903B
:103020004FF4806003900020049002216846FEF770
:10303000EFF808B1FDF752F90FB000BD704700BFBF
:10304000FEE7000002480068C0F30220704700005D
:103050000CED00E010B5002804DB0A07130E054A4A
:10306000135406E00A07140E034A00F00F031B1F57
:10307000D45410BD00E400E018ED00E01CB5FDF7ED
:10308000DFFFFFF7A8FFFFF757FBFFF781FB2024C7
:10309000FFF71AFC0020FFF7B7FB0020FFF7C2FB89
:1030A000DBE001206D4940238022CDE900100021A2
:1030B0000846FFF7A3FEFFF7BFFC4FF4FA70FDF7D9
:1030C0006DF9FFF789FB01201023002211460090C3
:1030D0001046FFF7CBFD012010230246002100908F
:1030E0001220FFF7C3FD01201023022200210090CF
:1030F0002420FFF7BBFD01201023032200210090B4
:103100003620FFF7B3FD0120102304220021009098
:103110004820FFF7ABFD012010230522002100907D
:103120005A20FFF7A3FD0120102306220021009062
:103130006C20FFF79BFD0120102349A21946009047
:103140000820FFF7C6FE0120102349A2202100908D
:103150001420FFF7BEFE0120102348A2302100906A
:103160000020FFF7B6FE0120102346A23021009078
:103170003F20FFF7AEFE01201023224630210090B1
:103180000846FFF7D5FC601CC4B27E2C00DD20246D
:103190000120102103232246CDE9001030216720B1
:1031A000FFF7E6FDFFF748FC4FF4FA70FDF7F6F87D
:1031B000FFF712FB01201023002211460090104659
:1031C000FFF754FD01201823002211460090102023
:1031D000FFF74CFD0120202300221421009018202D
:1031E000FFF744FD012040230022114600901846BD
:1031F000FFF73CFDFFF720FC4FF4FA70FDF7CEF827
:10320000FFF7EAFA0120082320A2002100900846D7
:10321000FFF75FFE01200C231CA208210090002074
:10322000FFF757FE0120102318A214210090002060
:10323000FFF74FFE0120182314A224210090002044
:10324000FFF747FEFFF7F8FB4FF4FA70FDF7A6F81B
:10325000012204210B20FFF715FC22E700000020CB
:103260005A484F4E474A494E475955414E00000073
:10327000323031342F30352F303100004153434943
:10328000493A0000434F44453A00000041424300A0
:1032900002030405060708090A0B0C0D0E0F101097
:1032A0000102000000000000000001020304060704
:1032B00008090000000001020304000000000000F3
:1032C0000000002F000000000700070000147F141A
:1032D0007F1400242A7F2A12006264081323003618
:1032E0004955225000000503000000001C22410047
:1032F000000041221C000014083E08140008083E8B
:103300000808000000A06000000808080808000085
:1033100060600000002010080402003E5149453E54
:103320000000427F40000042615149460021414572
:103330004B31001814127F10002745454539003CD9
:103340004A494930000171090503003649494936A7
:1033500000064949291E0000363600000000563696
:10336000000000081422410000141414141400007A
:103370004122140800020151090600324959513E08
:10338000007C1211127C007F49494936003E4141C0
:103390004122007F4141221C007F49494941007F71
:1033A00009090901003E4149497A007F0808087F60
:1033B0000000417F4100002040413F01007F081490
:1033C0002241007F40404040007F020C027F007F8E
:1033D0000408107F003E4141413E007F0909090673
:1033E000003E4151215E007F0919294600464949A6
:1033F00049310001017F0101003F4040403F001F73
:103400002040201F003F4038403F006314081463F1
:1034100000070870080700615149454300007F41DB
:10342000410000552A552A55000041417F00000403
:10343000020102040040404040400000010204003C
:10344000002054545478007F4844443800384444A1
:10345000442000384444487F00385454541800082D
:103460007E0901020018A4A4A47C007F080404784B
:103470000000447D4000004080847D00007F1028D3
:1034800044000000417F4000007C04180478007C68
:103490000804047800384444443800FC24242418E8
:1034A0000018242418FC007C080404080048545424
:1034B000542000043F444020003C4040207C001C3D
:1034C0002040201C003C4030403C00442810284450
:1034D000001CA0A0A07C004464544C441414141498
:1034E00014140000000000000000000000000000B4
:1034F000FC000000000002000000000C020C0200B2
:1035000000000000000090D0BCD0BC90000300037D
:1035100000001824FE448C00030207020100182456
:10352000D8B04C80000300010201C038E438E0004C
:103530000102020102020806000000000000000073
:103540000000000000F80402000000010204000274
:1035500004F800000004020100009060F860900090
:103560000000010000002020FC20200000000100DD
:1035700000000000000000000806000000002020FD
:1035800020202000000000000000000000000000DB
:103590000002000000000080601C02000403000024
:1035A0000000F8040404F80001020202010000080F
:1035B000FC000000000203020000188444241800EC
:1035C00003020202020008042424D80001020202BD
:1035D000010040B088FC80000000000302003C2491
:1035E0002424C400010202020100F824242CC0009B
:1035F0000102020201000C04E41C040000000300AC
:103600000000D8242424D80001020202010038441A
:103610004444F80000030202010000001000000012
:103620000000020000000000200000000000060072
:103630000000002050880402000000000102909069
:1036400090909000000000000000000204885020CC
:103650000002010000001804C42418000000020049
:103660000000F804E494F80001020202020000E005
:103670009CF0800002030000030204FC2424D80014
:10368000020302020100F80404040C000102020219
:10369000010004FC0404F80002030202010004FC1F
:1036A00024740C0002030202030004FC24740C00C6
:1036B000020302000000F0080444CC4000010202B2
:1036C000010004FC2020FC040203000003020404A7
:1036D000FC040400020203020200000404FC0404CF
:1036E00006040403000004FC24D00C0402030200BE
:1036F000030204FC04000000020302020203FC3C7B
:10370000C03CFC0003000300030004FC30C4FC04C4
:10371000020302000300F8040404F800010202029C
:10372000010004FC24241800020302000000F884B5
:103730008404F80001020207050004FC24649800D8
:10374000020302000302182424448C000302020234
:1037500001000C04FC040C0000020302000004FC45
:103760000000FC04000102020100047C80E01C0453
:103770000000030000001CE03CE01C00000300030C
:103780000000049C609C0400020300030200041C6F
:10379000E01C04000002030200000C84641C04000E
:1037A0000203020203000000FE0202000000070400
:1037B0000400000E30C00000000000010200000202
:1037C00002FE0000000404070000000402040000E0
:1037D00000000000000000000000000008080808C9
:1037E0000808000002000000000000000000004087
:1037F000A0A0C00000010202030204FC2020C000BF
:1038000000030202010000C020206000000102024B
:10381000020000C02024FC0000010202030200C0DC
:10382000A0A0C0000001020202000020F82424042D
:103830000002030202000040A0A0602000070A0A64
:103840000A0404FC2020C00002030200030200203E
:10385000E4000000000203020000000020E4000079
:1038600008080807000004FC80E020200203020092
:1038700003020404FC000000020203020200E02034
:10388000E020C00003000300030020E02020C0006F
:1038900002030200030200C02020C0000001020257
:1038A000010020E02020C000080F0A02010000C033
:1038B0002020E0000001020A0F0820E04020200044
:1038C0000203020000000060A0A02000000202022B
:1038D00003000020F820000000000102020020E0A8
:1038E0000020E00000010202030220E020806020AE
:1038F0000000030100006080E0806000000300031E
:10390000000020608060200002030003020020E02D
:10391000208060200808070100000020A06020002F
:10392000000203020200000020DE02000000000787
:103930000400000000FF00000000000F0000000273
:10394000DE2000000004070000000201020404025F
:103950000000000000000000000000000000000067
:10396000000000000000000000F80000000000005F
:1039700000333000000000100C06100C06000000A0
:1039800000000000000040C07840C0784000043FC4
:1039900004043F040400007088FC08300000001894
:1039A00020FF211E0000F008F000E01800000021B8
:1039B0001C031E211E0000F00888700000001E215C
:1039C00023241927211010160E000000000000000B
:1039D000000000000000000000E0180402000000E9
:1039E00000071820400000020418E000000000401A
:1039F000201807000000404080F080404000020294
:103A0000010F01020200000000F0000000000101AF
:103A1000011F01010100000000000000000080B053
:103A20007000000000000000000000000000000125
:103A30000101010101010000000000000000003050
:103A400030000000000000000000806018040060EA
:103A500018060100000000E010080810E000000F48
:103A6000102020100F00001010F8000000000020AF
:103A7000203F2020000000700808088870000030F7
:103A8000282422213000003008888848300000189F
:103A9000202020110E000000C02010F800000007B8
:103AA0000424243F240000F808888808080000192E
:103AB000212020110E0000E0108888180000000F5F
:103AC000112020110E0000380808C8380800000036
:103AD000003F000000000070880808887000001C8B
:103AE000222121221C0000E010080810E000000044
:103AF000312222110F00000000C0C00000000000B1
:103B000000303000000000000080000000000000D5
:103B100080600000000000008040201008000001CC
:103B2000020408102000404040404040400004048F
:103B30000404040404000008102040800000002059
:103B4000100804020100007048080808F000000096
:103B5000003036010000C030C828E810E000071827
:103B6000272423140B000000C038E0000000203C94
:103B700023020227382008F8888888700000203F38
:103B8000202020110E00C03008080808380007184F
:103B900020202010080008F808080810E000203F46
:103BA000202020100F0008F88888E8081000203F27
:103BB00020202320180008F88888E8081000203FFB
:103BC000200003000000C030080808380000071873
:103BD0002020221E020008F808000008F808203FF4
:103BE000210101213F20000808F8080800000020FA
:103BF000203F2020000000000808F8080800C080CE
:103C000080807F00000008F888C028180800203F46
:103C100020012638200008F8080000000000203F9E
:103C200020202020300008F8F800F8F80800203F95
:103C3000003F003F200008F830C00008F808203F8F
:103C4000200007183F00E01008080810E0000F10DF
:103C5000202020100F0008F808080808F000203F76
:103C6000210101010000E01008080810E0000F1811
:103C7000242438504F0008F8888888887000203F36
:103C80002000030C30200070880808083800003835
:103C9000202121221C00180808F80808180000003C
:103CA000203F2000000008F808000008F808001F66
:103CB000202020201F000878880000C83808000055
:103CC00007380E010000F80800F80008F800033C6F
:103CD0000700073C03000818688080681808203037
:103CE0002C03032C30200838C800C8380800000016
:103CF000203F2000000010080808C83808002038BD
:103D0000262120201800000000FE02020200000010
:103D1000007F40404000000C30C000000000000068
:103D200000010638C00000020202FE000000004050
:103D300040407F0000000000040202020400000076
:103D40000000000000000000000000000000808073
:103D5000808080808080000202040000000000005B
:103D6000000000000000000080808080000000193A
:103D7000242222223F2008F8008080000000003F1B
:103D8000112020110E000000008080800000000E35
:103D9000112020201100000000808088F800000E13
:103DA000112020103F200000808080800000001F34
:103DB000222222221300008080F0888888180020A8
:103DC000203F202000000000808080808000006B69
:103DD00094949493600008F8008080800000203F55
:103DE000210000203F200080989800000000002063
:103DF000203F20200000000000809898000000C0B4
:103E00008080807F000008F8000080808000203FD4
:103E100024022D302000000808F8000000000020D7
:103E2000203F202000008080808080808000203F14
:103E300020003F20003F8080008080800000203FE5
:103E4000210000203F200000808080800000001FB3
:103E5000202020201F00808000808000000080FF44
:103E6000A12020110E000000008080808000000E44
:103E7000112020A0FF808080800080808000202092
:103E80003F212000010000008080808080000033FE
:103E9000242424241900008080E080800000000099
:103EA000001F202000008080000000808000001F94
:103EB000202020103F208080800000808080000132
:103EC0000E300806010080800080008080800F3066
:103ED0000C030C300F0000808000808080000020E8
:103EE000312E0E3120008080800000808080808113
:103EF0008E70180601000080808080808000002184
:103F0000302C2221300000000000807C02020000E2
:103F10000000003F404000000000FF0000000000E3
:103F20000000FF0000000002027C80000000004052
:103F3000403F0000000000060101020204040000EE
:103F40000000000000000000000000000000000071
:103F50000000000000000000000000000000000061
:103F6000000000000000000000000000000000F061
:103F7000F0F0000000000000000000017F010000E0
:103F8000000000000000001C1C1C000000000000DD
:103F90008060301C8C60301C0C00000000000000B1
:103FA0000000000000000000000000000000000011
:103FB0000000000000E00000000000E000000086BB
:103FC000E69F86868686E69F860000011F01010126
:103FD00001011F010100000080C06020F820E0C046
:103FE0000000000003070C18FF70E18100000000D2
:103FF000070F10107F100F07000080602060800006
:104000000000E02000000F3020309F70DC371030BF
:10401000C0000000100E0300071810180700000071
:10402000C02020E0C0000000000080E01F38E887CA
:1040300003C43C040000070F1810100B070D1010EC
:10404000080000808C4C38000000000000000000D8
:104050000000000000000000000000000000000060
:1040600000000000000000000000000080E03008B8
:1040700004000000000000FEFF010000000000003E
:1040800000000000030F1820400000040830E0800A
:104090000000000000000000000001FFFE00000022
:1040A0000000004020180F03000000000000000086
:1040B00000000000C00000000000004266663C18DE
:1040C000FF183C666642000000000000030000008C
:1040D0000000000000000000800000000000001050
:1040E00010101010FF101010101000000000000041
:1040F00003000000000000000000000000000000BD
:10410000000000000000000000000000000000802F
:104110008C4C38000000000000000000000000008F
:1041200000000000000000101010101010101010FF
:10413000100000000000000000000000000000006F
:10414000000000000000000000000000000000006F
:1041500000000000000000001C1C1C00000000000B
:1041600000000000000000000000E0380C0000002B
:10417000000080701C03000000000060380E010089
:10418000000000000000000080C060202060C080AF
:10419000000000FEFF010000000001FFFE00000122
:1041A000070E181010180E0701000000808080C054
:1041B000E000000000000000000000FFFF00000021
:1041C000000000001010101F1F10101000000080D1
:1041D000402020202060C0800000000303008040B9
:1041E00020381F070000001C1A1918181818181F6B
:1041F00000000080C020202060C08000000000037C
:1042000003001010182FE780000000070F10101097
:1042100010180F070000000000000000C0E0F000D0
:10422000000000C0B088868180FFFF808000000011
:1042300000000010101F1F1010000000E060606000
:1042400060606060000000003F1008080818F0E09F
:10425000000000070B101010101C0F0300000000DE
:1042600080C040202020E0C0000000FCFF2110089A
:10427000080818F0E0000001070C18101010080FD3
:1042800003000000C0E06060606060E0600000006B
:1042900003000000E0180700000000000000001FFD
:1042A0001F00000000000080C0602020202060C0AF
:1042B00080000087EF2C1818303068CF830000078B
:1042C0000F0810101010180F07000000C0C02020A9
:1042D0002020C0800000001F3F604040402010FFB1
:1042E000FE0000000C1C101010080F03000000005E
:1042F0000000000000000000000000000000000EB0
:104300000E0E0000000000000000001C1C1C00003D
:10431000000000000000000000000000000000009D
:104320000000000C0C00000000000000000000581D
:104330003800000000000000000000000080402065
:10434000100000001028448201000000000000005E
:10435000000000000102040810000000000000003E
:1043600000000000000000848484848484848484A9
:1043700084000000000000000000000000000000B9
:10438000102040800000000000000000000000003D
:1043900001824428100000001008040201000000FF
:1043A000000000C020201010101030E0C0000003FA
:1043B000030000F010080C070300000000001C1CA4
:1043C0001C0000000000000000C0406020202040D1
:1043D000C00000FCFF01F00E03C1FE03807F00015E
:1043E000070E08111110110904020000000080E0FE
:1043F000E000000000000000807C4340477FF88020
:10440000000010181F1000000000131F1C1020E0F7
:10441000E02020202060C080000000FFFF1010106E
:1044200010182FE78000101F1F1010101010180F09
:104430000700000080C0402020202060E00000FC39
:10444000FF0100000000000001000001070E18102D
:1044500010100804030020E0E02020202040C0804D
:10446000000000FFFF000000000001FFFE00101F21
:104470001F10101018080E07010020E0E020202077
:1044800020202060800000FFFF101010107C000032
:104490000000101F1F10101010101018060020E050
:1044A000E020202020206060800000FFFF1010101E
:1044B000107C00000100101F1F1000000000000011
:1044C0000000000080C06020202040E0000000FCD0
:1044D000FF0100004040C0C140400001070E18101D
:1044E00010100F0F000020E0E0200000000020E08E
:1044F000E02000FFFF101010101010FFFF00101F31
:104500001F1000000000101F1F100000202020E0DE
:10451000E020202000000000000000FFFF0000005D
:10452000000000001010101F1F10101000000000ED
:104530000000202020E0E0202020000000000000FB
:1045400000FFFF0000000060E0808080C07F3F002F
:10455000000020E0E020000020A06020200000FFFC
:10456000FF30187CE3C000000000101F1F10000087
:1045700001131F1C181020E0E020000000000000C4
:10458000000000FFFF000000000000000000101FFE
:104590001F10101010101018060020E0E0E00000BE
:1045A0000000E0E0E02000FF013FFEC0E01E01FF50
:1045B000FF00101F1000031F0300101F1F1020E03A
:1045C000E0C0000000000020E02000FF0003071C06
:1045D00078E08000FF00101F100000000000030FB3
:1045E0001F00000080C060202060C080000000FE2E
:1045F000FF010000000000FFFE000001070E181080
:1046000010180C07010020E0E0202020202060C0CE
:10461000800000FFFF2020202020301F0F00101FEF
:104620001F100000000000000000000080C060209B
:104630002060C080000000FEFF010000000000FFBD
:10464000FE000001070E1111133C7C67210020E0E1
:10465000E0202020202060C0800000FFFF101030EC
:10466000F0D0080F0700101F1F10000000030F1CE0
:1046700010100080C060202020204040E000000793
:104680000F0C1818303060E08100001F0C0810106B
:104690001010180F07008060202020E0E02020206C
:1046A00060800100000000FFFF000000000100002A
:1046B0000000101F1F100000000020E0E02000009C
:1046C00000000020E02000FFFF00000000000000CC
:1046D000FF0000070F1810101010100807002060CE
:1046E000E0E02000000020E060200000077FF8806C
:1046F00000807C03000000000000071F1C07000072
:10470000000020E0E02000E0E0200020E0200007A2
:10471000FFF8E01FFFFCE01F00000000031F030084
:10472000011F03000000002060E0A0000020E06006
:104730002000000000038F7CF8C60100000000107C
:10474000181E130001171F1810002060E0E0200061
:10475000000020E06020000001073EF8E01807009C
:10476000000000000010101F1F101000000000804B
:104770006020202020A0E0E0200000000000C0F029
:104780003E0F0300000000101C1F1710101010181F
:1047900006000000000000FC040404040400000003
:1047A000000000FF00000000000000000000007F8B
:1047B000404040404000000010E0000000000000C9
:1047C000000000000000031C6080000000000000EA
:1047D0000000000000030C708000000004040404CA
:1047E00004FC0000000000000000000000FF0000CA
:1047F0000000000040404040407F000000000000FA
:104800000010080C040C081000000000000000005C
:104810000000000000000000000000000000000098
:104820000000000000000000000000000000000088
:104830000000000000000000000080808080808078
:104840008080808080800000000404080800000050
:104850000000000000000000000000000000000058
:104860000000000000000000000000000000000048
:10487000000000000000000098D844642424FCF8E4
:104880000000000F1F18101010081F1F1018002024
:10489000E0F000000000000000000000FFFF18082A
:1048A00004040CF8F00000001F0F18101010180F6F
:1048B000030000000000000000000000000000E015
:1048C000F8180404043C3800000000030F0C10101A
:1048D0001010080600000000000000000020E0F0BA
:1048E000000000E0F81C04040408FFFF00000003BF
:1048F0000F18101010081F0F080000000000000023
:104900000000000000000000E0F8484444444C78F7
:1049100070000000030F0C181010100804000000B5
:10492000000080C0602020E0C00000040404FFFFFD
:10493000040404040000000010101F1F10101000D9
:104940000000000000000000000000000000000067
:1049500070F88C04048CF874040C007076CF8D8D84
:104960008D89C87870000020E0F000000000000091
:1049700000000000FFFF08040404FCF80000001021
:104980001F1F100000101F1F10000000000000601B
:104990006000000000000000040404FCFC000000B3
:1049A000000000001010101F1F1010100000000069
:1049B000000000000060600000000000000004042F
:1049C00004FCFC0000000000C0C08080C07F3F00ED
:1049D00000000020E0F000000000000000000000E7
:1049E000FFFF80C0F41C0404000000101F1F110012
:1049F000031F1C1010000000202020E0F000000029
:104A000000000000000000FFFF00000000000000A8
:104A10001010101F1F1010100000000000000000F8
:104A200000000000000004FCFC0804FCFC0804FC7E
:104A3000FC00101F1F10001F1F10001F1F10000080
:104A4000000000000000000000000004FCFC08085A
:104A50000404FCF8000000101F1F100000101F1FAE
:104A6000100000000000000000000000000000E056
:104A7000F0180C04040C18F0E00000030F0C1010E8
:104A800010100C0F030000000000000000000000E8
:104A900000000004FCFC080404040CF8F000008092
:104AA000FFFF889010101C0F0300000000000000A2
:104AB00000000000000000E0F81C04040408F8FCFA
:104AC000000000030F1810109088FFFF8000000006
:104AD00000000000000000000000040404FCFC10C2
:104AE0000804040C0C001010101F1F101010000000
:104AF00000000000000000000000000000000000B6
:104B00003078CCC48484840C1C0000001E18101063
:104B10001011190F06000000000000C00000000086
:104B2000000000040404FFFF04040400000000006F
:104B300000000F1F1010100C00000000000000000B
:104B40000000000000000004FCFE00000004FCFE69
:104B5000000000000F1F181010081F0F08000000B1
:104B60000000000000000000000000040C3CFCC439
:104B70000000C43C0C0400000000010F1E0E0100E8
:104B80000000000000000000000000000000043CE5
:104B9000FCC400E47CFC84807C040000071F070048
:104BA00000071F07000000000000000000000000D8
:104BB00000000004041C7CE4C0341C040400001049
:104BC000101C1601131F1C1810000000000000002C
:104BD00000000000000000040C3CFCC400C43C04C5
:104BE00004000000C080C1370E010000000000007A
:104BF0000000000000000000000000001C0404C4CD
:104C0000F47C1C0400000000101C1F171110101869
:104C10000E0000000000000000F80C04000000007E
:104C20000000001028EF000000000000000000005D
:104C3000003F60400000000000000000FF00000096
:104C40000000000000000000FF0000000000000065
:104C500000000000FF00000000000000040CF8004D
:104C600000000000000000000000EF28100000001D
:104C70000000000040603F0000000000000000183D
:104C80000602020408102020300800000000000086
:104C90000000000000000000000000000000000014
:104CA00000000000F010101010FF10101010F000A5
:104CB000000000000F04040404FF040404040F00B7
:104CC00000004040405F555555755555555F404073
:104CD00040000040200F094989790909090F204047
:104CE000000000FE02424ACA4A4ACA4A4A4202FE3A
:104CF000000000FF40504C4340404F50505C40FF8C
:104D000000000000F888888888FF88888888F80074
:104D1000000000001F080808087F888888889F8096
:104D2000F00080828282828282E2A2928A868280DF
:104D30008000000000000040807F000000000000B4
:104D40000000101010FF109008888888FF8888885D
:104D500008000444827F01808040432C1028468153
:104D600080000010101010D030FF30D0121C101036
:104D7000000010080402010000FF00000102040806
:104D8000100004040484E43C2724242424E40404C0
:104D9000040004020100FF0909090949897F000094
:104DA000000000FE225A8600FE9292929292FE002D
:104DB000000000FF04080700FF4020030C142241FC
:104DC0004000008040201806800007182040800026
:104DD00000000100207028262120202438600001D6
:104DE0000100001012929292929292121202FE0010
:104DF00000000000003F101010103F0040807F00B6
:104E00000000000000C080808080808080FC848062
:104E10008080808080C0C0000000000000FF7F40D4
:104E20004040404040FF40404040404040FF7F0005
:104E3000000000000000000000000000007F700083
:104E40000000000000000000000000000000000062
:104E5000000000000000000000FCF800000000005E
:104E60000000000000000000000000000000FFFE45
:104E7000020202020202020202FFFF020202020218
:104E800002020202FF0300000000000000001F1FDA
:104E9000040404040404040404FFFF0404040404DC
:104EA000040404041F0000000000000000000000D3
:104EB0000000000000000000007F3F000000000034
:104EC00000000000000000000000000000000000E2
:104ED00000000000000000000000000000000000D2
:104EE00000000000000000F8F8F0F0702000000062
:104EF00000000000000000000000000000000000B2
:104F000000000000000000000000000000000000A1
:104F10000000800000000000000000000000000011
:104F200000000000000000FFFFFFFF000000000085
:104F30000000000000000000000000000000808071
:104F40000000000000000000000000000000000061
:104F5000000000FFFFFE0606060606060606060619
:104F600006060606060606FFFFFFFF0606060606FD
:104F700006060606060606060606060606FFFFFFE6
:104F8000FF07020000000000000000000000000019
:104F9000000000FFFFFF0000000000000000000014
:104FA00000000000000000FFFFFFFF000000000005
:104FB00000000000000000000000000000FFFFFFF4
:104FC000FF000000000000000000000000000000E2
:104FD000000000FFFFFF18181818181818181818E4
:104FE00018181818181818FFFFFFFF1818181818A5
:104FF00018181818181818181818181818FFFFFF7C
:10500000FF000000000000000000000000000000A1
:10501000000002010100000000000000000000008C
:1050200000000000000000FFFFFFFF000000000084
:10503000000000000000000000000000000101006E
:105040000000000000000000000000000000000060
:105050000000000000000000000000000000000050
:1050600000000000000000FFFFFFFF000000000044
:105070000000000000000000000000000000000030
:105080000000000000000000000000000000000020
:105090000000000000000000000000000000000010
:1050A000000000000000001F1F0F0F0000000000A4
:1050B00000000000000000000000000000000000F0
:1050C000000000000000000000000000EC5000089C
:1050D000000000201C08000028010008E852000819
:1050E0001C0800209C0B00008C01000840120003EB
:1050F000050911FF118905C300E000F000F8000167
:1051000000083A4428FF11AA440001500B830138DB
:10511000448292927401831120087C44FF017D7DBA
:105120007D04410540047D01FF6E920102613F0351
:105130003B01017E81419149F20101011BC230080E
:105140003F3F0303F3131101100601F11161814088
:105150002005816111F14733414107200401C1213C
:1051600020A321C11431193137040736D333030387
:105170003F3F426006E0E000007FA8127FBF40048E
:105180000618060A1008000040407F4040A41004A2
:105190001F204001A3201F143300600E6004300C58
:1051A00003460534C210040707060170090404040D
:1051B00084444444840780050484C4041501120A0D
:1051C00071112140073D0707C9200F000010181476
:1051D000121100000F1010100F0F131F1015600D8B
:1051E000081012120D00001800000D120A5129516A
:1051F00030015E01528001013B4514047F030CA97C
:1052000015DE1C05385454582503080A2004047878
:1052100000003C40407C2000092CFFAAAAAA2808D4
:1052200000FF68100626494949321010050204089B
:10523000100F0D6F00049D01040D9D0004156343C4
:10524000F80801240500F81860E824048060182399
:105250005720202923E01021A310E01449B431394C
:1052600008043C886818630D15FF037DEA039DFF61
:105270000371144DFF031D06043D2E040942E91C71
:105280000640202020C04A04110721EA3E40520473
:1052900052600E8118712951070D4769031C060CD5
:1052A0000A0A090C0004156B2D00042004080F08DD
:1052B0001510050809090E071D180430050909090C
:1052C0000F0A512951070DFF00040D2200045C0A4A
:1052D0000102030405060708096B053D8F031DFD48
:0852E0000600040024F40000A4
:04000005080000ED02
:00000001FF
