:020000040800F2
:10000000F81A0020690200087B250008E922000890
:1000100079250008D5050008152C0008000000000F
:10002000000000000000000000000000C5270008DC
:10003000A906000800000000AD250008C727000839
:10004000830200088302000883020008830200087C
:10005000830200088302000883020008830200086C
:10006000830200088302000883020008830200085C
:10007000F1050008830200088302000883020008DB
:10008000830200088302000883020008830200083C
:10009000D9050008830200088302000883020008D3
:1000A000830200088302000883020008830200081C
:1000B00083020008712800088302000883020008F8
:1000C00083020008830200088302000883020008FC
:1000D000830200088302000883020008BD2A00088A
:1000E00083020008830200088302000883020008DC
:1000F00083020008830200088302000883020008CC
:1001000083020008830200088302000883020008BB
:1001100083020008830200088302000883020008AB
:1001200083020008FD050008090600088302000894
:10013000830200088302000883020008830200088B
:10014000E505000883020008830200088302000816
:10015000830200081506000821060008812B00080C
:10016000830200088302000883020008830200085B
:1001700083020008830200088302000800000000D8
:10018000830200088302000800F002F800F05CF827
:100190000AA090E8000C82448344AAF10107DA45E2
:1001A00001D100F051F8AFF2090EBAE80F0013F0D8
:1001B000010F18BFFB1A43F0010318472C3400004D
:1001C0004C3400000A444FF0000C10F8013B13F0CF
:1001D000070408BF10F8014B1D1108BF10F8015BA0
:1001E000641E05D010F8016B641E01F8016BF9D193
:1001F00013F0080F1EBF10F8014BAD1C0C1B09D1EA
:100200006D1E58BF01F801CBFAD505E014F8016B5B
:1002100001F8016B6D1EF9D59142D6D370470000ED
:100220000023002400250026103A28BF78C1FBD8FF
:10023000520728BF30C148BF0B6070471FB503F09D
:10024000B9F91FBD10B510BD00F06DF91146FFF7EB
:10025000F5FF02F01DFF00F08BF903B4FFF7F2FF8A
:1002600003BC00F08FF900000948804709480047A7
:10027000FEE7FEE7FEE7FEE7FEE7FEE7FEE7FEE756
:10028000FEE7FEE704480549054A064B70470000B3
:100290006128000889010008F8140020F81A0020DD
:1002A000F8160020F816002053EA020C00F06980CE
:1002B0002DE9F04B4FF00006002B1FBFB3FA83F57A
:1002C00003FA05F424FA05F65E4012BF1643B2FAAB
:1002D00082F502FA05F4C5F120051EBF22FA05FCDD
:1002E00044EA0C04203556EA044C4FEA144418BF83
:1002F000641C4FF000084FF00009904271EB030CB2
:1003000039D3002919BFB1FA81F701FA07F6B0FA1B
:1003100080F700FA07F6C7F120071EBF20FA07FC96
:1003200046EA0C062037B6FBF4FCA7EB0507103FA6
:1003300007F01F0BCBF120060CFA0BFB2CFA06F68C
:1003400044BFB3460026202FA4BF5E464FF0000BEB
:100350005BEA060C08BF4FF0010B19EB0B09ABFB76
:10036000027C48EB0608C01B06FB02CC0BFB03CC4F
:1003700071EB0C01C1E70B46024641464846BDE819
:10038000F08B13B54FF000004FF00001AFF3008089
:10039000BDE81C407047032A40F2308010F0030C87
:1003A00000F0158011F8013BBCF1020F624498BFC8
:1003B00011F801CB00F8013B38BF11F8013BA2F165
:1003C000040298BF00F801CB38BF00F8013B11F0E0
:1003D000030300F07180083AC0F0088051F8043B34
:1003E000083A51F804CBA0E80810F5E7121D5CBFED
:1003F00051F8043B40F8043BAFF30080D20724BF20
:1004000011F8013B11F801CB48BF11F8012B24BFB3
:1004100000F8013B00F801CB48BF00F8012B704702
:100420004FF000020429C0F0128010F0030C00F01D
:100430001B80CCF1040CBCF1020F18BF00F8012B9B
:10044000A8BF20F8022BA1EB0C0100F00DB85FEA69
:10045000C17C24BF00F8012B00F8012B48BF00F835
:10046000012B70474FF0000200B5134694469646A4
:10047000203922BFA0E80C50A0E80C50B1F12001B7
:10048000BFF4F7AF090728BFA0E80C5048BF0CC065
:100490005DF804EB890028BF40F8042B08BF7047C3
:1004A00048BF20F8022B11F0804F18BF00F8012B35
:1004B000704770477047704710B5203AC0F00B8006
:1004C000B1E81850203AA0E81850B1E81850A0E858
:1004D0001850BFF4F5AF5FEA027C24BFB1E81850B2
:1004E000A0E8185044BF18C918C0BDE810405FEA22
:1004F000827C24BF51F8043B40F8043B08BF70479E
:10050000D20728BF31F8023B48BF11F8012B28BFA2
:1005100020F8023B48BF00F8012B704700487047A5
:100520009814002070477546FFF7F8FFAE460500A7
:100530006946534620F00700854618B020B5FFF7FE
:10054000A1FEBDE820404FF000064FF000074FF03D
:1005500000084FF0000B21F00701AC46ACE8C009E1
:10056000ACE8C009ACE8C009ACE8C0098D467047EA
:1005700010B50446AFF300802046BDE81040FFF7F9
:100580006CBE000001491820ABBEFEE72600020049
:100590009FED0E0AF2EE020A80ED050A80ED060AD2
:1005A00080ED000AC0ED040A80ED010ADFED080AC3
:1005B00080ED020AC0ED030A80ED070A80ED080A0B
:1005C00080ED090A80ED0A0A704700000000000073
:1005D0000000F042FEE70000014800F0DAB9000038
:1005E00050010020014800F0D4B90000780100203B
:1005F000014800F04FBD000074030020014800F0E6
:1006000049BD0000D4030020014800F043BD0000B4
:10061000B4020020014800F03DBD00003404002079
:10062000014800F037BD00001403002001681823C2
:10063000CAB2103AB2FBF3F2054B6FF30901032A79
:100640009B5CC36500D9091D8165084670470000A1
:10065000C835000810B5014600208B698A6A4FF042
:10066000C07453B1B3F5005F15D072B1012A0CD03C
:10067000022A0AD0032A09D104E01AB1012A06D0BD
:10068000022A03D1C96AC90100D5012010BDC96A77
:10069000A142FAD010BD002AF7D0012AF2D0022AD6
:1006A000F3D0032AF3D010BD704772B6FEE790F87E
:1006B0002020012A07D0022A05D0416A41F4802176
:1006C000416201207047006842690A43426100208C
:1006D0007047F0B590F820500468A468012D05D04B
:1006E000022D03D0416A41F4802153E014F0406FA1
:1006F00001D1E5004BD5C4F30164022C03D9416A52
:1007000041F4000146E00125A5401D608D684FF4CD
:10071000C0739DB1CE6835434E6845EAC60506688C
:1007200003EB0417F5514FF4C275076805EB041588
:100730000E697E51097D012905D009E00E88CD683A
:1007400045EA4655EBE701684E5946F480764E512E
:100750001179D2F805504FF4C67641EA05250168B3
:1007600006EB04168D511178D2F801204FF4C475B0
:1007700041EA0221026805EB04155151006803EBC0
:100780000411425842F0010242500020F0BD416A7B
:1007900041F4001141620120F0BD000010B590F855
:1007A0002020012A07D0022A05D0416A41F4802185
:1007B0004162012010BD3B48D0F8002242F0010206
:1007C000C0F80022D0F8002222F47C52C0F80022A7
:1007D000D0F800224B6A42EA0322C0F800220A7DC8
:1007E00002F01F0301229A40D0F81C329343C0F854
:1007F0001C32CB69B3B9D0F80C329343C0F80C3239
:100800008C894B6864F31F434C6900EBC404C4F843
:1008100040320C890B6864F31F434C6900EBC4043D
:10082000C4F84432CB69012B16D1D0F80C321343F3
:10083000C0F80C320C884B6864F31F434C6900EB22
:10084000C404C4F840320C89CB6864F31F434C697C
:1008500000EBC404C4F844328B69002BD0F8043296
:100860000ED01343C0F804320B69002BD0F81432B9
:1008700008D01343C0F81432096A012904D008E0F3
:100880009343EFE79343F5E7D0F81C121143C0F808
:100890001C12D0F8001221F00101C0F80012002053
:1008A00010BD000000640040704730B590F8204053
:1008B000012C05D0022C03D0416A41F480215DE077
:1008C0000468002955D02469A40754D04FF4D87483
:1008D000056804EB01142D5915F0040595600568B1
:1008E0002D594ED0ED08556005682C5904F00204CE
:1008F000D4604FF4DA74056804EB01142D5905F047
:100900000F05156105682D59C5F307259561056823
:100910002C59240C54614FF4DC72046802EB011270
:10092000A4581C700468A458240A5C700468A45875
:10093000240C9C700468A258120EDA704FF4DE7218
:10094000046802EB0112A4581C710468A458240A1C
:100950005C710468A458240C9C710468A258120E9F
:10096000DA71006881B1016941F020010161002064
:1009700030BDE468A8E7416A41F4001141620120FA
:1009800030BD6D0D1560AFE7C16841F02001C16059
:10099000EDE72DE9F05F0546006800244669D0F8D0
:1009A00004908768D0F80CB0D0F810A0D0F8188068
:1009B000F10748D0F90714D001218160B80703D5A9
:1009C000284600F060FB0CE0780702D54FF4006485
:1009D00007E0380702D54FF4805402E0284600F0C3
:1009E00051FBF80516D529684FF480708860B8056A
:1009F00003D5284600F049FB0CE0780502D544F405
:100A0000005407E0380502D544F4804402E028464B
:100A100000F03AFBF80316D529684FF4803088605F
:100A2000B80303D5284600F032FB0CE0780302D56A
:100A300044F4004407E0380302D544F4803402E073
:100A4000284600F023FB300707D55FEACB6004D5CA
:100A50002968102044F40074C86070074FF008073C
:100A600007D55FEA0B7004D52868C760284600F0F8
:100A700099F9B00706D52868C068800702D02846D3
:100A800000F092F9700607D55FEACA6004D52968BC
:100A9000102044F480640861B00607D55FEA0A704C
:100AA00004D528680761284600F0BCFAF00606D590
:100AB00028680069800702D0284600F0B4FAB00325
:100AC00008D55FEAC96005D5296810204860284626
:100AD00000F0AAFAF00307D55FEA097004D5286888
:100AE0004760284600F0D4FA300446D55FEA4970E2
:100AF00040D5F00504D55FEAC87001D044F0010488
:100B0000B00504D55FEA887001D544F00204700591
:100B100004D55FEA487001D544F00404300529D5B6
:100B200018F0700F26D008F07000402815D006DCB1
:100B3000102809D020280AD0302816D10AE05028E1
:100B40000ED0602811D10EE044F008040DE044F00E
:100B500010040AE044F0200407E044F0400404E0FC
:100B600044F0800401E044F480742868816921F035
:100B700070018161296804204860002C05D0686AF2
:100B8000204368622846FFF78FFEBDE8F09F70B5EE
:100B9000040003D094F8200010B104E0012070BDDF
:100BA000204600F081F82068016841F001010160F1
:100BB00000F0A2FC0546052604E000F09DFC401B69
:100BC0000A2811D820684068C007F6D0206801685C
:100BD00021F00201016000F08FFC05460BE000F0FF
:100BE0008BFC401B0A2806D9606A40F40030606222
:100BF00084F82060D2E7206840688007EFD4207E28
:100C00000128206801683DD021F080010160607EEC
:100C100001282068016838D021F040010160A07EE1
:100C200001282068016833D021F020010160E07EB6
:100C30000128206801682ED041F010010160207F5A
:100C400001282068016829D021F008010160607F37
:100C500001282068016824D021F004010160D4E952
:100C600002010843D4E90412114308436168491E94
:100C700008432168C86100206062012084F82000D8
:100C8000002070BD41F08001C0E741F04001C5E7A0
:100C900041F02001CAE721F01001CFE741F008013F
:100CA000D4E741F00401D9E7F0B587B00446142138
:100CB0006846FFF7D7FB364B3648DFF8D0E01968B7
:100CC000D4F800C0334A0325022609271030002437
:100CD000491CF44522D11960012907D1016841F06E
:100CE00000710160006800F000700590106840F02D
:100CF000080010601068CDE9005600F00800CDE94A
:100D0000047069462448CDE9024500F0FDFA00224E
:100D10000521142000F05EFC142032E0DFF87CE0B6
:100D2000F44530D1D0F800C04CF0806CC0F800C061
:100D3000D0F800C001290CF0806CCDF814C0196007
:100D400007D1016841F000710160006800F0007097
:100D50000590106840F002001060106802AB00F0CF
:100D6000020005906020CDE9000683E8B0006946E6
:100D70000B4800F0C9FA00220521402000F02AFCAF
:100D8000402000F019FC07B0F0BD000000640040F6
:100D90000000002030380240000C02400068004093
:100DA00000040240704700002DE9F0438C49012601
:100DB0002DED028B89B08B4CDFF82C9288427BD1D1
:100DC00007AB6A4600218648FFF76FFD07A802F0CF
:100DD0002FFA0746B0F90000B7F9022000EE100A1A
:100DE0000098B7F90430B8EEC00A40F20325A0F22B
:100DF0000321A8423DD00EDC03285ED0A0F5007090
:100E000001385AD0012852D1BCEEC00A10EE100AA7
:100E100081B2764857E0012932D0062947D1BCEE8D
:100E2000C00A154610EE100A94ED070A1FFA80F862
:100E300084ED080A00EE108AF8EE400A9FED6C8AF5
:100E400080EE880ADFED6B8A20EE280A84ED070A1F
:100E5000E363A06B284402F098FA9FED671B53EC04
:100E6000112B02F0A9FA02F05FFA2063E06870B17A
:100E700018E0BCEEC00A10EE100A81B2604822E011
:100E8000BCEEC00A10EE100A81B25E481BE000EE14
:100E9000108AB8EE400AC0EE080A20EEA80A84EDD7
:100EA000000AE660A563B7F90210C9F8341009B06A
:100EB000BDEC028BBDE8F08308E0BCEEC00A10EE8A
:100EC000100A81B2504802F043F8F0E74F498842D7
:100ED000EDD107AB6A4600214C48FFF7E6FC4C4DCC
:100EE00008B10320A86007A802F0A2F90099072919
:100EF00014D00629DBD1B0F90010A9609DF820209C
:100F000089F80920434A9DF9217048461770424AE2
:100F10009DF92230012913700ED011E0018829803B
:100F200042886A808388AB80B0F90600206448421A
:100F3000288050426880BAE7EA68022A00D1266118
:100F4000E960022925D194ED070A344A10EE101AFF
:100F50001144334A91421CD2698A00EE901AF8EE8D
:100F6000600A70EE600AF5EEC00AF1EE10FA02DDDA
:100F700084F828610DE000EE901AF8EE600A30EE79
:100F8000600AB5EEC00AF1EE10FA02D2022184F82E
:100F90002811012F01D0012B89D11B4D134A184C68
:100FA000184967B10378BBB9EB6A6B60D36A5360C9
:100FB000E26A6260CA6A4A6089F800600CE05BB16C
:100FC00043784BB9EB6AAB60D36A9360E26AA26084
:100FD000CA6A8A6089F8016001F034FF67E700009F
:100FE0005001002058090020FC000020D4050020FA
:100FF00000F8FF450000B443000000000000E03F9F
:10100000000700202C080020A80400207801002000
:10101000940400200500002006000020FFFF5FBFB1
:10102000FFFF1303704770477047000070B5044618
:1010300090F82000012804D0606A40F4002060622B
:1010400018E0022084F820002068016821F00101E6
:10105000016000F051FA05460EE000BF00F04CFAC6
:10106000401B0A2808D9606A40F4003060620520FD
:1010700084F82000012070BD20684068C007EDD1D1
:10108000606270BD70477047704770477047704727
:10109000704700002DE9F84304464FF00009CDF8F1
:1010A000009063484FF41651A56D0068B0FBF1F74E
:1010B0002E6894F85C10082000FA01F131420FD03C
:1010C00021680A6852070BD50A6822F004020A60F8
:1010D00094F85C108840A860606D40F00100606585
:1010E00094F85C104FF0010808FA01F0304208D083
:1010F00021684969090604D5A860606D40F00200C6
:10110000606594F85C1004208840304208D0216863
:101110000968890704D5A860606D40F00400606527
:1011200094F85C1010208840304218D0216809687B
:10113000090714D5A86020680168490304D5006830
:10114000000308D5A16C07E00168C90503D4016854
:1011500021F008010160216C09B12046884794F80C
:101160005C1020208840304231D021680968C906CF
:101170002DD5A86094F8350005282068016806D0B0
:10118000490347D5006800031DD4616C1CE021F0C1
:10119000160101602068416921F080014161206CE5
:1011A00008B9A06C20B12068016821F00801016035
:1011B00094F85C103F208840A86084F8358084F85B
:1011C0003490216D1FE0E16B09B120468847606DC6
:1011D00000282BD0606DC00714D0052084F835009E
:1011E0002068016821F0010101600098401C009016
:1011F000B84203D820680068C007F6D184F835806B
:1012000084F83490E16C002910D001B02046BDE88C
:10121000F04308470168C905D5D4016821F01001E1
:10122000016084F8358084F83490CCE7BDE8F88319
:101230004C0100202DE9F041044600F05DF906461E
:101240005CB1022084F83500002584F83450206811
:10125000016821F0010101600DE00120BDE8F0818D
:1012600000F04AF9801B052805D92020606503207D
:1012700084F83500F2E720680068C007F0D12268E2
:10128000116820480140D4E901031843D4E903362A
:101290003343184363691843A3691843E369184348
:1012A000236A18430843616A042903D1D4E90B1364
:1012B00019430843106020684069666A20F00701FE
:1012C00030460E43012704280CD1A06A0643E06A89
:1012D00040B12046FFF7BEF920B14020606584F898
:1012E0003570BAE7206846612046FFF79FF994F809
:1012F0005C203F2191408160656584F83570002055
:10130000ACE700003F8010F02DE9F84FDFF8BCA1FA
:10131000002201250AF1040B03264FF00F090BF1FF
:10132000040E00BF0B6805FA02F42340A34270D1FB
:101330000F7907F00307012F01D0022F16D187681C
:101340004FEA420806FA08FC27EA0C07D1F80CC05D
:101350000CFA08FC4CEA070CC0F808C04768A74321
:101360000C79C4F3001494403C4344600C79E4438A
:10137000A4070AD0C4684FEA420C06FA0CF7BC4333
:101380008F6807FA0CF72743C7600C7904F0030451
:10139000022C12D1D40800EB840CDCF82040570753
:1013A000FF0E09FA07F824EA0804D1F8108008FAB9
:1013B00007F848EA0408CCF8208004684FEA420C99
:1013C00006FA0CF7BC430F7907F0030707FA0CF78E
:1013D000274307604C6814F4403F70D03C4C2768AA
:1013E00047F480472760246822F0030704F4804410
:1013F0000094384C07EB040CDCF8084897074FEAD8
:10140000177809FA08F7BC43334FB84202D10027D6
:1014100024E054E0314FB84201D101271EE0304FA3
:10142000B84201D1022719E02E4FB84201D103275B
:1014300014E02D4FB84201D104270FE02B4FB842E2
:1014400001D105270AE02A4FB84201D1062705E05D
:10145000284FB84201D1072700E0082707FA08F70C
:101460002743CCF80878DAF800405746D1F804C092
:101470009C435FEACC3C00D51C433C60DBF8004059
:101480005F46D1F804C09C435FEA8C3C00D51C4306
:101490003C60DEF800407746D1F804C09C435FEA28
:1014A000CC2C00D51C433C60084F0C373C68D1F86D
:1014B00004C09C435FEA8C2C00D51C433C60521C4A
:1014C000102AFFF42FAFBDE8F88F0000003C014068
:1014D0004438024000300140000002400004024055
:1014E00000080240000C02400010024000140240BC
:1014F00000180240001C024001488068704700004C
:1015000040010020024881680278114481607047E0
:10151000400100200B4810B5016841F400710160E2
:10152000016841F480610160016841F480710160EB
:10153000032000F06FF80F2000F006F800F024F808
:10154000002010BD003C024070B50D4D04464FF424
:101550007A712878B1FBF0F00A490968B1FBF0F024
:1015600000F00CFB48B9102C07D200222146501E77
:1015700000F030F800206C6070BD012070BD0000EC
:10158000400100204C0100200A4808B5016841F4E0
:1015900080410160006800F4804000900548001F11
:1015A000016841F080510160006800F080500090B7
:1015B00008BD000044380240002809DB00F01F028B
:1015C000012191404009800000F1E020C0F80011A5
:1015D00070470000F0B40E4B1B680C46C3F30223A7
:1015E000C3F10705042D00D90425191D072901D2CF
:1015F000002300E0DB1E012606FA05F1491E21400A
:1016000099409E40761E16403143F0BC01F018BB55
:101610000CED00E0064900F0070208684FF6FF03F2
:10162000184040EA0220034A104308607047000057
:101630000CED00E00000FA052DE9F0470E4605002C
:1016400065D0DFF81481D8F80000F7B200F0070089
:10165000B04207D288F80070D8F8000000F0070008
:10166000B04254D128683D4C810712D5400703D5BC
:10167000206840F4E05020602878000703D52068F7
:1016800040F4604020602068A96820F0F000084322
:1016900020602878C0072DD03049686808390128B3
:1016A00012D0022813D0032811D009688907002915
:1016B0002DDA216821F0030101432160FFF71CFFAF
:1016C000814641F2883A0EE009688903EFE709682C
:1016D0008901ECE7FFF710FFA0EB0901514502D9A2
:1016E0000320BDE8F0872068696800F00C00B0EBCB
:1016F000810FEFD1D8F80010404601F00701B14248
:1017000007D90770006800F00700B04201D001203F
:10171000E7E72878400705D52068E96820F4E0501D
:10172000084320602878000706D52068296920F43E
:10173000604040EAC100206000F038F82168084AA3
:10174000C1F30311515CC8400649086006480068AF
:10175000FFF7FAFE0020C4E7003C024008380240D0
:10176000D03500084C010020440100200448054900
:1017700000680968044AC1F38221515CC84070477F
:101780004C01002008380240E035000804480549B3
:1017900000680968044AC1F34231515CC84070478F
:1017A0004C01002008380240E0350008154810B50B
:1017B000006810F00C02144813D01449042A0FD00A
:1017C000082A0ED10F4C241F2268236802F03F0222
:1017D0005B0207D52068C0F38810A0FB010106E07A
:1017E000084610BD2168C1F38811A1FB0001002348
:1017F000FEF75AFD2168C1F30141491C4900B0FBC5
:10180000F1F010BD083802400024F400001BB700BE
:101810002DE9F84F04006ED02078DFF84C93C00714
:10182000A9F104054AD009F104000168C1F381015E
:10183000012908D00068C0F3810002280AD1D9F834
:101840000000400206D52868800337D5606800286C
:10185000E1D033E06068B0F5803F10D0B0F5A02F44
:10186000286810D020F480302860286820F4802078
:1018700028606068A8B1FFF73FFE06460DE02868C3
:1018800040F48030F4E740F480202860F7E700BFA0
:10189000FFF732FE801B642873D828688003F7D5D1
:1018A0000CE0FFF729FE064605E000BFFFF724FE27
:1018B000801B6428F0D828688003F7D42078DFF8EC
:1018C000AC8280074FF0000A3ED5A748001D016892
:1018D00011F00C0F08D00068C0F3810002280BD172
:1018E000D9F80000400207D42868800716D5E068C0
:1018F000012800D112E033E1E068B8B10120C8F856
:101900000000FFF7F9FD064605E000BFFFF7F4FD14
:10191000801B0228C0D828688007F7D5286821696D
:1019200020F0F80040EAC10028600DE0C8F800A0EF
:10193000FFF7E2FD064604E0FFF7DEFD801B02280C
:101940001FD828688007F7D42078000722D5864F53
:1019500087486169703771B101210160FFF7CCFDE3
:10196000064604E0FFF7C8FD801B022809D8386846
:101970008007F7D50EE0C0F800A0FFF7BDFD0646D2
:1019800005E082E0FFF7B8FD801B02287DD83868AB
:101990008007F7D42078400768D5DFF8CCB100275E
:1019A0000BF13C0BDBF80000C0000BD4DBF800109F
:1019B00041F08051CBF80010DBF80000012700F067
:1019C000805000906B4E3068C00510D4306840F4F1
:1019D00080703060FFF790FD009005E0FFF78CFD10
:1019E0000099401A022850D83068C005F6D55E4EDE
:1019F000A0686C3601280FD00528306810D020F080
:101A000001003060306820F004003060A068B8B198
:101A1000FFF772FD00900FE0306840F00100F4E73E
:101A200040F004003060F7E7FFF766FD0099411AC7
:101A300041F28830814266D830688007F4D50EE0E4
:101A4000FFF75AFD009007E0FFF756FD0099411A95
:101A500041F28830814256D830688007F4D42FB1E3
:101A6000DBF8001021F08051CBF80010A069C8B35A
:101A70003D49091D0968C1F3810102294AD00228A4
:101A8000504607D0C8F8600000E03CE0FFF734FDA6
:101A900004463BE04746C8F86000FFF72DFD0646C8
:101AA00005E000BFFFF728FD801B02282BD828681F
:101AB0008001F7D4D4E907010843A16A2E4A4908F6
:101AC00002EB0141626A41EA8211084394F82C104A
:101AD00040EA0161C9F8001001203866FFF70CFDEB
:101AE000044606E03EE000BFFFF706FD001B0228AB
:101AF00009D828688001F7D534E000BFFFF7FCFC67
:101B0000001B022802D90320BDE8F88F2868800155
:101B1000F4D427E00128F7D0D9F80000E26900F4F6
:101B2000800191421CD1226A00F03F01914217D1FD
:101B300047F6C071626A0140B1EB821F10D1A26A00
:101B40004FF0FF3300F4403103EB5202B1EB024F90
:101B500006D194F82C1000F07060B0EB016F01D04A
:101B60000120D1E70020CFE70438024000004742BF
:101B7000800E4742007000400000FFFF10B5401E7D
:101B8000B0F1807F01D3012010BD4FF0E0246061EF
:101B90000F21601701F054F80020A0610720206198
:101BA000002010BD7047704770B590F83C20012AA6
:101BB00032D0012480F83C40022280F83D200368A6
:101BC0005A689D6822F070060A6832435A60134BC7
:101BD00002689A4214D0B2F1804F11D0104B9A4251
:101BE0000ED0104B9A420BD00F4B9A4208D00F4B9D
:101BF0009A4205D00E4B9A4202D00E4B9A4204D123
:101C0000496825F080031943916080F83D40002128
:101C100080F83C10084670BD022070BD00000140F5
:101C20000004004000080040000C00400004014097
:101C3000004001400018004010B5040003D094F8A3
:101C40003D0010B107E0012010BD002084F83C00E9
:101C5000204600F01FF8022084F83D00211D206876
:101C600000F00CFE012084F8460084F83E0084F861
:101C70003F0084F8400084F8410084F8420084F872
:101C8000430084F8440084F8450084F83D000020B7
:101C900010BD000008B500680B49884212D10B48FE
:101CA000016841F0020101600068002200F00200BA
:101CB000009005211D20FFF78DFCBDE808401D2088
:101CC000FFF77ABC08BD0000000400404038024025
:101CD00090F83D10012901D001207047022180F8C1
:101CE0003D100168CA6842F00102CA6000681149EB
:101CF000884214D0B0F1804F11D00F4988420ED0E5
:101D00000E4988420BD00E49884208D00D498842BE
:101D100005D00D49884202D00C49884204D181681F
:101D200001F00701062903D0016841F001010160BB
:101D300000207047000001400004004000080040FF
:101D4000000C004000040140004001400018004029
:101D500070B5044690F83C000025012817D00126F4
:101D600084F83C60022084F83D002068826822F0FC
:101D7000770222F47F4282600868502838D00DDC58
:101D800020284FD005DC90B3102811D14AE0022062
:101D900070BD302846D040280AD13BE060282FD0C3
:101DA00070280DD0B0F5805F03D0B0F5005F12D081
:101DB000012584F83D60002084F83C00284670BD71
:101DC000CB68D1E90121206800F0BCFD2068816862
:101DD00041F0770109E0CB68D1E90121206800F0EA
:101DE000B1FD2068816841F480418160E1E719E03C
:101DF000CA684968206800F0B7FD5021206806E0F5
:101E0000CA684968206800F0C0FD6021206800F0C1
:101E1000A3FDCEE7CA684968206800F0A5FD40210F
:101E20002068F4E7226801461046F0E7704770B575
:101E30000446006801694FF00005C943890715D4BD
:101E4000C168C943890711D4E91E016101202077C7
:101E5000206880698007204602D0FFF7E7FF04E092
:101E600000F098F8204600F096F825772068016980
:101E7000C943490717D4C168C943490713D46FF050
:101E800004010161022020772068806910F4407FFE
:101E9000204602D0FFF7CAFF04E000F07BF820469E
:101EA00000F079F8257720680169C943090716D43D
:101EB000C168C943090712D46FF008010161042009
:101EC00020772068C0698007204602D0FFF7AEFF68
:101ED00004E000F05FF8204600F05DF82577206808
:101EE0000169C943C90617D4C168C943C90613D4D7
:101EF0006FF010010161082020772068C06910F49C
:101F0000407F204602D0FFF791FF04E000F042F846
:101F1000204600F040F8257720680169C943C907C9
:101F200008D1C168C943C90704D1891E016120468F
:101F300000F032F820680169C943090609D4C16874
:101F4000C943090605D46FF0800101612046FFF7FF
:101F500029FE20680169C943490609D4C168C943FB
:101F6000490605D46FF040010161204600F03EF8BB
:101F700020680169C94389060BD4C168C943890631
:101F800007D46FF0200101612046BDE87040FFF7E3
:101F90000ABE70BD7047704710B5114CA068401C58
:101FA000052190FBF1F2A06001FB120080B90D4801
:101FB00094ED010AD0ED0C0A0B4801F0D9F884ED3C
:101FC000000ABDEEC00A10EE100A00B200F00EFFCB
:101FD000A068B0F57A7F01DB0120A06010BD000091
:101FE000A400002058090020F40A0020704770B5B2
:101FF000040004D094F83D00002510B106E0012053
:1020000070BD84F83C50204600F022F8242084F86B
:102010003D002068C16821F40051C160204600F0F5
:10202000C7FC2068016921F4904101612068416981
:1020300021F02A0141612068C16841F40051C1606A
:102040002564202084F83D0084F83E00002070BD07
:102050002DE9F04F87B0054614216846FEF702FAD5
:102060009648DFF8548214380221D5F800C0934B0B
:102070000322CF03002406154FF007094FF0006B31
:10208000C4456CD1D3F800C04CF0100CC3F800C0AC
:102090001B6803F010030593036843F00203036019
:1020A000036803F002030593036843F00103036030
:1020B00000688A4600F0010005908020CDE9000A02
:1020C0000DF1080C90468CE8100369467C48FFF738
:1020D0001BF97010CDE9000A0DF1080A69468AE87B
:1020E00010037848FFF710F9DFF8E08176494046A1
:1020F000C8F80010C0E901B4C0E90346C8F81440AC
:10210000C8F81840C8E90747D946BA46C8F8244075
:10211000FFF790F808B1FEF7C8FA6C4F6A48C5F8A7
:10212000388060377830C8F83850E7E80209402036
:1021300051C7664847F814496030BC61C7E9074A8F
:102140007C62FFF777F808B1FEF7AFFA6F63002201
:1021500005212520BD63FFF73DFA252044E0DFF887
:102160007081C44545D1554B1B1FD3F800C04CF4BA
:10217000802CC3F800C01B6803F480230593036818
:1021800043F004030360006800F0040005904FF47E
:1021900040608DE81300CDE9032969464D48FFF7FB
:1021A000B3F8DFF828814C4908F1C0084046C8F868
:1021B0000010C0E901B4C0E90346C8F81440C8F8EB
:1021C0001840C8E90747C8F82440FFF733F808B1BA
:1021D000FEF76BFAC5F83880002204212720C8F8E2
:1021E0003850FFF7F7F92720FFF7E6F907B0BDE809
:1021F000F08FDFF8E880C445F8D1D3F800C0A146DD
:102200004CF0200CC3F800C01B6803F020030593BA
:10221000036843F040030360006800F0400005904D
:102220004FF484408DE813000820CDE9032069466F
:102230002B48FFF769F82449DFF8A8801839404691
:10224000C8F800104FF0206AC0E901A4C0E90346B5
:10225000C8F814404FF40031C8F81840C8E90741E5
:10226000C8F82440FEF7E6FF08B1FEF71EFA1D4C41
:102270001548C5F8388060346030C8F83850C4E973
:10228000000A4020A060C4E90396C4F81490C4F882
:102290001890C4E907972046C4F82490FEF7CAFFB7
:1022A00008B1FEF702FA6C63002211464720A563CD
:1022B000FFF790F9472097E70010014044380240AB
:1022C000000402400000024040640240B4020020CA
:1022D000004800400008024028600240001401400D
:1022E00000180240D4030020FEE70000104810B59B
:1022F0000E4901600321416000214FF4802281607A
:10230000C0E903124FF4E0024261017601224276F5
:102310008276C17601774177FEF739FC002803D039
:10232000BDE81040FEF7C1B910BD000000640040D8
:1023300050010020104810B50E4901600321416092
:1023400000214FF480228160C0E903124FF4E002C3
:1023500042610176012242768276C1760177417729
:10236000FEF715FC002803D0BDE81040FEF79DB92C
:1023700010BD000000680040780100201D4808B52D
:10238000016841F400110160016801F4001100913D
:10239000016841F4800101600068002200F48000BF
:1023A000009011460C20FFF715F90C20FFF704F9F7
:1023B000002211463920FFF70DF93920FFF7FCF80C
:1023C000002205213A20FFF705F93A20FFF7F4F83B
:1023D000002205214520FFF7FDF84520FFF7ECF826
:1023E000002205214620FFF7F5F8BDE80840462009
:1023F000FFF7E2B830380240194808B5016841F0EB
:1024000002010160016801F002010091016841F0E0
:1024100040010160016801F040010091016841F054
:1024200001010160016801F001010091016841F0C2
:1024300008010160016801F008010091016841F0A4
:1024400004010160016801F004010091016841F09C
:1024500080010160006800F08000009008BD00006D
:102460003038024010B586B000241748009401941B
:102470000294039404941349059401605321C0E924
:10248000011440F2E731C0E903148461FFF7D4FB83
:1024900008B1FEF70AF94FF48050009069460A48E7
:1024A000FFF756FC08B1FEF700F9049404A90648AA
:1024B0000594FFF779FB002801D0FEF7F6F806B087
:1024C00010BD000000040040A00100200C4810B521
:1024D0000A4901604FF4E1314160002181600C2222
:1024E000C160C0E904128161C161FFF780FD00286D
:1024F00003D0BDE81040FEF7D8B810BD0010014071
:10250000E80100200C4810B50A4901600B49416000
:10251000002181600422C160C0E904128161C161AF
:10252000FFF765FD002803D0BDE81040FEF7BDB8F9
:1025300010BD0000004800402C020020A0860100D1
:102540000C4810B50A4901604FF4E13141600021A7
:1025500081600C22C160C0E904128161C161FFF792
:1025600046FD002803D0BDE81040FEF79EB810BD20
:102570000014014070020020FEE7FEE79FED0A0A0A
:1025800080ED030A80ED040A80ED000A80ED010A67
:1025900080ED020A80ED050A80ED060A80ED070A4B
:1025A00080ED080A70470000000000007047002816
:1025B00001DC404200B2704770B5194CB4F900001C
:1025C000FFF7F5FF40F29465A84217DCB4F902006A
:1025D000FFF7EDFFA84211DCB4F90400FFF7E7FFB5
:1025E000A8420BDCB4F90600FFF7E1FFA84205DCC6
:1025F000A07A18B1E07A08B1002070BD00202080D8
:102600006080A080E08020810221A172E172A0811F
:10261000E0812082A074E074A082012070BD0000DF
:10262000B200002030B5144B1C68656945F04005C8
:1026300065611B68DC6844F01004DC600F4B1C68AB
:10264000256825F0010525601C682568ED07F7D190
:102650001D680B4CAC601C68E0601868016118686C
:1026600042601868016841F48021016018680168BF
:1026700041F00101016030BD2C02002074030020F4
:102680000448004038B51B480168CA6822F400526B
:10269000CA60194A11680B6823F001030B601368C4
:1026A000242159600068016841680091134C136847
:1026B0004FF40011A34202D9104B4C3B04E0104CE4
:1026C000A34203D90D4B503B196008E00C4D0C4C54
:1026D000603DB83CAB4201D9E16000E0A160C16857
:1026E00041F40051C1601068016841F001010160CE
:1026F00038BD00002C020020740300205864024002
:10270000B860024030B5284801684B6943F0400387
:102710004B6101684B6943F080034B610068C168FD
:1027200041F01001C160214801680B6823F00103EA
:102730000B6001680B68DB07F7D11D4D4FF40013E8
:10274000A94202D91A4C4C3C04E01A4CA14203D9CC
:10275000174C503C236008E0164D164C603DB83CC9
:10276000A94201D9E36000E0A360134B8B600468C9
:102770001249E1600468216101684A6001680A68E1
:1027800042F480220A600068016841F001010160A2
:102790000B4801680A6822F001020A6001680A68B1
:1027A000D207F7D18B6030BD70020020D403002027
:1027B00058640240B860024004140140800C0020BC
:1027C000340400207047FEF79DBE000030B593B082
:1027D00030216846FDF746FE14210CA8FDF742FEA5
:1027E0001D480025016841F080510160006800F03B
:1027F000805011901948016841F4804101600068DF
:10280000022400F480401190012000900004019007
:102810008001CDE9064006200890A820CDE90904F2
:1028200004200B906846FEF7F3FF08B172B6FEE78E
:102830000CA90F2081E831004FF4A0500F904FF405
:102840008050109005210CA8FEF7F6FE002801D05C
:1028500072B6FEE713B030BD403802400070004051
:102860000248016841F470010160704788ED00E0A2
:102870000148FFF7DCBA0000A0010020F0B50268B3
:10288000254C264D264E274F274B4FF0804CA0421B
:1028900009D0604507D0A84205D0B04203D0B84265
:1028A00001D0984204D122F0700E4A6842EA0E022A
:1028B000A0421BD0604519D0A84217D0B04215D015
:1028C000B84213D0984211D0184DA8420ED0184DDE
:1028D000A8420BD0174DA84208D0174DA84205D0EA
:1028E000164DA84202D0164DA84203D122F44075DD
:1028F000CA682A434D6922F080022A4302608A682E
:10290000C2620A688262A04201D0984201D109697C
:10291000016301214161F0BD00000140000400405D
:1029200000080040000C004000040140004001404D
:10293000004401400048014000180040001C0040D5
:102940000020004010B5846842EA032224F47F444A
:102950000A432243826010BD826822F070020A435B
:1029600042F007018160704710B5036A046A24F0E1
:1029700001040462846924F0F00444EA021423F0A0
:102980000A020A438461026210BD10B5036A23F093
:10299000100303628369046A23F4704343EA02323A
:1029A00024F0A00343EA01118261016210BD00001E
:1029B00070B5044600680169E26821F44051114392
:1029C00001612169A068E269084361691143084314
:1029D0002168CA6849F20C639A430243CA602068BE
:1029E0004169A26921F44071114341613149206874
:1029F000884202D03049884202D1FEF7C7FE01E08A
:102A0000FEF7B4FEE2690023192164253226B2F5EF
:102A1000004F626828D0A0FB0101930F9200FDF7E0
:102A200043FC0146B0FBF5F06FF01802504301EB98
:102A3000800006EB0010B0FBF5F000F0F002B1FBF7
:102A4000F5F002EB0012B1FBF5F06FF018035843FC
:102A500001EB800006EB0010B0FBF5F000F00F007A
:102A600021681044886070BDA0FB010192185B4191
:102A7000FDF71AFC0146B0FBF5F00201B1FBF5F0E1
:102A80006FF01803584301EB800006EBC000B0FB69
:102A9000F5F000F0F80002EB4002B1FBF5F058430E
:102AA00001EB800006EBC000B0FBF5F000F0070082
:102AB000D6E70000001001400014014038B52A4854
:102AC00000680168890603D501684068009038BD38
:102AD00026490968C906FAD501684068244A009069
:102AE000106801684FF024030C032249046824F0A5
:102AF0000104046016D414686068C0F1240080B238
:102B00000880636011680B6843F400230B60116850
:102B10000A6842F001020A601228D8D11549164805
:102B2000891C16E010684468C4F12404A4B20C8027
:102B300043601248816A21F40021816210680168B3
:102B400041F001010160122CC1D10A490A48891CD7
:102B5000243000F09DFBFFF72FFD0128B7D1BDE821
:102B600038402420FFF78EBD2C0200200048004092
:102B700074030020B0000020380B002000600240E9
:102B80001F4818B40068C00637D51E4801680A6897
:102B900049680091816B09680A681B4B12030A6837
:102BA0004FF4007422F001020A60816B09684A68E0
:102BB000C2F5007292B21A804C60816B09680B6892
:102BC0000CD443F400230B60806B0068016841F073
:102BD000010101600D4901F580600BE023F4002341
:102BE0000B60806B0068016841F0010101600849D9
:102BF00001F5007018BC00F06CB918BC70470000FB
:102C000000140140700200203C010020800C0020D4
:102C1000800E0020FEE700000021C160016101601C
:102C20004160816041618161C16101629FED030A80
:102C3000416280ED0A0A80ED0B0A70470000000037
:102C40000907090E002804DB00F1E02080F80014D9
:102C5000704700F00F0000F1E02080F8141D70476D
:102C600010B5394800F062FA384800F05FFA384889
:102C700000F05CFA374800F059FA374800F056FA8D
:102C800031489FED361A44389FED350A80ED281AF9
:102C900080ED290A80ED2A0A80ED2B0A80ED2C0AAE
:102CA000DFED300A80ED2D0AC0ED470ADFED2E0A78
:102CB000F1EE041AC0ED480AC0ED490A2348443831
:102CC000C0ED471AC0ED480A2148F1EE0A0A44381F
:102CD000C0ED470A80ED481A1E48DFED240A44384B
:102CE0009FED231AC0ED470A80ED481A1A48443870
:102CF000C0ED470A80ED481A1F489FED1E1A80ED6F
:102D00000A1A9FED1E1A80ED0B1A80ED0C0A1C4862
:102D1000C0ED0C0ADFED1B0AC0ED0D0A80ED0E0AB6
:102D20001548FFF72BFC1648FDF732FC00F092FA2D
:102D300000F0A6FA00F02AF81348FEF7C9FFBDE834
:102D4000104000F063B900009C090020EC04002052
:102D5000180600204407002070080020CDCC4C3D10
:102D6000000000009A995940CDCCCC3D3333A340AC
:102D70008FC2F53D33339340840A00206666E63FF8
:102D8000B80A00209A99993FA001002010B58AB096
:102D9000002001210090019002900390CDE90510E0
:102DA00004900E2008910791099069460D48FDF79F
:102DB000F5FC0F20059069460B48FDF7EFFC044633
:102DC0000848FEF733F90848FEF730F902210548B4
:102DD000FDF76DFC02210448FDF769FC0AB02046AE
:102DE00010BD0000500100207801002000B589B01E
:102DF000002140F2FF220392019102910822CDE9C5
:102E000006128DF806108DF807108DF80A10020AC8
:102E10008DF80B108DF8042000918DF808100591A5
:102E20008DF820108DF805008DF809106B4601AA69
:102E300003A90348FDF74DFC009809B0C0B200BDDE
:102E4000500100201A4B10B55C7800219FED190A43
:102E500064221948012C16D09B78012B12D100F561
:102E6000A073D3ED0B0AB8EEE01AD3ED020AF8EE28
:102E7000E00A30EE800AB4EEC01AF1EE10FA01D288
:102E80000180428010BD0C4B1433D3ED0B0AB8EE19
:102E9000E01AD3ED010AF8EEE00A30EE800AB4EE53
:102EA000C01AF1EE10FAEDD20280418010BD000090
:102EB000040000206626494A940400208B185B1EFB
:102EC0000160C0E901320022C0E9032141611046DE
:102ED00070472DE9F0475FEA01080546EFF31086D9
:102EE00072B62FD0AC686CB369686869884201D942
:102EF00028686861944200DD14460F1A7F1CA742BF
:102F000006DB22464146FDF746FA686920440DE09B
:102F1000A4EB07093A464146FDF73DFA08EB0701E5
:102F20004A462868FDF737FA286848446861A86867
:102F3000001BA860E8682044E860204686F31088FB
:102F4000BDE8F08786F310884FF0FF30F8E7000007
:102F50002DE9F0410D4600EE105A2DED028B04468E
:102F6000B8EE408A00EE105AD0ED078A1646B8EE49
:102F7000400AC0ED088A80ED078A80ED150A806B53
:102F80001F46304400F001FA9FED1E1B53EC112B3D
:102F900000F012FA00F0C8F900EE100A84ED0C0AF5
:102FA000BDEEC00A84ED200A84ED3C0AC4E90E6738
:102FB000E06838B900EE105A0120B8EE400A84EDFE
:102FC000000AE06038EE680AA06A10EE101AB1F14B
:102FD0008B4F01DD401E05E010EE101A11F16A5F03
:102FE00001D9401CA062400300EE100AB8EEC00AEE
:102FF00030EE080ABDEEC00A84ED0B0ABDEC028B70
:10300000BDE8F081000000000000E03F70B51E4800
:103010000024A0F11405046004711C48C5F819408F
:103020006C7740F8094F202144600481847217486E
:103030006C701430FDF7F4F9AC601448EC60EC806F
:103040001B213430FDF7ECF9104810214F30FDF70B
:10305000E7F90E4810215F30FDF7E2F9AC70EC7033
:103060002C71C5F82A40EC8585F83040C5F81E4023
:1030700005F124006C8404608480BDE8704003483E
:103080000F216F30FDF7CCB9DC000020000C0020D0
:10309000FEF740FAFFF79AFBFFF7AEF9FFF726F9C4
:1030A000FFF748F9FFF7DEF9FFF710FAFFF766F9C7
:1030B000FFF728FAFFF744FA00F01CF8FFF7D0FDFD
:1030C0009FED062ADFED061A9FED061ADFED060AD0
:1030D0009FED060A064800F0A8F8FEE700409C466F
:1030E00000409C4500000000CDCCCC3D000070426B
:1030F000F40A00200849012081F844000749022011
:1031000081F84400064981F84400064981F84400EA
:10311000054981F84400704758090020A8040020A0
:10312000D4050020000700202C0800200178012988
:1031300004D0022918D19C30FFF76EBD9FED0B0A19
:1031400080ED040A80ED050A80ED010A80ED020A97
:1031500080ED030A80ED060A80ED070A80ED080A7B
:1031600080ED090A2C30E7E77047000000000000FE
:1031700080ED050AC0ED060A90ED0B1A70EE600AAC
:1031800080ED0C1A90ED0A1A80ED0B1AC0ED0A0AB8
:1031900090ED000A60EE201AC0ED0D1A90ED0E0AB7
:1031A00090ED012A02EE200A70EEC10A80ED0E0AAF
:1031B00090ED082A80ED092A90ED072A80ED082A73
:1031C000C0ED070AD0ED020A90ED0F1A20EE811A29
:1031D00080ED0F1AD0ED030AB4EEE00AF1EE10FA1A
:1031E00006DCF1EE600AB4EEE00AF1EE10FA01D26C
:1031F000C0ED0E0A90ED0E0A31EE800A30EE010AA3
:1032000080ED100AD0ED040AB4EEE00AF1EE10FAF7
:1032100006DCF1EE600AB4EEE00AF1EE10FA01D23B
:10322000C0ED100A90ED100A704780EC050A704757
:1032300001884ABA06490A80428852BA4A8082887E
:1032400052BA8A80C08840BAC880084670470000D9
:1032500034010020084910B54FF40072A1F5007048
:10326000FFF750FA0549BDE810404FF48062A1F124
:103270001800FFF723BE0000800E002098100020E9
:1032800002492422A1F12400FFF7CCB95C0B0020F5
:10329000002847D0002945D00278437842EA03222B
:1032A000C2F30A020A8042788378D20842EA4312C3
:1032B000C2F30A024A808278C378920942EA830202
:1032C000037942EA8322C2F30A028A8002794379AF
:1032D000520842EAC312C2F30A02CA804279C2F318
:1032E00001128A7242799209CA728279C37942EADA
:1032F00003228A81027A437A42EA0322CA81827ACD
:10330000C37A42EA03220A82027B8A74427BCA742D
:10331000827BC37B42EA03228A82027C407C42EAAF
:10332000002008817047000021F00042A2F16052A5
:10333000B2F5801F01F0004328BFD2F17F6C0BD99A
:103340005FEA001C43EAC20242EB507018BF7047AC
:1033500028BF20F001007047B2F5801FBCBF18469F
:1033600070474FEA410C1CF5001F02D2084600F0DE
:1033700026B970B500F0CAF800000089FFF7F6BF63
:103380004FF00040A0F58000704710F0004248BFA9
:103390004042B0FA80F310FA03F10AD0C3F11D03E2
:1033A00003F580634FEA415002EB035202EBD12157
:1033B00070474FF000007047DFF848C170B51CEA55
:1033C000111E1EBF1CEA13159EEA0C0F95EA0C0F86
:1033D00000F06F8081EA030423EA4C134EEAD47EA6
:1033E00021EA4C1141F4801143F48013AE44A1FB57
:1033F000024CA0FB0365AEF17F7E361955EB0C0540
:10340000A1FB034C4CF10003A0FB021C16EB0C06C5
:10341000654153F10003094218BF46F0010613F459
:10342000007F0BD14FEA03314FEA0530340341EA04
:10343000155140EA16506FF003020AE04FEAC3212B
:103440004FEAC520F40241EA555140EA56506FF068
:10345000020202EB2E4201EB025585EACE710AD040
:103460005FEA440C18BF24F0004450F1000041F121
:10347000000120EAD47040F2FE7C624500D270BDAB
:10348000A84214BF4FF080444FF04044002E08BFC4
:103490000024BEF1806FA8BFA1F1C041BDE870401B
:1034A00080F282804FF0000001F1C04101F0004144
:1034B00070479EEA0C0F0CEA131518BF95EA0C0F23
:1034C00006D04FF0000081EA030E0EF0004170BDFF
:1034D00000F01CF88900013E00F007B800F009B8C0
:1034E0004FEA430C5FEA5C5C08D081EA030100F01C
:1034F0005BB84FEA410C5FEA5C5CF6D14FF000002C
:10350000014970470000FF070000F87F0EF1020E2E
:103510002EF0030E5EF8046B364205D4012A43EB0D
:10352000030515F5001F12D8012841EB010C1CF50D
:10353000001F0CD80ED14FEAD17C15F5001F0CEB03
:103540004C0C0CF1020C08BF4CEBD37C04E04FF0A8
:10355000080C01E04FEAD37C0CEB4C0526FA05F68B
:1035600006F00706B6F1040C06D20EEB860CBDE899
:1035700070404CF0010C6047DFE80CF0090B0202D0
:103580004FF000414FF00000A1F5002170BD194639
:103590001046012851EB010418BFD4F5001484BF74
:1035A000002001F0004170BD0808A0F500114FEAAD
:1035B000310170474FF04070E1EE100A7047FF2173
:1035C00041EAD050C00570470006101600061016DC
:1035D00000000000000000000102030406070809C3
:1035E000000000000102030408360008000000206B
:1035F00050010000C40100083436000850010020CA
:10360000A819000020020008014440093333334068
:103610000AD7233CA5BE9F9941548743320342C039
:10362000BF64A042014A040212020283022994826A
:04363000101324F45B
:040000050800018965
:00000001FF
