:020000040800F2
:10000000C80C002089010008F72300086F180008B9
:10001000F5230008AF020008A72B0008000000002D
:100020000000000000000000000000002F2A00086F
:10003000B1020008000000002D2A0008312A000843
:10004000A3010008A3010008A3010008A301000800
:10005000A3010008A3010008A3010008A3010008F0
:10006000A3010008A3010008B3020008A3010008CF
:10007000A3010008A3010008A3010008A3010008D0
:10008000A3010008A3010008A3010008A3010008C0
:10009000A3010008A3010008A3010008B902000899
:1000A000952A0008B92A0008AD2A0008A12A0008EC
:1000B000C52A0008A3010008A3010008A301000845
:1000C000A30100087D18000871180008A3010008AA
:1000D000A3010008A3010008A3010008A301000870
:1000E000A3010008A3010008A301000800F002F822
:1000F00000F03AF80AA090E8000C82448344AAF188
:100100000107DA4501D100F02FF8AFF2090EBAE885
:100110000F0013F0010F18BFFB1A43F0010318473B
:10012000D8680000F8680000103A24BF78C878C189
:10013000FAD8520724BF30C830C144BF04680C60ED
:10014000704700000023002400250026103A28BF35
:1001500078C1FBD8520728BF30C148BF0B60704739
:100160001FB51FBD10B510BD00F06CF81146FFF7AC
:10017000F7FF02F035FE00F08AF803B4FFF7F2FF54
:1001800003BC00F08DF8000009488047094800478B
:10019000FEE7FEE7FEE7FEE7FEE7FEE7FEE7FEE737
:1001A000FEE7FEE704480549054A064B7047000094
:1001B000932A0008ED000008C8060020C80C0020A3
:1001C000C8080020C80800204FF0000200B5134600
:1001D00094469646203922BFA0E80C50A0E80C5067
:1001E000B1F12001BFF4F7AF090728BFA0E80C5018
:1001F00048BF0CC05DF804EB890028BF40F8042B11
:1002000008BF704748BF20F8022B11F0804F18BF7D
:1002100000F8012B704770477047704710B500F029
:1002200009F8006810BD10B5044600F003F804603A
:1002300010BD000000487047640600200048704769
:10024000640600207546FFF7F9FFAE4605006946D3
:10025000534620F00700854618B020B5FFF7A2FFEF
:10026000BDE820404FF000064FF000074FF00008B7
:100270004FF0000B21F00701AC46ACE8C009ACE838
:10028000C009ACE8C009ACE8C0098D46704710B59C
:100290000446AFF300802046BDE81040FFF76DBF75
:1002A00001491820ABBEFEE7260002007047FEE7BA
:1002B0007047102000F018B9202000F015B972B670
:1002C000FEE7000010B590F821100024022903D0A9
:1002D0000421816301243DE001680A6822F00E02D6
:1002E0000A6001680A6822F001020A601A4A01687D
:1002F000914201D1012121E0174A1432914201D1EA
:1003000010211BE0144A2832914201D1891515E0D1
:10031000114A3C32914201D189140FE00E4A503209
:10032000914202D14FF4803108E00B4A643291428D
:1003300002D14FF4801101E04FF08071064A083A73
:100340005160012180F82110002180F82010416BBC
:1003500001B18847204610BD0800024090F82100F6
:100360007047000070B5044600F0C0F90546601CF7
:1003700002D004480078044400F0B8F9401BA042C1
:10038000FAD370BD200000202DE9F04300233E4F3A
:100390000F2573E001229A400A406DD023F0030438
:1003A000E619D6F808809C074FEA147C05FA0CF988
:1003B00009EA0804DFF8D480404502D14FF0000874
:1003C00016E0DFF8CC80404502D14FF001080FE085
:1003D000DFF8C080404502D14FF0020808E0DFF8A6
:1003E000B880404502D14FF0030801E04FF0040807
:1003F00008FA0CF8A04522D1284CD4F800C02CEA09
:10040000020CC4F800C0241DD4F800C02CEA020C71
:10041000C4F800C0214C0C34D4F800C02CEA020C03
:10042000C4F800C0241FD4F800C02CEA020CC4F8A1
:1004300000C0D6F808C02CEA090CC6F808C0FF2A8C
:1004400001D8064601E000F104064FEA830401D911
:10045000A4F12004D6F800C005FA04F82CEA080C30
:100460004FF0040808FA04F84CEA080CC6F800C07B
:10047000C46824EA0204C46003F1010331FA03F200
:1004800088D1BDE8F0830000000001400008014071
:10049000000C014000100140001401400004014024
:1004A00070B5104900260E4D8C78CA788B681028DC
:1004B0000AD0202807D1002C05D005EB0210521CD1
:1004C0008360CA708E7070BD002CFCD10C2A00D3E2
:1004D000CE70C87805EB001043600120887070BDB5
:1004E0004000002000000020044910B50A680242C4
:1004F00002D00860FFF7D4FF10BD000014040140D3
:100500002DE9F84FDFF8B8910024A9F1040B234638
:100510000F2709F1040AABF1040EC9E00125A5403B
:100520002A40AA427DD1674ED1F804C0ACEB060840
:10053000B44532D014DCBCF1030F3AD009DCBCF175
:10054000000F2AD0BCF1010F1CD0BCF1020F31D139
:100550001DE0BCF1110F17D0BCF1120F2AD119E028
:10056000B8F5881F19D006DCB8F5803F15D0B8F56E
:10057000801F1FD111E0B8F5001F0ED0B8F5041F81
:1005800018D10AE0CB6815E0CB681B1D12E0CB68E0
:1005900008330FE0CB680C330CE08B682BB1012BD8
:1005A0004FF0080303D0456104E0042302E0056135
:1005B00000E00023FF2A01D8064601E000F104060E
:1005C0004FEA840501D9A5F12005D6F8008007FA85
:1005D00005FC28EA0C0803FA05F548EA0508C6F800
:1005E00000804D68ED0062D5374DAE6946F00106DA
:1005F000AE61AD6924F0030605F001050095334DA9
:1006000006EB050CDCF80850A607360F07FA06F8CB
:1006100025EA0805DFF8B880404503D14FF000080F
:1006200017E044E0DFF8AC80404502D14FF001080C
:100630000FE0DFF8A480404502D14FF0020808E047
:10064000DFF89880404502D14FF0030801E04FF0F9
:10065000040808FA06F848EA0508CCF808804D684E
:10066000D9F80060ED024D4601D5164300E09643EF
:100670002E604D68DAF80060AD02554601D516438C
:1006800000E096432E604D68DBF80060AD035D46E8
:1006900001D5164300E096432E604D68DEF80060F9
:1006A000ED03754601D5164300E096432E60641CA9
:1006B0000D682A46E5407FF431AFBDE8F88F0000B1
:1006C0000804014000001110001002400000014029
:1006D00000080140000C01400010014000140140DE
:1006E0000AB1016170470904FBE700000148806816
:1006F0007047000020000020704700000A48027880
:10070000521C0270012907D000290BD12023416817
:100710000422064800F02EBB20230A220449034885
:1007200000F0EEBA70470000000000200001002039
:100730003400002010B5040013D0242084F83D00BC
:100740002068016821F001010160204600F074FA80
:100750000020206484F83D0044F8300FA07320731B
:1007600010BD012010BD2DE9F041016804464A6921
:100770004E6890F83E000025D743FA050BD4F243AB
:10078000D20508D46FF4807201254A6121680A6895
:1007900042F400420A60B90508D4F143C90505D402
:1007A00022686FF4007145F002055161790525D486
:1007B000F143C90522D4638D94F83D10226B2028A3
:1007C00008D13BB9212910D029290ED0282901D1DF
:1007D000212A0AD022686FF48061516145F0040536
:1007E000102806D0402804D008E0204601F044FC40
:1007F00004E02068016841F400710160380508D404
:10080000F043C00505D421686FF4006045F0080589
:100810004861002D07D0206C284320642046BDE8A5
:10082000F04101F097B8BDE8F0812DE9F04702688A
:1008300000215368C66A90F83E4090F83D50102C55
:1008400012D0402C10D0046C002C7DD05469E443AD
:10085000A6077AD4DE43B60577D4036C03B1916959
:10086000BDE8F04701F0E4BB976951694FF42A0CE9
:10087000C9435FEAC1784FF02A4904D066452AD0BF
:100880004E4528D010E0DE43B6050DD4C16A61455F
:1008900001D1012103E0C16A494501D10821C162AA
:1008A000BDE8F04701F02ABB0E0716D4DE43B605BB
:1008B00013D4416CC9B21161416B09B1896A29B97C
:1008C000816B002907D0896A002904D0006841683B
:1008D00041F400614160BDE8F0878E0706D4DE4335
:1008E000B60503D4BDE8F04701F05CBAFE43526898
:1008F00076074FEA02521DD4002AECDB0A0608D420
:10090000DA43520505D4490705D5BDE8F04701F0A3
:10091000EDB94907DFD4D9438905DCD4212D05D0B1
:10092000402CD8D1BDE8F04701F02EBBBDE8F04720
:1009300001F09AB9002ACEDB4A060BD4DA435205FD
:1009400008D4490708D501E00DE00EE0BDE8F04706
:1009500001F016B94907BED4D9438905BBD4BDE817
:10096000F04701F0A3B8916970E7E10606D4D943D6
:10097000890503D4BDE8F04701F0C6BB2821212D2D
:1009800027D0292D25D0650655D4DD436D0552D4D9
:10099000640752D590F83D30448D002C9BD01269ED
:1009A000446A2270426A521C4262428D521E428543
:1009B000428D002A8FD12A2B8DD10268536823F4EF
:1009C000806353602222026380F83D1000F096F9A4
:1009D00081E7250623D4DD436D0520D4640720D5A7
:1009E00090F83D30448D002CF2D0446A2478146194
:1009F000426A521C4262428D521E4285428D002A3A
:100A0000E6D1292BE4D10268536823F48063536054
:100A10002122026380F83D1000F071F95BE7610765
:100A2000D6D4D9438905D3D4418D0029D0D0416A89
:100A3000097811610AE06107CAD4D9438905C7D48E
:100A4000418D0029C4D01169426A1170416A491C64
:100A50004162418D491E41853DE790F83D102029B6
:100A600001D002207047282180F83D1001680A68F3
:100A7000D20703D10A6842F001020A6001680A68DD
:100A800042F480620A600068416841F4407141604C
:100A90000020704710B5FFF74DFEBDE8104001F093
:100AA00021BC000070B5040025D094F83D0000255D
:100AB00020B984F83C50204600F0E0F8242084F867
:100AC0003D002068016821F0010101602068016893
:100AD00041F4004101602068016821F40041016097
:100AE00000F0C0FA4D4A6168914201D84C4900E0DB
:100AF0004C49884201D2012070BD4B492368B0FBAC
:100B0000F1F15E6826F03F060E435E606368934233
:100B100006D94FF4967359434FF47A73B1FBF3F14E
:100B20002368491C1E6A26F03F063143196261683A
:100B3000914210D84900401EB0FBF1F2521CC2F3A2
:100B40000B02042A01D2042022E0B0FBF1F0401C89
:100B5000C0F30B001CE0A268F2B301EBC10303EB8E
:100B60000116431EB3FBF6F35B1C43F480431B05E5
:100B700049D092B301EBC10202EB0111401EB0FB60
:100B8000F1F0401CC0F30B0040F4804040F4004002
:100B90002168CA694CF6FF739A431043C861D4E9CF
:100BA000071001432068026822F0C002114301606F
:100BB000D4E9030101432068826848F2FF339A4375
:100BC00011438160D4E9050108432168CA6822F015
:100BD000FF021043C86001E00EE016E020680168E3
:100BE00041F0010101602564202084F83D00256367
:100BF00084F83E50002070BD01EB4106431EB3FB5C
:100C0000F6F35B1CB3E70120C2E701EB4101401E94
:100C1000B0FBF1F0401CC0F30B00B7E7A086010069
:100C200080841E0000093D0040420F00704770475D
:100C3000704770477047000010B500680C49884243
:100C400015D10C48C16921F48001C1610A4C01151C
:100C50002046FFF799FBE1142046FFF795FB212082
:100C600000F01AF9BDE81040222000F015B910BDBF
:100C70000058004000100240000C014010B586B042
:100C80000021009101910291039100681849884266
:100C90002BD1184CA06940F00800A061A0696946FA
:100CA00000F0080004904FF4406000901220019082
:100CB000032003901048FFF723FCE06940F4800014
:100CC000E061E069002200F48000049011462120D8
:100CD00000F000F9212000F0F0F800221146222057
:100CE00000F0F8F8222000F0E8F806B010BD00008F
:100CF0000058004000100240000C0140704770474F
:100D000038B590F83D502824AC4331D161B15AB187
:100D100090F83C40012C2BD0012480F83C40046822
:100D20002568ED0702D005E0012038BD256845F0B3
:100D3000010525600468256825F4006525602A24DE
:100D400080F83D40202480F83E4000240464416245
:100D50004285418D0185C36201684A698A690092B2
:100D600080F83C40486840F4E0604860204638BD68
:100D7000022038BD38B590F83D502824AC4331D11D
:100D800061B15AB190F83C40012C2BD0012480F87D
:100D90003C4004682568ED0702D005E0012038BD1D
:100DA000256845F0010525600468256825F400657F
:100DB0002560292480F83D40202480F83E4000240E
:100DC000046441624285418D0185C36201684A69BC
:100DD0008A69009280F83C40486840F4E0604860CE
:100DE000204638BD022038BD02488168027811448F
:100DF0008160704720000020074810B5016841F06D
:100E000010010160032000F085F80F2000F006F8C3
:100E100000F024F8002010BD0020024070B50D4DF8
:100E200004464FF47A712878B1FBF0F00A4909685A
:100E3000B1FBF0F000F0DCFA48B9102C07D2002228
:100E40002146501E00F046F800206C6070BD012065
:100E500070BD0000200000202C0000200C4808B5C8
:100E6000816941F001018161816901F00101009115
:100E7000C16941F08051C161C06900F080500090AB
:100E80000448416821F0E06141F00071416008BD13
:100E9000001002400000014000280DDB00F01F029E
:100EA000012191404009800000F1E020C0F880114C
:100EB000BFF34F8FBFF36F8F7047002809DB00F03F
:100EC0001F02012191404009800000F1E020C0F89C
:100ED00000117047F0B40E4B1B680C46C3F302239D
:100EE000C3F10705042D00D90425191D072901D2D6
:100EF000002300E0DB1E012606FA05F1491E214011
:100F000099409E40761E16403143F0BC01F060BE11
:100F10000CED00E0064900F0070208684FF6FF03F9
:100F2000184040EA0220034A10430860704700005E
:100F30000CED00E00000FA052DE9F0470F46050032
:100F400061D0434E306800F00700B84209D23068E3
:100F500020F0070038433060306800F00700B842E6
:100F600051D128683B4C810712D5400703D56068F2
:100F700040F4E06060602878000703D5606840F4C2
:100F8000605060606068A96820F0F000084360600D
:100F90002878C00728D06868012810D02168022866
:100FA00010D0890700292EDA616821F0030101437E
:100FB0006160FFF79BFB804641F288390DE02168B4
:100FC0008903EFE78901EDE7FFF790FBA0EB08014C
:100FD000494502D90320BDE8F0876068696800F0E0
:100FE0000C00B0EB810FEFD1306800F00700B84281
:100FF0000BD9306820F0070038433060306800F0CB
:101000000700B84201D00120E5E72878400705D560
:101010006068E96820F4E0600843606028780007B1
:1010200006D56068296920F4605040EAC10060601C
:1010300000F028F86168084AC1F30311515CC84008
:101040000649086006480068FFF7E8FE0020C2E78E
:101050000020024000100240404B00082C000020FD
:10106000240000200448054900684968044AC1F387
:101070000221515CC84070472C0000200010024043
:10108000504B00080E4A51680E4801F00C03042B27
:1010900011D0082B0FD10C48C1F38343C903C05CA6
:1010A0000AD55168084AC1F34041921E515C054A75
:1010B0005043B0FBF1F070470449484370470000CB
:1010C0000010024000127A00304B000800093D0079
:1010D0002DE9F84F040070D02078C04DC00749D0EA
:1010E0006868C0F38100012807D06868C0F38100F8
:1010F000022809D16868C00306D52868800339D55D
:1011000060680028E7D035E06068B0F5803F0BD01C
:1011100010B1B0F5A02F11D0286820F480302860DD
:10112000286820F4802002E0286840F4803028609D
:10113000606890B1FFF7DAFA06460AE0286840F4E2
:1011400080202860F0E700BFFFF7D0FA801B6428FA
:1011500073D828688003F7D50CE0FFF7C7FA064676
:1011600005E000BFFFF7C2FA801B6428F0D82868AA
:101170008003F7D420789A4E80074FF001094FF092
:10118000000839D5686810F00C0F07D06868C0F304
:101190008100022809D16868C00306D42868800746
:1011A00014D52069012808D110E02069B0B1C6F833
:1011B0000090FFF79BFA074605E00AE1FFF796FA71
:1011C000C01B0228C4D828688007F7D52868616941
:1011D00020F0F80040EAC10028600DE0C6F8008069
:1011E000FFF784FA074604E0FFF780FAC01B0228E5
:1011F00023D828688007F7D4207800072CD57948B1
:10120000A169D9B1C0F80090FFF770FA074604E071
:10121000FFF76CFAC01B02280FD8686A8007F7D561
:1012200071484FF4FA510068B0FBF1F0009000BF34
:101230000098411E0091FAD20EE080E0C0F80080D4
:10124000FFF754FA074604E0FFF750FAC01B0228E4
:1012500075D8686A8007F7D42078400760D5E869B8
:101260000027C00008D4E86940F08050E861E869D0
:10127000012700F0805000905C480168C90513D434
:101280000168834641F480710160FFF72FFA8246BE
:1012900006E000BFFFF72AFAA0EB0A0064284ED848
:1012A000DBF80000C005F5D5E06801280AD008B1D8
:1012B000052813D0286A20F001002862286A20F04F
:1012C000040002E0286A40F001002862E06841F270
:1012D000883B98B1FFF70AFA82460BE0286A40F093
:1012E00004002862EEE700BFFFF700FAA0EB0A0156
:1012F00059455AD8286A8007F6D50CE0FFF7F6F969
:10130000824605E0FFF7F2F9A0EB0A0159454CD8F7
:10131000286A8007F6D41FB1E86920F08050E861A0
:10132000E06988B36968C1F38101022944D00228C9
:10133000C6F8608004D0FFF7D9F9044638E034E0FD
:10134000FFF7D4F9074604E0FFF7D0F9C01B0228E5
:101350002BD828688001F7D4206AB0F5803F05D1EA
:101360006868A16820F4003008436860D4E9080187
:101370000843696821F4741108436860C6F86090F6
:10138000FFF7B4F9044606E025E000BFFFF7AEF929
:10139000001B022809D828688001F7D51BE000BF90
:1013A000FFF7A4F9001B022802D90320BDE8F88F3B
:1013B00028688001F4D40EE00128F7D06868226A1A
:1013C00000F48031914204D1616A00F470108842C7
:1013D00001D00120EAE70020E8E700000010024009
:1013E00000004242800442422C0000200070004075
:1013F00010B5401EB0F1807F01D3012010BD4FF029
:10140000E02460610F21601701F0E2FB0020A06181
:1014100007202061002010BD7047704770B590F81C
:101420003C20012A26D0012480F83C40022280F88A
:101430003D2003685A689D6822F070060A683243AE
:101440005A600D4B02689A4208D0B2F1804F05D025
:101450000A4B9A4202D00A4B9A4204D1496825F0BD
:1014600080031943916080F83D40002180F83C10D2
:10147000084670BD022070BD002C014000040040F1
:101480000008004010B5040003D094F83D0010B1EE
:1014900007E0012010BD002084F83C00204600F049
:1014A0001FF8022084F83D00211D206801F010FB88
:1014B000012084F8460084F83E0084F83F0084F858
:1014C000400084F8410084F8420084F8430084F826
:1014D000440084F8450084F83D00002010BD000061
:1014E00008B5214A01682148914226D1816941F419
:1014F000006181618069002200F400600090114663
:101500001820FFF7E7FC1820FFF7D7FC0022114650
:101510001920FFF7DFFC1920FFF7CFFC002211464E
:101520001A20FFF7D7FC1A20FFF7C7FC002211464C
:101530001B20FFF7CFFC1B2010E0B1F1804F11D131
:10154000C16941F00101C161C069002200F00100E0
:10155000009001211C20FFF7BDFC1C20BDE80840C5
:10156000FFF7ABBC08BD0000002C0140001002409A
:1015700090F83D10012901D001207047022180F828
:101580003D100168CA6842F00102CA6000680B4958
:10159000884208D0B0F1804F05D00949884202D076
:1015A0000849884204D1816801F00701062903D067
:1015B000016841F00101016000207047002C0140EA
:1015C000000400400008004070B5044690F83C005C
:1015D0000025012817D0012684F83C60022084F8F9
:1015E0003D002068826822F0770222F47F42826008
:1015F0000868502838D00DDC20284FD005DC90B387
:10160000102811D14AE0022070BD302846D0402871
:101610000AD13BE060282FD070280DD0B0F5805F54
:1016200003D0B0F5005F12D0012584F83D600020A2
:1016300084F83C00284670BDCB68D1E901212068C0
:1016400001F07CFA2068816841F0770109E0CB68FD
:10165000D1E90121206801F071FA2068816841F424
:1016600080418160E1E719E0CA684968206801F0BB
:1016700077FA5021206806E0CA684968206801F0BE
:1016800080FA6021206801F063FACEE7CA684968F1
:10169000206801F065FA40212068F4E722680146DD
:1016A0001046F0E7704770B50446006801694FF0D6
:1016B0000005C943890715D4C168C943890711D4F6
:1016C000E91E01610120207720688069800720469B
:1016D00002D0FFF7E7FF04E000F098F8204600F0A2
:1016E00096F8257720680169C943490717D4C1686E
:1016F000C943490713D46FF0040101610220207728
:101700002068806910F4407F204602D0FFF7CAFFAE
:1017100004E000F07BF8204600F079F82577206897
:101720000169C943090716D4C168C943090712D41E
:101730006FF008010161042020772068C0698007EC
:10174000204602D0FFF7AEFF04E000F05FF820462D
:1017500000F05DF8257720680169C943C90617D4F0
:10176000C168C943C90613D46FF010010161082094
:1017700020772068C06910F4407F204602D0FFF730
:1017800091FF04E000F042F8204600F040F8257791
:1017900020680169C943C90708D1C168C943C9079D
:1017A00004D1891E0161204600F032F820680169E9
:1017B000C943090609D4C168C943090605D46FF0B5
:1017C000800101612046FFF727FE20680169C943B7
:1017D000490609D4C168C943490605D46FF04001E0
:1017E0000161204600F042F820680169C94389067A
:1017F0000BD4C168C943890607D46FF02001016189
:101800002046BDE87040FFF708BE70BD70477047C6
:1018100010B51149114C884207D1A168104A491CE2
:10182000A160914201D30021A1600E49884212D1EA
:101830000D49E07801F09EFA0B49E07801F04EFA8C
:1018400020610949E07801F06FFA6061E0780C28C6
:1018500001D30120607010BD540100200000002061
:1018600000CA9A3B9C010020400000207047FEE720
:101870000148FEF778BF0000000100200148FEF794
:10188000D4BF00000001002038B5406A002190F864
:101890003D202B4B46F2A8141B68B3FBF4F3C3EBBB
:1018A000C30303EB830300933BB15B1E0093036808
:1018B0001B689B0505D5009BF6E7036C43F02003EE
:1018C0000364436B03B19962836B03B1996203684C
:1018D0001C6824F480641C604185436B03B1596328
:1018E000836B03B1596303681C6824F001041C6016
:1018F00090F83D402023602C0BD0282434EA0202CB
:101900000FD080F83D3080F83E1000BFFFF7C2F8DE
:1019100038BD80F83D3080F83E100164FEF7ECFEE3
:1019200038BD0268136843F001031360026813684E
:1019300043F480631360016380F83D40E6E70000F4
:101940002C00002000684169C943090601D4002128
:101950000161704770B5044690F83D0094F83E1060
:10196000102901D0402906D1222804D121680A6813
:1019700022F400620A60282131EA00024FF00005DB
:101980004FF0200626D021684968090505D4602853
:1019900003D084F83D6084F83E5025632068416898
:1019A000090537D5416821F400614160606B90F80A
:1019B00021203C49012A11D04163606BFEF782FC73
:1019C00038B32068016821F00101016084F83D60AE
:1019D000606B1CE0256384F83D10DFE7A06B41637A
:1019E000A06BFEF76FFCA0B120684169C9434906AE
:1019F00005D40069616A0870606A401C60622068F2
:101A0000016821F00101016084F83D60A06B416B29
:101A1000884710E094F83D10602910D04169C9430F
:101A2000490605D40069616A0870606A401C6062FA
:101A30002046FFF72FF8206CC1071CD115E084F871
:101A40003D6025644169C943490605D40069616A5E
:101A50000870606A401C60622068016821F0010122
:101A600001602046FEF748FEE5E7810703D4410701
:101A700001D4000704D52068416821F4E061416089
:101A800094F83D00216C49070BD5282809D1064858
:101A9000E062256384F83D6084F83E502046FFF7FD
:101AA000C5F870BD891800080000FFFF10B5C26AB4
:101AB000438D0168042B06D0438D032B08D0438D42
:101AC000022B1DD012E04A6822F480624A600CE0CA
:101AD0004B6823F480634B60042A06D0022A04D0AA
:101AE00001680A6822F480620A6001680969426A32
:101AF0001170416A491C4162418D491E418510BDEA
:101B0000012A30D0102A2ED0042A30D0022A2ED01A
:101B10000A6842F400720A6001680969426A117039
:101B2000416A491C4162428D521E42850268126917
:101B30000A70416A491C4162418D491E4185016814
:101B40004A6822F440724A60202180F83D1090F8E3
:101B50003E200021402A80F83E100CD01221016363
:101B6000FFF765F810BD0A6822F48062D3E70A68BF
:101B700042F48062CFE70163FFF75BF810BD00001D
:101B800038B590F83D1022290FD1418D03290DD988
:101B900001680969426A1170416A491C4162418DBC
:101BA000491E4185418D032906D038BDC26A022AEB
:101BB00002D0012906D029B10068416821F4806172
:101BC000416038BD274946F2A81300220968B1FBDD
:101BD000F3F101EB8101009101682023009C641E58
:101BE000009422D00C68A405F8D40C6824F4806416
:101BF0000C6001684C6824F4E0644C600168096979
:101C0000446A2170416A491C4162418D491E4185E7
:101C100080F83D3090F83E1080F83E2040291DD0DD
:101C200012210163FFF703F838BD046C44F020046F
:101C300004644C6824F4E0644C6001680969446AF7
:101C40002170416A491C4162418D491E418580F8DD
:101C50003D3080F83E20FEF71DFF38BD0263FEF7E1
:101C6000E8FF38BD2C00002010B5C26A90F83D1086
:101C700021290BD1418D51B1416A02680978116166
:101C8000416A491C4162418D491E418510BD202396
:101C90000021082A13D0202A11D012F5803F0ED03F
:101CA0000268546824F4E06454601122026380F8EE
:101CB0003E1080F83D3000BFFEF7BAFF10BD02684D
:101CC000546824F4E06454600268146844F40074B6
:101CD0001460016380F83D3090F83E2080F83E109B
:101CE000402AE9D1FEF7A6FF10BD000010B590F81C
:101CF0003D1090F83E30C26A048DB4B1212903D062
:101D0000402B11D122290FD1418DE1B390F83E1023
:101D1000402942D0416A026809781161416A491C30
:101D20004162418D491E418510BD2129E8D1202302
:101D30000021082A13D0202A11D012F5803F0ED09E
:101D40000268546824F4E06454601122026380F84D
:101D50003E1080F83D3000BFFEF76AFF10BD0268FC
:101D6000546824F4E06454600268146844F4007415
:101D70001460016380F83D3090F83E2080F83E10FA
:101D8000402AE9D100E002E0FEF754FF10BD0068F0
:101D9000416821F48061416010BDBDE8104000F051
:101DA000F3B8000078B590F83E50C26A046B90F822
:101DB0003D6000230168222E73D1066D0EB9402DBF
:101DC0006FD0056D1DB90569B5F5404F1BD0458D28
:101DD00095B3468D484D012E20D0448D022C4DD018
:101DE0000C6844F480640C6001684C68240579D563
:101DF000AA4273D0012A71D0082A6FD0102A6DD060
:101E0000202A6BD06EE04A698A6900920A6842F41F
:101E100080720A60016D491C016578BDAA4214D127
:101E20000A6822F480620A6001684A68120504D5D3
:101E30000A6822F4806217E0FFE74A698A69009223
:101E40000A6842F400720A6050E0082A10D0202A82
:101E50000ED0122C0AD0042A03D0022A01D0102A54
:101E6000E6D10A6842F480620A603BE0012ADFD0D2
:101E70000A6822F480620A600168DEE7042A11D051
:101E8000022A0FD0102A0DD00C6844F400640C60B4
:101E900001684C698C6900940C6824F480640C60BF
:101EA00008E025E00C6844F480640C6001684C692B
:101EB0008969009101684C68240517D5AA4207D0AA
:101EC000012A05D0082A03D0102A01D0202A0DD1DA
:101ED0004A6842F480524A6008E0FFE74A6842F4E8
:101EE00080524A6001684A6989690091036578BD3A
:101EF00048698869009078BD0000FFFF90F83E10A7
:101F0000402910D00169B1F5804F19D0016DA9B3F6
:101F1000016D012910D1416C5FF0F10201F44071B3
:101F200042EAD11106E0016D0029416C05D0C9B229
:101F300041F0010100680161704701F0FE01F9E71D
:101F400090F83D102129416C09D0C9B241F001013E
:101F500002681161416B29B1896A49B902E001F057
:101F6000FE01F5E7816B0029E6D0896A0029E3D0FC
:101F70000068416841F4006141607047FFE7416CCF
:101F8000F02201F44071CBE710B590F83D10026DDE
:101F90004AB1026D012A14D0026D022A16D0BDE8A2
:101FA0001040FFF7CFBCC16C0129816C02D0C1F396
:101FB000072108E00268C9B21161016D891C016541
:101FC00010BD816CC9B20268116123E022291CD0C6
:101FD000428D0AB1212920D0428D002AF0D1212939
:101FE000EED101684A6822F4E0624A6001680A683A
:101FF00042F400720A6000210163202280F83D2033
:1020000080F83E10FEF716FE10BD01680A6842F423
:1020100080720A60016D491CD1E7416A0268097843
:102020001161416A491C4162418D491E418510BDC3
:1020300038B50C4690F83D200021282595430268CC
:102040000B4605D051699169009180F83C3038BD4C
:10205000556825F480655560E243540700D5012199
:10206000120601D5828900E0028B80F83C3092B2E2
:10207000FEF744FB38BD00002DE9F04190F83D30FB
:102080000446C26A002120261E4F00686FF4806556
:10209000082A01D0202A01D1282B04D0212B17D0C7
:1020A0004561BDE8F081E762426822F4E062426087
:1020B000206845612068026822F480620260216322
:1020C00084F83D6084F83E102046FEF7AFFDE8E757
:1020D000E7622122226384F83D6084F83E10416863
:1020E00021F4E0614160206845612068016821F4C5
:1020F000806101602046FFF725FC2046FEF7FFFDCA
:10210000CFE700000000FFFFF8B590F83D600446FF
:102110000068416821F4E061416020680025416960
:102120000091016841F0010101602068016821F41B
:102130008061016020684168090520D5474F222E43
:1021400048D02A2E46D0616B096849686185618D47
:1021500019B1216C41F004012164416821F400614E
:102160004160606BFEF7FAF8012808D0606B4763A6
:10217000606BFEF7A7F810B1606B416B8847608D0C
:1021800008B320684169C943490708D40069616AF6
:102190000870606A401C6062608D401E6085206827
:1021A0004169C943490608D40069616A0870606AD8
:1021B000401C6062608D401E6085608D18B1206C8F
:1021C00040F004002064206C00B32046BDE8F840D5
:1021D000FFF7C0BBA16B096849686185618D19B1C2
:1021E000216C41F004012164416821F400614160E7
:1021F000A06BFEF7B3F80128C1D0A06B4763A06BBA
:10220000FEF760F80028BAD0A06BB6E72A2E06D1F8
:102210002563282084F83D002046FEF76FFD94F8E2
:102220003D10202028290DD0216B222901D0222EFB
:1022300007D1256384F83D0084F83E502046FEF720
:102240005DFDF8BD0649E162256384F83D0084F830
:102250003E502046FEF7EAFCF8BD00008918000851
:102260000000FFFF00B585B0002003901A48816987
:1022700041F020018161816901F0200104918169AF
:1022800041F008018161816901F0080104918169CF
:1022900041F0040181618069694600F00400049006
:1022A000302000900D480190012002900C48FEF76C
:1022B00027F9002211460A20FEF70CFE0A20FEF73D
:1022C000FCFD002211461720FEF704FE1720FEF742
:1022D000F4FD05B000BD0000001002400000211018
:1022E000000C01400D4810B50B4901600C494160DC
:1022F00000212822C0E902124FF48042C0E90421E3
:102300008161C1610162FEF7CDFB002803D0BDE809
:102310001040FDF7D4BF10BD005800400001002060
:10232000A086010010B586B00024174800940194DF
:102330000294039404941349059401604721C0E971
:1023400001146321C0E903148021C0E90541FFF7AE
:1023500099F808B1FDF7B3FF4FF48050009069463B
:102360000948FFF731F908B1FDF7A9FF049404A962
:1023700005480594FFF752F8002801D0FDF79FFFAC
:1023800006B010BD002C01405401002010B586B0ED
:1023900000241748009401940294039404944FF08D
:1023A0008041059401604721C0E9011440F2E73102
:1023B000C0E9031480218161FFF764F808B1FDF7DB
:1023C0007EFF4FF48050009069460948FFF7FCF803
:1023D00008B1FDF774FF049404A905480594FFF7BC
:1023E0001DF8002801D0FDF76AFF06B010BD0000FF
:1023F0009C010020FEE7FEE710B50021074B0A46CE
:102400005FF0000003EBC004401CC0B2625480289F
:10241000F8D3491CC9B20829F2D310BDE401002049
:1024200030B1012807D100215FF0A70000F05CBAAD
:102430000021A620FAE7704710B558B1012810D145
:102440000021C02000F050FA0021A020BDE810407B
:1024500000F04ABA0021C82000F046FA0021A1206D
:10246000F4E710BD30B5CC0801F0070301259D400D
:10247000EBB2064D05EBC005C808285C0AB118434D
:1024800002E063EA0000C043285530BDE4010020AB
:1024900010B586B0002002904848816941F00401DF
:1024A0008161816901F004010491816941F00101B8
:1024B0008161806900F0010004904148416821F089
:1024C000E06141F00071416048F21F00009001207E
:1024D000019003203B4C039069462046FEF710F81C
:1024E000002204212046FEF7FBF8C820FDF73AFF42
:1024F000012204212046FEF7F3F80021AE2000F06F
:10250000F3F90021FD2000F0EFF90021122000F086
:10251000EBF90021D52000F0E7F90021A02000F020
:10252000E3F90021A82000F0DFF900213F2000F0AE
:10253000DBF90021D32000F0D7F90021084600F094
:10254000D3F90021402000F0CFF90021A12000F0B4
:10255000CBF90021C82000F0C7F90021DA2000F0F3
:10256000C3F90021122000F0BFF90021812000F002
:10257000BBF90021BF2000F0B7F90021D92000F0FD
:10258000B3F90021252000F0AFF90021DB2000F095
:10259000ABF90021342000F0A7F90021A42000F0BD
:1025A000A3F90021A62000F09FF9FFF725FF0021E5
:1025B000AF2000F099F906B010BD000000100240F5
:1025C00000000140000801400246012000E05043A5
:1025D000491EC9B2FBD2704770B5114E002400BF2E
:1025E00004F1B000C0B2002100F07EF900210846DD
:1025F00000F07AF90021102000F076F95FF0000574
:1026000006EBC5000121005D00F06EF96D1CEDB216
:10261000802DF5D3641CE4B2082CE1D370BD00001A
:10262000E40100202DE9FC4F1C460E4682468B46F5
:102630000190082B0DD0600700D0012000EBD400E2
:1026400061084843C0B28146203AD0B200900020D1
:102650004BE00620F7E7082C13D00C2C18D0102CD8
:102660001BD0182C44D10098234900EBC00000BFB8
:1026700001EB8001002711F80850E80712D00B9AEF
:1026800013E000981D4900EB400001EB4001F1E729
:1026900000981B4900EB4000EAE71A49009801EB5B
:1026A0000011E7E70B9828B3002231465046FFF7A8
:1026B000D9FE761C7F1C6D08FFB2F6B2082FDCD362
:1026C0000AF1010000F0FF0A082C0AD00199AAEBD8
:1026D0000100B0EB540F04D10BF108008A4600F062
:1026E000FF0B08F101005E46C0B280464845B2D3F8
:1026F000BDE8FC8F0122D8E7E4570008584B0008DA
:10270000804D0008F45100082DE9FF4F83B0824648
:10271000DDE910569146069801F002FB0446DFF809
:10272000D8B00B46009122460020594600F08EFB9F
:1027300007468846484601F053FE3A46434601F0B4
:102740003FFB01F0A9FA0746224600205946009BAC
:1027500000F07CFB80468946384601F0E1FA0746E6
:1027600042464B46019101F03FF901F095FA81464E
:10277000224600205946009B00F068FB044688462C
:10278000484601F0CDFA2246434601F019FB0246C5
:102790000B463846019901F039FD01F07DFA0446F7
:1027A0004846B9F10A0F06D3CDE900560246022386
:1027B0005046049908E00AEB0500CDE90056401E9A
:1027C000C0B201234A46049900F038F804980AEB95
:1027D00045072844401EC1B2B81EC0B23246FFF7BA
:1027E00041FECDE90056F8B22246069B049900F05E
:1027F00025F807B0BDE8F08F00002440F8B51C466E
:102800000093154613460F4606460BA200F04DF8FE
:1028100006EB4506701EC0B22B4607A2394600944F
:1028200000F043F87819401EC1B2B61EF0B222463D
:10283000BDE8F840FFF716BE5F5F00002DE9F84FD6
:102840000025DDE90A691F4692468B468046082E20
:1028500000D1022500241CE0381B401EC1B20A2012
:10286000FFF7B2FEBAFBF0F00A21B0FBF1F201FB78
:102870001200CDF8009080B13030C2B205EB5601A5
:1028800001FB0480C0B233465946FFF7CBFE641CFF
:10289000E4B2BC42E0D3BDE8F88F05EB560101FB82
:1028A0000480C0B233463022EEE72DE9F8411E46DF
:1028B000154688460446079F0BE0334641462046AE
:1028C0000097FFF7AFFE082E0AD004EB5600C4B203
:1028D0006D1C2A78A2F120005E28EED9BDE8F881AF
:1028E000A41DE4B2F4E7000070B51A4E054609B124
:1028F000012200E0002208213046FDF7F1FE00220F
:1029000010213046FDF7ECFE002400220121304664
:10291000FDF7E6FE280601D5012200E00022022193
:102920003046FDF7DDFE012211463046FDF7D8FEA8
:102930006806641C050EE4B2082CE6D301221021BF
:102940003046FDF7CDFE3046BDE87040012208213B
:10295000FDF7C6BE000801402DE9F74F82B0914651
:10296000FFF74AFD2A4FDFF8AC802B4C00264FF0D2
:10297000010A4FF0080B0025217809EB01100268CD
:1029800012F0FF4F08D0CDE900BAB95D18F8050084
:102990000223FFF7B9FE06E0B95D18F80500012330
:1029A0000822FFF72BFF2078401CC0B220700C28B3
:1029B00001D3002020706D1C032DDDDB761C042E5E
:1029C000D9DB5446082315A234210020CDF800A0FD
:1029D000FFF76BFF082313A2342146200094FFF772
:1029E00064FFCDE900B45D46032334211920029A27
:1029F000FFF78AFECDE90054022334215F20039AB9
:102A0000FFF782FE05B0BDE8F04FFFF7E5BD00001F
:102A10001B0000201800002030000020524E473AD2
:102A2000000000004156473A000000007047704720
:102A3000FEF7DAB930B58FB028216846FDF7C4FB40
:102A400014210AA8FDF7C0FB01210804CDE90010FC
:102A50000024029402250491CDE907504FF4E010C0
:102A600009906846FEF734FB08B172B6FEE70F2006
:102A7000CDE90A054FF48060CDE90C4002210AA897
:102A80000E94FEF759FA002801D072B6FEE70FB097
:102A900030BD70470148FEF706BE0000540100201B
:102AA0000148FEF700BE0000540100200148FEF777
:102AB000FABD0000540100200148FEF7F4BD0000FB
:102AC000540100200148FEF7EEBD00009C010020EB
:102AD000F0B50268164B174C174D4FF080479842DF
:102AE00005D0B84203D0A04201D0A84203D122F0C1
:102AF00070064A683243984205D0B84203D0A042DB
:102B000001D0A84203D122F44074CA6822434C6920
:102B100022F08002224302608A68C2620A688262EE
:102B2000984201D10969016301214161F0BD0000B2
:102B3000002C0140000400400008004010B58468EB
:102B400042EA032224F47F440A432243826010BDF8
:102B5000826822F070020A4342F0070181607047E8
:102B600010B5036A046A24F001040462846924F045
:102B7000F00444EA021423F00A020A438461026268
:102B800010BD10B5036A046A24F01004046284695D
:102B900023F0A00324F4704444EA023243EA011112
:102BA0008261016210BDFEE7490050EAC12018BFF2
:102BB00004204A0D18BF40F0010040F2FF72B2EB52
:102BC000515F08BF40F00200012808BF0520704790
:102BD0000907090E002804DB00F1E02080F800144A
:102BE000704700F00F0000F1E02080F8141D7047DE
:102BF0002DE9F0414F1E00EBC7010446D1E9000169
:102C000015461E4637F006020DD02A46334601F01F
:102C1000D7F87F1E04EBC703D3E9002300F028FE9A
:102C200037F00602F1D1022F25D0042F13D0062F42
:102C300018BFBDE8F0812A46334601F0C1F8D4E957
:102C40000A2300F015FE2A46334601F0B9F8D4E90C
:102C5000082300F00DFE2A46334601F0B1F8D4E90E
:102C6000062300F005FE2A46334601F0A9F8D4E910
:102C7000042300F0FDFD2A46334601F0A1F8D4E913
:102C8000022300F0F5FD2A46334601F099F8D4E915
:102C90000023BDE8F04100F0EBBD00000022134628
:102CA0001046014900F0A0BE0000F03F00F0E0BD7A
:102CB000002213461046114600F096BE40F2013243
:102CC00000204FF0E04101F0ECBE0000024A00207D
:102CD000110701F0E6BE000001FDFFFF2DE9F04104
:102CE0000027884606463C463D4606E008EB0510B0
:102CF000017B79B1641CE4B26D1CB542F6DBA642DF
:102D00000ED9301B01F0C8FC01463846BDE8F04141
:102D100001F000BC0168384601F08EFB0746EBE786
:102D20000020BDE8F08100002DE9F0470746086863
:102D30000E4681468046002413E000BF06EB0415D2
:102D4000287B68B94846296801F0D2FC01D2D5F841
:102D500000904046296801F0CBFD01D2D5F80080F3
:102D6000641CBC42EADB41464846BDE8F04701F03E
:102D7000F1BD00002DE9F04188460746002416E029
:102D800008EB0415D5E90106301A01F09DFC014657
:102D900066B10A4881420EDA11F0FF4F0BD00848A5
:102DA00001F0B8FB074901F0D7FC2860641CBC4265
:102DB000E6DBBDE8F08101202873F7E700409C4680
:102DC000000070410000C8420449020A08704A70BD
:102DD000020C8A70000EC870084670470C00002074
:102DE000FEF70AF8FFF726FEFFF73CFAFFF77AFA3C
:102DF000FFF798FAFFF7CAFA0F48FEF7B9FB0F483A
:102E0000FEF7B6FB0E48FDF728FEFFF741FB00205A
:102E1000FFF706FB0120FFF70FFB0A4C0848FDF700
:102E20001CFED4E90410084AFFF796FD2069FFF75D
:102E3000CBFF6060F2E70000540100209C010020FD
:102E40000001002000000020400000202DE9F04D8E
:102E50001D460C4698B0174621F0004123F0004370
:102E6000002814BF4FF0010C4FF0000C0CEB440C89
:102E7000FE4A0CEB02064FEA620C66452BD33E007D
:102E800018BF012606EB45061644F94A964222D39E
:102E9000F84A53EA070C02D0944205D148B918B059
:102EA00000201146BDE8F08D002808BF4FF0000C4F
:102EB00001D04FF0010C0CEB440212F5001F0AD8B0
:102EC000002F14BF4FF0010C4FF0000C0CEB45022B
:102ED00012F5001F07D918B03A462B462146BDE827
:102EE000F04DFFF7E3BE0022DFF88CA3002CB8BF43
:102EF000534526DADFF884C36345A8BF022220DAEF
:102F0000DFF870C39C451CDCDFF874C30CEB235C5A
:102F1000BCF1140F08DDCCF1340627FA06FC0CFADC
:102F200006F6BE420DD108E05FB9CCF1140623FAD3
:102F300006FC0CFA06F69E4203D10CF00102C2F127
:102F4000020251EA000C19D1002D17DA002C18BF2B
:102F5000022A01D0012A07D00220FDF764F918B037
:102F6000BDE8F04DFFF79ABE0220FDF75CF9FFF7D0
:102F700095FE18B081F00041BDE8F08DB7F1000C6E
:102F80006CD1534525D104F1804212F5801201BF66
:102F900000280020B74918B008BFBDE8F08DB5483B
:102FA000884207DC002DA1BF6046294618B0BDE865
:102FB000F08D07E0281E05DA80F0004118B0604669
:102FC000BDE8F08DAF497944D1E9000118B0BDE802
:102FD000F08DDFF8A0C2634525D1002D1FDA19B1AD
:102FE000514512D1D8B909E0002840F0EC82A24A3C
:102FF000214618B062F31E01BDE8F08D0020214685
:1030000018B060F31E01BDE8F08D08DA18B0234651
:10301000BDE8F04D02460020614600F0E5BC18B066
:103020002146BDE8F08D514518DAB5F1804F0DD03D
:10303000A5F1005CBCF1FF5C10D1B4F1000C0DDB1C
:1030400018B06146BDE8F04D00F0ECBB234618B067
:103050000246BDE8F04D194600F0B2BE060024F06D
:10306000004C3BD1D9B1514533D1002C06DD002DA8
:10307000A1BF0020514618B0BDE8F08D002C01DD45
:10308000002D1BDB002C13DA002D11DB012A4FF081
:10309000000014BF78497C4918B0BDE8F08D022AC1
:1030A00018BF002C0AD0012A08D1002C06DA0AE049
:1030B000002CB8BF002D11DA012A04D0002018B06E
:1030C0000146BDE8F08D18B000204FF00041BDE88A
:1030D000F08DA1F14050B0F17F601AD0012000EBDB
:1030E000E47050EA020421D0624C521E4FF0000BF3
:1030F000104304BF4FF0000B644C654883427CDDF5
:10310000644A654893421FDD884217DB002D25DBAA
:1031100037E0002C00DA4AB1022A0CBF01204FF040
:10312000FF3018B0BDE8F04D00F0E3BD0120FDF721
:103130007AF818B0BDE8F04DFFF7BABD4D4A8A42A3
:1031400002DC002D0ADC1CE0814202DA002D18DAD4
:1031500004E0484B994220DD002D12DD0220FDF7EE
:1031600062F8FFF7ABFD05460E460022534658466F
:10317000214600F025FE18B066F31E012846BDE882
:10318000F08D0220FDF74FF8FFF7A0FD0A4621461B
:1031900018B062F31E01BDE8F08D00223046614692
:1031A00001F034F880460E466FF0010201F079FC20
:1031B0004FF05532394B00F037FF4246334600F0AE
:1031C000FFFD0022364B00F02FFF82464246334679
:1031D00004911046194600F0F3FD5246049B00F09E
:1031E000EFFD8A4600904FF0C0422E4B40463146DC
:1031F00000F0E6FD2C4A2B4B00E027E0CDE906016C
:103200005146009800F0DCFD82460191274A284B88
:103210004046314600F0D4FD5246019B00F0F6FFD7
:1032200082460B4602460591DDE9060100F020FBCF
:10323000DDE9062300268846304600F0E7FF5246C7
:10324000059B00F0F1FE024600F07EB90020B1F5CA
:10325000801F07DA35223046614601F022FC06461F
:103260006FF0340000EB215024E00000FFFF1F004E
:10327000FFFF0F000000F03F0000F07F0000404320
:1032800001FCFFFF263A00000000F0FF0000F0BF45
:103290000000E0410000F043FFFFEF3F5555D53FF0
:1032A0000000E03F4715F73FFE822B6544DF5DF8E5
:1032B0000BAE543EA0F2FF300190C1F3130040F07A
:1032C0007F6141F040510291FE498842D8BF002001
:1032D00004DDFD498142C8BF012001DD0D9008E0F9
:1032E00000200D900198401C01900298A0F58010DC
:1032F00002900299F54878440B910D9900EBC100BA
:10330000D0E900230F9330460A920B9900F07EFF1C
:10331000CDE90601DDE90A2130460F9B00F0A8FA4D
:1033200002460B460020EA4900F05EFB059102468A
:103330000B460090DDE9060100F042FD1490E548DF
:103340008A464FF0000878440299006812904FF0C6
:10335000005040EA61010D980F9B01EB804000F5A1
:10336000002109910A9A129800F050FF32460B9BF7
:1033700000F05AFE4246534600F022FD06460291F6
:1033800040465146099B129A00F01AFDDDE90623DA
:1033900000F04AFE3246029B00F038FF059B009A7F
:1033A00000F00EFD0091149A049053461046194601
:1033B00000F006FD06460246C7480B46029106216C
:1033C0007844FFF715FCCDE90510029B3246104604
:1033D000194600F0F5FCDDE9053200F0F1FC05913D
:1033E0000646534640461946149A00F041FA009B9F
:1033F000049A00F0E5FC3246059B00F039FACDE96D
:103400000510424653461046194600F0D9FC0022EA
:10341000B24B02910A9000F02BFADDE9053200F080
:1034200027FA0E464246AD4B404600F0EFFE029BA7
:103430000A9A00F0EBFEDDE9053200F0F5FD4246A8
:1034400002910A9033461046514600F0B9FCCDE98E
:1034500006015346149A02990A9800F0B1FC8A4674
:103460000290334642460099049800F0A9FC534666
:10347000029A00F0FDF982460B4602460591DDE90D
:10348000060100F0F5F9DDE906230020884606462E
:1034900000F0BCFE5246059B00F0C6FD8246099135
:1034A0004FF060428E4B3046414600F089FC04905C
:1034B00006918C4A8A4B5046099900F081FC82465D
:1034C0000291894A894B3046414600F079FC5246C8
:1034D000029B00F0CDF9864B7B440D9A03EBC203AF
:1034E000D3E9002300F0C4F90E900791019800F091
:1034F00000FC0591DDE9061382460E9A049800F05F
:10350000B7F97C4A7A440D9B02EBC303D3E900234D
:103510000093029200F0ACF95246059B00F0A8F926
:103520000026884652463046059B00F06FFE009B01
:10353000029A00F06BFE069B049A00F067FE079B60
:103540000E9A00F071FD024600200B4602903846AC
:10355000294600F035FC824601912B463846194633
:10356000029A00F053FE3246434600F029FC5246D0
:10357000019B00F07DF907468A46324643462946BC
:10358000029800F01DFC05460E463A46534600F0F0
:103590006FF9594A8846914221DBA8EB020353EAAE
:1035A000000210D12A46334600F030FECDE9040176
:1035B000524A534B3846514600F05AF9DDE904238C
:1035C00000F0FCFC21D20220FCF72DFEFFF776FB79
:1035D0000A46214618B062F31E01BDE8F08D494B42
:1035E00028F000429A4210D3474A08EB020353EAFC
:1035F00000027FF4C6AD2A46334600F007FE3A4685
:10360000534600F0DBFC7FF6BCAD0022019228F0AF
:1036100000403E493E4A01EB2051824223DA481CD9
:103620004FF4801121FA00F040443A4AC0F30A51A5
:103630007A44394BA1F2FF31CB4020EA0303C0F3B7
:10364000130040F48010C1F11401C84012680190C9
:10365000B8F1000FBCBF404201902846314600F04F
:10366000D5FD05460E462A4633463846514600F0FB
:10367000FFF84FF000084246284B4046059100F005
:103680009FFBCDE90601264A264B4046059900F0EE
:1036900097FB009102902A4633464046059900F078
:1036A000B5FD3A46534600F0BFFC1F4A1F4B00F0E1
:1036B00087FB009B029A00F0DBF80746884602462B
:1036C0000B4635E08E9803007AB60B006E3600008C
:1036D0000000F03FA6360000D4350000000008408E
:1036E00009C7EE3FFD033ADCF5015B14E02F3EBE57
:1036F000AC3400007034000000009040FE822B6566
:103700004715973C00CC904000346F3F01FCFFFF11
:103710000000E03FBC330000FFFF0F00432EE63FF8
:10372000396CA80C615C20BEEF39FAFE422EE63FF0
:10373000DDE9060100F09CF8DDE9062305460E46AA
:1037400000F064FD3A46434600F06EFC0F462A4600
:10375000334600901046194600F032FB824602467E
:103760002E4888460B4605217844FFF741FA524619
:10377000434600F025FB2A46334600F055FC8046C0
:103780008A463B4628463146009A00F019FB3B46E4
:10379000009A00F06DF80691009000224FF08043EF
:1037A0004046514600F032FD0F460C9042465346CB
:1037B0002846314600F004FB3B460C9A00F014F911
:1037C000069B009A00F022FD2A46334600F01EFDBB
:1037D0000022134B00F028FC054601980E4601EB31
:1037E00000510815002810DC28463146019A01F0E6
:1037F00058F9FFF7D9F9042808BFFFF767FA2846F8
:103800003146019A01F04DF905460B4618B02A469B
:1038100058462146BDE8F04D00F0D2BA5C320000B7
:103820000000F03F2DE9F04106460F4600F008FC8D
:10383000041E0D4618BF0120284320F00040C0F1AF
:103840007F6000F1E040C00F0ED0301C18BF012097
:10385000384320F00040C0F17F6000F1E040C00F2D
:1038600004BF0120FCF7DFFC20462946BDE8F081BB
:1038700010B591EA030F48BF83F0004300F1CE84F6
:10388000841A71EB030C05D2121943EB0C03001BD5
:1038900061EB0C01DFF824E14FEA1154A4EB135C57
:1038A0001EEA430F18BF9EEA445F73D023EA0E035B
:1038B000DCF1200E21EA045143F4801332D322FAC2
:1038C0000CFE10EB0E0023FA0CFE41EB0E01CCF1C6
:1038D000200E03FA0EFE10EB0E0051F10001B1F5BF
:1038E000801FCCF1200E32D201EB045112FA0EF2FD
:1038F000BDE8104058BF7047401C38BF5FEA420225
:1039000018BF7047002814BF20F0010041F10001EA
:103910004FEA410313F5001F38BF7047A1F1C041C2
:1039200000F046BB012A43EB0302ACF1200CDCF1B2
:103930001F0E32BF4FF0000E23FA0CF310EB030002
:1039400041EB0451B4EB115FD0D0A1EB045101F570
:10395000801149085FEA300001EB04510ED350F1A9
:10396000000038BF12FA0EFE08D1BDE81040C9E7CA
:10397000401C38BF5FEA4202CAD1C3E7BDE810402D
:103980004FEA410313F5001F38BF7047A1F1C04152
:1039900000F00EBB9EEA445F08D011EA5E0FBDE85E
:1039A000104004BF01F0004100207047BDE8104006
:1039B00070B500F0AFFA00BF64FBBE3E0000E0FF50
:1039C00002494FF0000001F03AB800BF0000F87F54
:1039D000491058BFC1F140415B1058BFC3F140438B
:1039E0008B42EFF3008070472DE9C04130B4DFF81F
:1039F000A0C23CEA111418BF3CEA131400F0EC809A
:103A000081EA03051CEA111444EAD57418BF1CEAC4
:103A1000131500F0C780A4EB05044FF0004545EAFC
:103A2000C12145EAC32341EA505143EA525304F10C
:103A30007F74994204F500344FEAC0204FEAC22255
:103A400008BF904200F09C804FEA13650FF24016C9
:103A5000765D4FEA134506FB05F7C7F1807706FB55
:103A600007F74FEAD737A7FB03687642C8F58038D7
:103A7000A7FB06CE38BFA8F1010807FB08E64FF008
:103A8000000EA6FB028CE6FB03CEDCF1000CCEF1AF
:103A9000004E38BFAEF1010EA6FB0C584FF00007E8
:103AA0004FF00005E6FB0E87A1FB08C6A0FB07CE82
:103AB00016EB0E0645F10005E1FB076515F1E04E3A
:103AC0007EBFA4F580345FEA46066D4116F180079B
:103AD00045F100054FEA17274FEA066647EA0567F2
:103AE000A6F1DE46B6F1805F4FEA15251FD93846AC
:103AF00024F0010C05EBC471BCF1FE6F01EB0C115D
:103B000002D8F0BCBDE8008124425CBF01F5801EF4
:103B10009EEAC47F02D4F0BCBDE80081244238D4C0
:103B2000F0BCA1F1C041BDE8004100F041BA4FEA4C
:103B3000D22242EA43524FEAD323A7FB02864FEA3E
:103B4000D02040EA415007FB03661EEA0E0F4FEA01
:103B5000D12105FB026658BFA6EB0056B6EB005616
:103B60004FEA520E4EEAC37E18EB0E0E56EB530E82
:103B7000BDD518EB02085E417F1C55F10005B6E784
:103B80004FF480154FF000074FF000064FF000088B
:103B9000ADE7F0BC4FF0000001F1C04101F0004181
:103BA000BDE8008111EA0C1F0CEA131500D00CE0EF
:103BB00013EA0C1F00F025804FF00000F0BC81EAF2
:103BC000030101F00041BDE80081F0BCBDE8004107
:103BD00081EA030100F0ECB9F0BCBDE8004170B52A
:103BE00000F098F9097EFC3E00F007B881EA030175
:103BF0004FF0000001F00041704781EA030100F03E
:103C0000D7B9F0BCBDE800414FF000002149704732
:103C1000FFFDFBF9F7F5F4F2F0EEEDEBE9E8E6E491
:103C2000E3E1E0DEDDDBDAD8D7D5D4D3D1D0CFCD18
:103C3000CCCBCAC8C7C6C5C4C2C1C0BFBEBDBCBB51
:103C4000BAB9B8B7B6B5B4B3B2B1B0AFAEADACAB4C
:103C5000AAA9A8A8A7A6A5A4A3A3A2A1A09F9F9E26
:103C60009D9C9C9B9A9999989797969595949393D8
:103C7000929191908F8F8E8E8D8C8C8B8B8A89896F
:103C800088888787868585848483838282818180F2
:103C90000000FF070000F87F4FEA1153A3F580638F
:103CA000D3F11E03A8BFD3F1200C08DB4FF0004274
:103CB00042EAC12252EA505232FA03F070470942F6
:103CC0000BD4102BC4BF0020704703F5787CBCF1E7
:103CD000FF3F05D04FF0FF3070474FF000007047B6
:103CE00070B500F017F900BF49922480002070479A
:103CF000F0E710F0004248BF4042B0FA80F310FAFB
:103D000003F10AD0C3F11D0303F580634FEA41506C
:103D100002EB035202EBD12170474FF000007047D5
:103D2000B0FA80F310FA03F10AD0C3F11D0303F5D2
:103D300080634FEA41504FEA035202EBD1217047B2
:103D40004FF000007047000051EA030C17D41CF537
:103D5000801F58BFBCF5801F00F10680994218BF34
:103D6000704708BF9042704707D711F5801F58BFB2
:103D700013F5801F19D499427047894270471CF58A
:103D8000801F08D5BCF5801FF7D58B4218BF704740
:103D900008BF824270474FF4001C1CEB410F38BF34
:103DA0001CEB430F01D28B42704770B500F0B2F8A4
:103DB000922449004FF000514FF08053FFF708BEA6
:103DC000DFF848C170B51CEA111E1EBF1CEA1315AE
:103DD0009EEA0C0F95EA0C0F00F06F8081EA030455
:103DE00023EA4C134EEAD47E21EA4C1141F48011AF
:103DF00043F48013AE44A1FB024CA0FB0365AEF17B
:103E00007F7E361955EB0C05A1FB034C4CF10003EA
:103E1000A0FB021C16EB0C06654153F1000309429E
:103E200018BF46F0010613F4007F0BD14FEA0331AF
:103E30004FEA0530340341EA155140EA16506FF05D
:103E400003020AE04FEAC3214FEAC520F40241EA27
:103E5000555140EA56506FF0020202EB2E4201EB40
:103E6000025585EACE710AD05FEA440C18BF24F0EF
:103E7000004450F1000041F1000120EAD47040F20A
:103E8000FE7C624500D270BDA84214BF4FF0804452
:103E90004FF04044002E08BF0024BEF1806FA8BF41
:103EA000A1F1C041BDE8704080F282804FF0000077
:103EB00001F1C04101F0004170479EEA0C0F0CEA8D
:103EC000131518BF95EA0C0F06D04FF0000081EAD9
:103ED000030E0EF0004170BD00F01CF88900013E99
:103EE00000F007B800F009B84FEA430C5FEA5C5CE9
:103EF00008D081EA030100F05BB84FEA410C5FEAA9
:103F00005C5CF6D14FF00000014970470000FF07EC
:103F10000000F87F0EF1020E2EF0030E5EF8046B27
:103F2000364205D4012A43EB030515F5001F12D8CC
:103F3000012841EB010C1CF5001F0CD80ED14FEAF3
:103F4000D17C15F5001F0CEB4C0C0CF1020C08BFDA
:103F50004CEBD37C04E04FF0080C01E04FEAD37C3B
:103F60000CEB4C0526FA05F606F00706B6F1040C34
:103F700006D20EEB860CBDE870404CF0010C604799
:103F8000DFE80CF0090B02024FF000414FF0000097
:103F9000A1F5002170BD19461046012851EB01041E
:103FA00018BFD4F5001484BF002001F0004170BD9B
:103FB0000808A0F500114FEA3101704753EA010CDF
:103FC00017D41CF5801F58BFBCF5801F00F1068078
:103FD0008B4218BF704708BF8242704707D713F55E
:103FE000801F58BF11F5801F19D48B4270479B4228
:103FF00070471CF5801F08D5BCF5801FF7D5994286
:1040000018BF704708BF904270474FF4001C1CEB6C
:10401000430F38BF1CEB410F01D2994270470FB4D8
:104020000CBC03BCFFF7C1BE91EA030F10B581F0D1
:1040300000413FF525AC83F0004300F0EFB80000ED
:104040002DE9F04101F5801CBCF5001FC0F2C380D2
:104050004FEA115C21EA0C510CF1FD0C41F4801186
:104060005FEA5C0C0CF5C07C01D3400049413DA4E3
:10407000890241EA905187028E0E0A0CA45D04FB6E
:1040800004F602FB06F6C6F14046A4FB0662F60DF6
:1040900046EA422606FB06F4A4FB01235242C3F182
:1040A000404338BF5B1EA6FB02420024E6FB03240C
:1040B000D20B42EA4446A6FB0623A1FB02E2A3FB85
:1040C00007E4A4184FF0000252F10002E3FB0142A2
:1040D0006442C2F1404E38BFAEF1010EA6FB04238C
:1040E0004FF00002E6FB0E32A2FB03464FF0000445
:1040F000B61954F10004E2FB0264A1FB06E6A4FB3E
:1041000007E816EB08064FF0000858F10008E4FB3A
:1041100001687642C8F1405838BFA8F10108A2FBF7
:1041200006E4A3FB08E52D194FF0000454F1000448
:10413000E2FB0854A1FB05E6A7FB04E818EB060820
:104140004FF0000656F10006E1FB048618F1200549
:1041500056F10006A809A8F11B08B10908F03F08AC
:10416000B8F10A0F40EA86601CD901EB0C51BDE89A
:10417000F08100BFFCF5EEE8E2DDD8D3CFCBC7C3BA
:10418000C0BDB9B6B4B1AEACA9A7A5A3A19F9D9B74
:104190009A9896959392908F8D8C8B898887868537
:1041A00084838281A0FB006800FB01F208EB4208D7
:1041B000B8EB872807D5341858EB0104D5D5401C37
:1041C00051F10001D1E7341A78EB0104CDD4401E3F
:1041D00071F10001C9E75FEA4C0C5FEA9C5C0DD10C
:1041E00005D34FF0000001F00041BDE8F081BDE8CB
:1041F000F04170B5FFF78EFE6DDBFFBEBDE8F0410C
:104200004FF00000004970470000F87F10B591EAB8
:10421000030F48BF83F000433FF532AB841A71EBC4
:10422000030C07D212198CF0004C43EB0C03001B5B
:1042300061EB0C01DFF8A4E14FEA1154A4EB135C2D
:104240001EEA430F18BF9EEA445F00F0B08023EAE5
:104250006E03524221EA0451C3EB6E0338BF5B1E6A
:10426000DCF1200E25D322FA0CFE10EB0E0043FAEF
:104270000CFE41EB0E01CCF1200E03FA0EFE10EB0A
:104280000E0051F10001CCF1200E29D412FA0EF2E9
:1042900001EB0451BDE8104058BF7047401C1CBFE3
:1042A000B2F1004F704700280CBF491C20F00100FC
:1042B000704712EB020E43EB030218BF4FF0010EE2
:1042C0004EEA4202ACF1200CDCF11E0E54D943FA46
:1042D0000CFE10EB0E0051F1FF31CCF11E0ED5D5C6
:1042E0000EF1010E12FA0EFE404141EB010101EB0D
:1042F000445C5FEA5C5C10D910EBDE7001EB0451AA
:1043000038BFBEF1004FBDE8104018BF704700280D
:104310000CBF491C20F00100704730D24FEAD42C6A
:1043200011F5001124F400641BD0B1FA81F20B3AAC
:10433000A41AA41ED2F12003914030FA03F31943CA
:10434000904001EBCC71002C01EB0451BDE8104012
:10435000A8BF704701F1C0414FF0000001F00041DB
:104360007047B0FA80F310FA03F100D110BDE41ADF
:10437000173C4805C90AE4E701EB045110BD491098
:1043800001EB0451BDE810404FEA300002E04FF06D
:10439000000170474A0008BF0042F8D0B2F5001F84
:1043A00028BF704701F000414FF0000070479EEABF
:1043B000445F07D011EA5E0FBDE8104004BF002142
:1043C00000207047BDE8104070B5FFF7A3FD00BFA7
:1043D00040DFF63E83F00041104670470000E0FFEA
:1043E00043004FEAD30C4FEA3C0C43401FBF400749
:1043F0000CF1605113F0FE4F70471CF0006F03D1B9
:1044000000200CF0004170470CF0004343EA50706C
:1044100010B540EACC0000F020FA00BF0000009286
:104420004FEA0001FFF7C4BD4FF000414FF000001C
:10443000A1F500217047000090EA010F48BF81F00C
:10444000004100F18E82421A3CBF801A89184FEA5F
:10445000D0524FF07F4C1CEA410FA2EBD15318BF52
:104460009CEA026F00F03B804FF0004C4CEA0020C9
:104470004CEA012121FA03FC10EB0C0C1ED202F1D4
:10448000FF325FEA1C2040EBC25038BF70471CF07F
:104490007F0F4FEA400C18BFBCF17F4F38BF704709
:1044A000C3F12003994008BF20F00100BCF17F4F09
:1044B00038BF7047A0F1C04000F015BA4FEA3C0089
:1044C000000A40EBC25028BF1CF0FF0F4FEA400C1F
:1044D000E6D018BFBCF17F4F38BF7047EAE79CEACF
:1044E000026F05D010EA5C0F08BF00F00040704773
:1044F00010B500F0B2F900BF64FBBE3E401058BFDB
:10450000C0F14040491058BFC1F140418142EFF332
:10451000008070474FF47F0C1CEAD0121EBF1CEACB
:10452000D11392EA0C0F93EA0C0F00F0858090EA09
:10453000010F48BF42F4807240F4000C41F40000C7
:104540002CF07F4120F07F4000B58142A2EB0302B6
:104550000FF2081CACEB504EC0F100009EF800E0DA
:104560004FEA4E0E00FB0EFC38BF49004FEA2C1CF0
:1045700002F5FA020CFB0EF34FEACE1E4FEA112CA5
:104580004FEAC1210EEB635E42EB22420EFB0CFCB4
:104590004FEA1C5300FB03114FEA112C4FEA013183
:1045A0000EFB0CFC4FEADC4C00FB0C11C14228BF97
:1045B00009184CEB03335DF804EB10EB410143EBBE
:1045C000C250B2F57C0F38BF704729D512F0F00FFA
:1045D0001CBF00F1C04000F00040704700818283A2
:1045E0008485868788898B8C8D8E8F919293959602
:1045F00097999A9C9D9FA0A2A3A5A7A8AAACAEB08C
:10460000B2B3B5B7B9BCBEC0C2C5C7C9CCCED1D490
:10461000D7D9DCDFE2E6E9ECF0F3F7FAFE000000C0
:104620004FEA400C0CF1807CBCF17E4F28BF7047F4
:10463000B0F1C04000F057B990EA010F0CEAD11375
:1046400048BF42F48072624538BF634507D213F415
:104650007F0F16D080EA010000F00040704710B5CF
:1046600000F0FBF8097EFC3E00F005B880EA01008E
:1046700000F00040704780EA010000F0004000F0C8
:1046800032B912F47F0F04BF0248704780EA01007C
:1046900000F029B90000C07F10F0004148BF40423F
:1046A000B0FA80F310FA03F2C3F19D030BD051EA84
:1046B000C35101EB1220530638BF704700F10100CF
:1046C00008BF20F001007047B0FA80F310FA03F23F
:1046D000C3F19D030AD0D90501EB1220530638BF60
:1046E000704700F1010008BF20F001007047000092
:1046F00050EA010C00F113801CF5000F58BFBCF507
:10470000000F01D48842704707D710F5000F58BF3B
:1047100011F5000F15D488427047894270471CF587
:10472000000F04D5BCF5000FF7D5814270474FF05C
:10473000807C1CEB400F38BF1CEB410F01D2814243
:10474000704710B500F089F8922449004FF00050EE
:104750004FF08051FFF7D2BE4FF47F0C1CEAD0120D
:104760001EBF1CEAD11392EA0C0F93EA0C0F00F063
:10477000478090EA010F48BF42F480724FF0004C2E
:104780004CEA00204CEA012102EB0302A0FB0113DA
:10479000A2F50002002918BF43F001035B0028BF07
:1047A0004FEA330342EB22425FEA132C4CEBC25038
:1047B0002EBFBCEB436FB2F57C0F70474FEA036C22
:1047C000BCF1004F08BF20F00100B2F57C0F38BFEC
:1047D00070470BD582F0FF0212F5803FC8BF7047CB
:1047E00000F1C040D8BF00F00040704700F5000C59
:1047F0005FEA4C0C48BF7047B0F1C04000F073B89E
:1048000090EA010F0CEAD11348BF42F4807262456E
:1048100038BF634504D280EA010000F000407047D1
:1048200010B500F01AF800BF8900013E00F007B88B
:1048300000F009B85FEA410C5FEA1C6C08D080EA1E
:10484000010000F050B85FEA400C5FEA1C6CF6D142
:104850004FF00040A0F5800070470EF1020E2EF0E0
:10486000030E5EF8044B244204D44FEA4102B2F135
:104870007F4F11D84FEA4003B3F17F4F0CD80ED1D0
:104880004FEAD07CB2F17F4F0CEB4C0C0CF1020CD8
:1048900008BF4CEBD17C04E04FF0080C01E04FEA7C
:1048A000D17C0CEB4C0324FA03F404F00704B4F1BC
:1048B000040C06D20EEB840CBDE810404CF0010C49
:1048C0006047DFE80CF0070802024FF00040A0F557
:1048D000800010BD0846420018BFD2F1807288BF28
:1048E00000F0004010BDFF2141EAD050C0057047E4
:1048F00051EA000C00F113801CF5000F58BFBCF505
:10490000000F01D48142704707D711F5000F58BF3F
:1049100010F5000F15D481427047894270471CF58D
:10492000000F04D5BCF5000FF7D5884270474FF053
:10493000807C1CEB410F38BF1CEB400F01D288423A
:10494000704780EA010081EA000180EA0100FFF778
:10495000F8BE000090EA010F48BF81F000413FF52A
:1049600072AD421A04D882F00042A0EB020011445A
:104970004FEAD0524FF07F4C1CEA410FA2EBD153CB
:1049800018BF9CEA026F4AD04FF0004C4CEA00205E
:104990004CEA012121FA03FCB0EB0C0C0FD412F00D
:1049A000FE0F36D05FEA4C001DD5001240EBC2501E
:1049B00038BF70471CF03F0F18BF70470BE0A2F1E3
:1049C00001025FEA1C2040EBC25038BF70471CF068
:1049D0007F0F18BF7047C3F12003994014BF401EDA
:1049E00020F00100704780084FEA122308BF70478B
:1049F000B0FA80FCA2EB0C02CCF1280C60FA0CF0AF
:104A000093EA122F04BF00EBC25070474FEAC37005
:104A10007047130A5FEADC1008BF7047F6E79CEAAC
:104A2000026F04D010EA5C0F08BF0020704710B579
:104A3000FFF713FF40DFF63E81F0004070470CF0B7
:104A40000F03092B08BF082000F059800A2B0BD058
:104A5000082B18BF704708BF1CF0400F0AD04FF05A
:104A600000004FF0000170471CF0400F18BF4FF0DE
:104A7000004070471CF0100F08D020F0704300F089
:104A80007F4242EAD3014FEA4370704700F0604032
:104A900021F07F4242EA000201F07F4040EA72705A
:104AA00070474FF0FF0C4CF4E06C1CEA11531CBF34
:104AB0009CEA030C9445C2BFDA4201EB02517047F5
:104AC000002B0DD0BCF1000F0FD0002A01F00041E7
:104AD000A4BF41F0E04141F07F614FF0000070471A
:104AE00001F000414FF00000704750EA01334FF0F1
:104AF0009B0C18BF4CF0806C7EF462AF70471CF4C6
:104B0000801F11D01CF4E02F03D06FEACC31490094
:104B100070474FF04050EFF3008222F0704242EABB
:104B2000000282F3008870474FF0000070470102D6
:104B300002030405060708090A0B0C0D0E0F1010DE
:104B4000000000000000000001020304060708093D
:104B5000000000000102030400000000000000004B
:104B6000002F000000000700070000147F147F14CE
:104B700000242A7F2A120062640813230036495554
:104B8000225000000503000000001C22410000002C
:104B900041221C000014083E08140008083E0808C2
:104BA000000000A06000000808080808000060601D
:104BB0000000002010080402003E5149453E00005C
:104BC000427F4000004261514946002141454B313E
:104BD000001814127F10002745454539003C4A490A
:104BE000493000017109050300364949493600067C
:104BF0004949291E000036360000000056360000E4
:104C0000000814224100001414141414000041225E
:104C1000140800020151090600324959513E007C36
:104C20001211127C007F49494936003E4141412220
:104C3000007F4141221C007F49494941007F090909
:104C40000901003E4149497A007F0808087F0000B9
:104C5000417F4100002040413F01007F0814224174
:104C6000007F40404040007F020C027F007F04082C
:104C7000107F003E4141413E007F09090906003E88
:104C80004151215E007F09192946004649494931B1
:104C90000001017F0101003F4040403F001F2040D4
:104CA000201F003F4038403F006314081463000792
:104CB0000870080700615149454300007F414100E9
:104CC00000552A552A55000041417F000004020189
:104CD0000204004040404040000001020400002067
:104CE00054545478007F48444438003844444420A5
:104CF00000384444487F00385454541800087E0952
:104D000001020018A4A4A47C007F08040478000019
:104D1000447D4000004080847D00007F10284400D6
:104D20000000417F4000007C04180478007C0804E7
:104D3000047800384444443800FC24242418001823
:104D4000242418FC007C080404080048545454200F
:104D500000043F444020003C4040207C001C204098
:104D6000201C003C4030403C004428102844001CDB
:104D7000A0A0A07C004464544C44141414141414D3
:104D80000000000000000000000000000000FC0027
:104D90000000000002000000000C020C02000000F5
:104DA0000000000090D0BCD0BC90000300030000C5
:104DB0001824FE448C000302070201001824D8B016
:104DC0004C80000300010201C038E438E000010219
:104DD00002010202080600000000000000000000BE
:104DE000000000F80402000000010204000204F8C0
:104DF00000000004020100009060F86090000000D4
:104E0000010000002020FC20200000000100000024
:104E10000000000000000806000000002020202004
:104E20002000000000000000000000000000000260
:104E3000000000000080601C02000403000000006D
:104E4000F8040404F8000102020201000008FC005A
:104E5000000000020302000018844424180003022A
:104E60000202020008042424D80001020202010008
:104E700040B088FC80000000000302003C24242491
:104E8000C400010202020100F824242CC000010227
:104E9000020201000C04E41C0400000003000000F6
:104EA000D8242424D80001020202010038444444DA
:104EB000F8000003020201000000100000000000E2
:104EC00002000000000020000000000006000000BA
:104ED0000020508804020000000001029090909091
:104EE0009000000000000000000204885020000232
:104EF000010000001804C424180000000200000093
:104F0000F804E494F80001020202020000E09CF0C0
:104F1000800002030000030204FC2424D8000203E2
:104F200002020100F80404040C0001020202010064
:104F300004FC0404F80002030202010004FC2474CF
:104F40000C0002030202030004FC24740C000203A0
:104F500002000000F0080444CC40000102020100FD
:104F600004FC2020FC040203000003020404FC04EF
:104F70000400020203020200000404FC040406040C
:104F80000403000004FC24D00C040203020003020A
:104F900004FC04000000020302020203FC3CC03CCB
:104FA000FC0003000300030004FC30C4FC04020303
:104FB00002000300F8040404F800010202020100E8
:104FC00004FC24241800020302000000F884840476
:104FD000F80001020207050004FC246498000203A3
:104FE00002000302182424448C0003020202010080
:104FF0000C04FC040C0000020302000004FC00008E
:10500000FC04000102020100047C80E01C0400009A
:10501000030000001CE03CE01C0000030003000053
:10502000049C609C0400020300030200041CE01CBA
:1050300004000002030200000C84641C040002034C
:10504000020203000000FE02020000000704040048
:10505000000E30C00000000000010200000202FE4D
:105060000000000404070000000402040000000027
:105070000000000000000000000008080808080800
:105080000000020000000000000000000040A0A09E
:10509000C00000010202030204FC2020C000000343
:1050A0000202010000C02020600000010202020094
:1050B00000C02024FC0000010202030200C0A0A0E6
:1050C000C0000001020202000020F82424040002B3
:1050D000030202000040A0A0602000070A0A0A04A0
:1050E00004FC2020C0000203020003020020E400B0
:1050F0000000000203020000000020E40000080895
:105100000807000004FC80E02020020302000302E4
:105110000404FC000000020203020200E020E02080
:10512000C00003000300030020E02020C0000203B1
:105130000200030200C02020C000000102020100A2
:1051400020E02020C000080F0A02010000C020203B
:10515000E0000001020A0F0820E0402020000203C6
:10516000020000000060A0A0200000020202030074
:105170000020F820000000000102020020E00020D2
:10518000E00000010202030220E020806020000015
:10519000030100006080E080600000030003000065
:1051A00020608060200002030003020020E02080D5
:1051B00060200808070100000020A0602000000215
:1051C00003020200000020DE0200000000070400CD
:1051D000000000FF00000000000F00000002DE20C1
:1051E00000000004070000000201020404020000A5
:1051F00000000000000000000000000000000000AF
:1052000000000000000000F8000000000000003373
:105210003000000000100C06100C0600000000001A
:105220000000000040C07840C0784000043F040403
:105230003F040400007088FC08300000001820FFC4
:10524000211E0000F008F000E018000000211C03FF
:105250001E211E0000F00888700000001E2123247B
:105260001927211010160E00000000000000000099
:1052700000000000000000E0180402000000000729
:105280001820400000020418E00000000040201830
:1052900007000000404080F0804040000202010F03
:1052A00001020200000000F0000000000101011FE7
:1052B00001010100000000000000000080B070004B
:1052C00000000000000000000000000000010101DB
:1052D000010101010000000000000000003030006A
:1052E0000000000000000000806018040060180644
:1052F0000100000000E010080810E000000F10207E
:1053000020100F00001010F8000000000020203FC7
:105310002020000000700808088870000030282451
:1053200022213000003008888848300000182020F2
:1053300020110E000000C02010F800000007042417
:10534000243F240000F8088888080800001921205C
:1053500020110E0000E0108888180000000F1120B6
:1053600020110E0000380808C83808000000003F6F
:10537000000000000070880808887000001C2221CE
:1053800021221C0000E010080810E000000031227B
:1053900022110F00000000C0C0000000000000301B
:1053A000300000000000008000000000000080606D
:1053B00000000000000080402010080000010204EE
:1053C00008102000404040404040400004040404D5
:1053D0000404040000081020408000000020100891
:1053E00004020100007048080808F00000000030C6
:1053F00036010000C030C828E810E0000718272454
:1054000023140B000000C038E0000000203C230201
:105410000227382008F8888888700000203F202064
:1054200020110E00C0300808080838000718202096
:105430002010080008F808080810E000203F20208D
:1054400020100F0008F88888E8081000203F20206E
:105450002320180008F88888E8081000203F200062
:1054600003000000C030080808380000071820209A
:10547000221E020008F808000008F808203F210159
:1054800001213F20000808F8080800000020203F04
:105490002020000000000808F8080800C080808074
:1054A0007F00000008F888C028180800203F20016D
:1054B0002638200008F8080000000000203F2020C7
:1054C0002020300008F8F800F8F80800203F003FDE
:1054D000003F200008F830C00008F808203F2000F6
:1054E00007183F00E01008080810E0000F10202007
:1054F00020100F0008F808080808F000203F2101DC
:1055000001010000E01008080810E0000F18242432
:1055100038504F0008F8888888887000203F2000A5
:10552000030C30200070880808083800003820215B
:1055300021221C00180808F8080818000000203F65
:105540002000000008F808000008F808001F2020CC
:1055500020201F000878880000C83808000007389D
:105560000E010000F80800F80008F800033C0700EE
:10557000073C0300081868808068180820302C0356
:10558000032C30200838C800C83808000000203F2D
:105590002000000010080808C8380800203826211C
:1055A00020201800000000FE020202000000007F20
:1055B00040404000000C30C000000000000000012E
:1055C0000638C00000020202FE0000000040404019
:1055D0007F0000000000040202020400000000003E
:1055E00000000000000000000000000080808080BB
:1055F00080808080000202040000000000000000A3
:10560000000000000000808080800000001924223B
:1056100022223F2008F8008080000000003F112077
:1056200020110E000000008080800000000E11207C
:1056300020201100000000808088F800000E11205A
:1056400020103F200000808080800000001F222268
:1056500022221300008080F0888888180020203FD4
:10566000202000000000808080808000006B9494E7
:105670009493600008F8008080800000203F2100A3
:1056800000203F2000809898000000000020203F6C
:1056900020200000000000809898000000C080805A
:1056A000807F000008F8000080808000203F2402F6
:1056B0002D302000000808F8000000000020203FE6
:1056C000202000008080808080808000203F20009B
:1056D0003F20003F8080008080800000203F21002C
:1056E00000203F200000808080800000001F2020DC
:1056F00020201F00808000808000000080FFA1200B
:1057000020110E000000008080808000000E11201B
:1057100020A0FF80808080008080800020203F21AA
:10572000200001000000808080808000003324245D
:1057300024241900008080E0808000000000001F09
:10574000202000008080000000808000001F2020BA
:1057500020103F20808080000080808000010E307B
:105760000806010080800080008080800F300C03DC
:105770000C300F0000808000808080000020312EDF
:105780000E312000808080000080808080818E70BB
:105790001806010000808080808080000021302C6D
:1057A0002221300000000000807C02020000000086
:1057B000003F404000000000FF000000000000002B
:1057C000FF0000000002027C800000000040403F1B
:1057D00000000000000601010202040400000000B5
:1057E00000000000000000000000000000000000B9
:1057F00000000000000000000000000000000000A9
:1058000000000000000000000000000000F0F0F0C8
:10581000000000000000000000017F010000000007
:1058200000000000001C1C1C000000000000806044
:10583000301C8C60301C0C000000000000000000D8
:105840000000000000000000000000000000000058
:10585000000000E00000000000E000000086E69F7D
:1058600086868686E69F860000011F0101010101F0
:105870001F010100000080C06020F820E0C000008F
:10588000000003070C18FF70E18100000000070F03
:1058900010107F100F070000806020608000000063
:1058A000E02000000F3020309F70DC371030C00047
:1058B0000000100E03000718101807000000C02099
:1058C00020E0C0000000000080E01F38E88703C42B
:1058D0003C040000070F1810100B070D10100800F3
:1058E00000808C4C38000000000000000000000028
:1058F00000000000000000000000000000000000A8
:105900000000000000000000000080E030080400FB
:105910000000000000FEFF01000000000000000089
:105920000000030F1820400000040830E080000051
:10593000000000000000000001FFFE000000000069
:10594000004020180F0300000000000000000000CD
:105950000000C00000000000004266663C18FF180E
:105960003C666642000000000000030000000000EA
:105970000000000000008000000000000010101077
:105980001010FF10101010100000000000000300A5
:105990000000000000000000000000000000000007
:1059A00000000000000000000000000000808C4C9F
:1059B00038000000000000000000000000000000AF
:1059C0000000000000101010101010101010100037
:1059D00000000000000000000000000000000000C7
:1059E00000000000000000000000000000000000B7
:1059F0000000000000001C1C1C0000000000000053
:105A00000000000000000000E0380C000000000072
:105A100080701C03000000000060380E01000000D0
:105A200000000000000080C060202060C0800000F6
:105A300000FEFF010000000001FFFE000001070E54
:105A4000181010180E0701000000808080C0E000D0
:105A5000000000000000000000FFFF000000000048
:105A600000001010101F1F101010000000804020B8
:105A700020202060C0800000000303008040203808
:105A80001F070000001C1A1918181818181F00000A
:105A90000080C020202060C08000000000030300C0
:105AA0001010182FE780000000070F1010101018BA
:105AB0000F070000000000000000C0E0F000000040
:105AC00000C0B088868180FFFF8080000000000059
:105AD0000010101F1F1010000000E0606060606088
